{
	"contracts/ERC20K.sol": {
		"ERC20K": {
			"abi": [
				{
					"inputs": [
						{
							"internalType": "address",
							"name": "vrfCoordinator_",
							"type": "address"
						},
						{
							"internalType": "bytes32",
							"name": "keyHash",
							"type": "bytes32"
						},
						{
							"internalType": "uint64",
							"name": "subscriptionId",
							"type": "uint64"
						},
						{
							"internalType": "address",
							"name": "priceFeedAddress",
							"type": "address"
						}
					],
					"stateMutability": "nonpayable",
					"type": "constructor"
				},
				{
					"inputs": [
						{
							"internalType": "address",
							"name": "have",
							"type": "address"
						},
						{
							"internalType": "address",
							"name": "want",
							"type": "address"
						}
					],
					"name": "OnlyCoordinatorCanFulfill",
					"type": "error"
				},
				{
					"anonymous": false,
					"inputs": [
						{
							"indexed": true,
							"internalType": "address",
							"name": "owner",
							"type": "address"
						},
						{
							"indexed": true,
							"internalType": "address",
							"name": "spender",
							"type": "address"
						},
						{
							"indexed": false,
							"internalType": "uint256",
							"name": "value",
							"type": "uint256"
						}
					],
					"name": "Approval",
					"type": "event"
				},
				{
					"anonymous": false,
					"inputs": [
						{
							"indexed": true,
							"internalType": "address",
							"name": "previousOwner",
							"type": "address"
						},
						{
							"indexed": true,
							"internalType": "address",
							"name": "newOwner",
							"type": "address"
						}
					],
					"name": "OwnershipTransferred",
					"type": "event"
				},
				{
					"anonymous": false,
					"inputs": [
						{
							"indexed": false,
							"internalType": "uint256[]",
							"name": "randomWords",
							"type": "uint256[]"
						}
					],
					"name": "ReturnedRandomness",
					"type": "event"
				},
				{
					"anonymous": false,
					"inputs": [
						{
							"indexed": true,
							"internalType": "address",
							"name": "from",
							"type": "address"
						},
						{
							"indexed": true,
							"internalType": "address",
							"name": "to",
							"type": "address"
						},
						{
							"indexed": false,
							"internalType": "uint256",
							"name": "value",
							"type": "uint256"
						}
					],
					"name": "Transfer",
					"type": "event"
				},
				{
					"inputs": [
						{
							"internalType": "address",
							"name": "owner",
							"type": "address"
						},
						{
							"internalType": "address",
							"name": "spender",
							"type": "address"
						}
					],
					"name": "allowance",
					"outputs": [
						{
							"internalType": "uint256",
							"name": "",
							"type": "uint256"
						}
					],
					"stateMutability": "view",
					"type": "function"
				},
				{
					"inputs": [
						{
							"internalType": "address",
							"name": "spender",
							"type": "address"
						},
						{
							"internalType": "uint256",
							"name": "amount",
							"type": "uint256"
						}
					],
					"name": "approve",
					"outputs": [
						{
							"internalType": "bool",
							"name": "",
							"type": "bool"
						}
					],
					"stateMutability": "nonpayable",
					"type": "function"
				},
				{
					"inputs": [
						{
							"internalType": "address",
							"name": "account",
							"type": "address"
						}
					],
					"name": "balanceOf",
					"outputs": [
						{
							"internalType": "uint256",
							"name": "",
							"type": "uint256"
						}
					],
					"stateMutability": "view",
					"type": "function"
				},
				{
					"inputs": [],
					"name": "decimals",
					"outputs": [
						{
							"internalType": "uint8",
							"name": "",
							"type": "uint8"
						}
					],
					"stateMutability": "view",
					"type": "function"
				},
				{
					"inputs": [
						{
							"internalType": "address",
							"name": "spender",
							"type": "address"
						},
						{
							"internalType": "uint256",
							"name": "subtractedValue",
							"type": "uint256"
						}
					],
					"name": "decreaseAllowance",
					"outputs": [
						{
							"internalType": "bool",
							"name": "",
							"type": "bool"
						}
					],
					"stateMutability": "nonpayable",
					"type": "function"
				},
				{
					"inputs": [],
					"name": "getLatestPrice",
					"outputs": [
						{
							"internalType": "int256",
							"name": "",
							"type": "int256"
						}
					],
					"stateMutability": "view",
					"type": "function"
				},
				{
					"inputs": [
						{
							"internalType": "address",
							"name": "spender",
							"type": "address"
						},
						{
							"internalType": "uint256",
							"name": "addedValue",
							"type": "uint256"
						}
					],
					"name": "increaseAllowance",
					"outputs": [
						{
							"internalType": "bool",
							"name": "",
							"type": "bool"
						}
					],
					"stateMutability": "nonpayable",
					"type": "function"
				},
				{
					"inputs": [
						{
							"internalType": "address",
							"name": "to",
							"type": "address"
						},
						{
							"internalType": "uint256",
							"name": "amount",
							"type": "uint256"
						}
					],
					"name": "mint",
					"outputs": [],
					"stateMutability": "nonpayable",
					"type": "function"
				},
				{
					"inputs": [],
					"name": "name",
					"outputs": [
						{
							"internalType": "string",
							"name": "",
							"type": "string"
						}
					],
					"stateMutability": "view",
					"type": "function"
				},
				{
					"inputs": [],
					"name": "owner",
					"outputs": [
						{
							"internalType": "address",
							"name": "",
							"type": "address"
						}
					],
					"stateMutability": "view",
					"type": "function"
				},
				{
					"inputs": [],
					"name": "priceFeed",
					"outputs": [
						{
							"internalType": "contract AggregatorV3Interface",
							"name": "",
							"type": "address"
						}
					],
					"stateMutability": "view",
					"type": "function"
				},
				{
					"inputs": [
						{
							"internalType": "uint256",
							"name": "requestId",
							"type": "uint256"
						},
						{
							"internalType": "uint256[]",
							"name": "randomWords",
							"type": "uint256[]"
						}
					],
					"name": "rawFulfillRandomWords",
					"outputs": [],
					"stateMutability": "nonpayable",
					"type": "function"
				},
				{
					"inputs": [],
					"name": "renounceOwnership",
					"outputs": [],
					"stateMutability": "nonpayable",
					"type": "function"
				},
				{
					"inputs": [],
					"name": "requestRandomWords",
					"outputs": [],
					"stateMutability": "nonpayable",
					"type": "function"
				},
				{
					"inputs": [
						{
							"internalType": "uint256",
							"name": "",
							"type": "uint256"
						}
					],
					"name": "s_randomWords",
					"outputs": [
						{
							"internalType": "uint256",
							"name": "",
							"type": "uint256"
						}
					],
					"stateMutability": "view",
					"type": "function"
				},
				{
					"inputs": [],
					"name": "s_requestId",
					"outputs": [
						{
							"internalType": "uint256",
							"name": "",
							"type": "uint256"
						}
					],
					"stateMutability": "view",
					"type": "function"
				},
				{
					"inputs": [],
					"name": "symbol",
					"outputs": [
						{
							"internalType": "string",
							"name": "",
							"type": "string"
						}
					],
					"stateMutability": "view",
					"type": "function"
				},
				{
					"inputs": [],
					"name": "totalSupply",
					"outputs": [
						{
							"internalType": "uint256",
							"name": "",
							"type": "uint256"
						}
					],
					"stateMutability": "view",
					"type": "function"
				},
				{
					"inputs": [
						{
							"internalType": "address",
							"name": "to",
							"type": "address"
						},
						{
							"internalType": "uint256",
							"name": "amount",
							"type": "uint256"
						}
					],
					"name": "transfer",
					"outputs": [
						{
							"internalType": "bool",
							"name": "",
							"type": "bool"
						}
					],
					"stateMutability": "nonpayable",
					"type": "function"
				},
				{
					"inputs": [
						{
							"internalType": "address",
							"name": "from",
							"type": "address"
						},
						{
							"internalType": "address",
							"name": "to",
							"type": "address"
						},
						{
							"internalType": "uint256",
							"name": "amount",
							"type": "uint256"
						}
					],
					"name": "transfer",
					"outputs": [],
					"stateMutability": "nonpayable",
					"type": "function"
				},
				{
					"inputs": [
						{
							"internalType": "address",
							"name": "from",
							"type": "address"
						},
						{
							"internalType": "address",
							"name": "to",
							"type": "address"
						},
						{
							"internalType": "uint256",
							"name": "amount",
							"type": "uint256"
						}
					],
					"name": "transferFrom",
					"outputs": [
						{
							"internalType": "bool",
							"name": "",
							"type": "bool"
						}
					],
					"stateMutability": "nonpayable",
					"type": "function"
				},
				{
					"inputs": [
						{
							"internalType": "address",
							"name": "newOwner",
							"type": "address"
						}
					],
					"name": "transferOwnership",
					"outputs": [],
					"stateMutability": "nonpayable",
					"type": "function"
				}
			],
			"devdoc": {
				"kind": "dev",
				"methods": {
					"allowance(address,address)": {
						"details": "See {IERC20-allowance}."
					},
					"approve(address,uint256)": {
						"details": "See {IERC20-approve}. NOTE: If `amount` is the maximum `uint256`, the allowance is not updated on `transferFrom`. This is semantically equivalent to an infinite approval. Requirements: - `spender` cannot be the zero address."
					},
					"balanceOf(address)": {
						"details": "See {IERC20-balanceOf}."
					},
					"decimals()": {
						"details": "Returns the number of decimals used to get its user representation. For example, if `decimals` equals `2`, a balance of `505` tokens should be displayed to a user as `5.05` (`505 / 10 ** 2`). Tokens usually opt for a value of 18, imitating the relationship between Ether and Wei. This is the value {ERC20} uses, unless this function is overridden; NOTE: This information is only used for _display_ purposes: it in no way affects any of the arithmetic of the contract, including {IERC20-balanceOf} and {IERC20-transfer}."
					},
					"decreaseAllowance(address,uint256)": {
						"details": "Atomically decreases the allowance granted to `spender` by the caller. This is an alternative to {approve} that can be used as a mitigation for problems described in {IERC20-approve}. Emits an {Approval} event indicating the updated allowance. Requirements: - `spender` cannot be the zero address. - `spender` must have allowance for the caller of at least `subtractedValue`."
					},
					"increaseAllowance(address,uint256)": {
						"details": "Atomically increases the allowance granted to `spender` by the caller. This is an alternative to {approve} that can be used as a mitigation for problems described in {IERC20-approve}. Emits an {Approval} event indicating the updated allowance. Requirements: - `spender` cannot be the zero address."
					},
					"name()": {
						"details": "Returns the name of the token."
					},
					"owner()": {
						"details": "Returns the address of the current owner."
					},
					"renounceOwnership()": {
						"details": "Leaves the contract without owner. It will not be possible to call `onlyOwner` functions anymore. Can only be called by the current owner. NOTE: Renouncing ownership will leave the contract without an owner, thereby removing any functionality that is only available to the owner."
					},
					"symbol()": {
						"details": "Returns the symbol of the token, usually a shorter version of the name."
					},
					"totalSupply()": {
						"details": "See {IERC20-totalSupply}."
					},
					"transfer(address,uint256)": {
						"details": "See {IERC20-transfer}. Requirements: - `to` cannot be the zero address. - the caller must have a balance of at least `amount`."
					},
					"transferFrom(address,address,uint256)": {
						"details": "See {IERC20-transferFrom}. Emits an {Approval} event indicating the updated allowance. This is not required by the EIP. See the note at the beginning of {ERC20}. NOTE: Does not update the allowance if the current allowance is the maximum `uint256`. Requirements: - `from` and `to` cannot be the zero address. - `from` must have a balance of at least `amount`. - the caller must have allowance for ``from``'s tokens of at least `amount`."
					},
					"transferOwnership(address)": {
						"details": "Transfers ownership of the contract to a new account (`newOwner`). Can only be called by the current owner."
					}
				},
				"version": 1
			},
			"evm": {
				"assembly": "    /* \"contracts/ERC20K.sol\":507:3413  contract ERC20K is ERC20, VRFConsumerBaseV2, Ownable{... */\n  mstore(0x40, 0x0100)\n    /* \"contracts/ERC20K.sol\":596:601  10000 */\n  0x2710\n    /* \"contracts/ERC20K.sol\":565:601  uint256 private _totalSupply = 10000 */\n  0x06\n  sstore\n    /* \"contracts/ERC20K.sol\":1465:2086  constructor(address vrfCoordinator_, bytes32 keyHash, uint64 subscriptionId, address priceFeedAddress) ERC20(\"ERC20K\", \"ERK\") VRFConsumerBaseV2(vrfCoordinator_) {... */\n  callvalue\n  dup1\n  iszero\n  tag_1\n  jumpi\n  0x00\n  dup1\n  revert\ntag_1:\n  pop\n  mload(0x40)\n  sub(codesize, bytecodeSize)\n  dup1\n  bytecodeSize\n  dup4\n  codecopy\n  dup2\n  dup2\n  add\n  0x40\n  mstore\n  dup2\n  add\n  swap1\n  tag_2\n  swap2\n  swap1\n  tag_3\n  jump\t// in\ntag_2:\n    /* \"contracts/ERC20K.sol\":1609:1624  vrfCoordinator_ */\n  dup4\n    /* \"@openzeppelin/contracts/token/ERC20/ERC20.sol\":1976:2089  constructor(string memory name_, string memory symbol_) {... */\n  mload(0x40)\n  dup1\n  0x40\n  add\n  0x40\n  mstore\n  dup1\n  0x06\n  dup2\n  mstore\n  0x20\n  add\n  0x45524332304b0000000000000000000000000000000000000000000000000000\n  dup2\n  mstore\n  pop\n  mload(0x40)\n  dup1\n  0x40\n  add\n  0x40\n  mstore\n  dup1\n  0x03\n  dup2\n  mstore\n  0x20\n  add\n  0x45524b0000000000000000000000000000000000000000000000000000000000\n  dup2\n  mstore\n  pop\n    /* \"@openzeppelin/contracts/token/ERC20/ERC20.sol\":2050:2055  name_ */\n  dup2\n    /* \"@openzeppelin/contracts/token/ERC20/ERC20.sol\":2042:2047  _name */\n  0x03\n    /* \"@openzeppelin/contracts/token/ERC20/ERC20.sol\":2042:2055  _name = name_ */\n  swap1\n  dup2\n  tag_9\n  swap2\n  swap1\n  tag_10\n  jump\t// in\ntag_9:\n  pop\n    /* \"@openzeppelin/contracts/token/ERC20/ERC20.sol\":2075:2082  symbol_ */\n  dup1\n    /* \"@openzeppelin/contracts/token/ERC20/ERC20.sol\":2065:2072  _symbol */\n  0x04\n    /* \"@openzeppelin/contracts/token/ERC20/ERC20.sol\":2065:2082  _symbol = symbol_ */\n  swap1\n  dup2\n  tag_11\n  swap2\n  swap1\n  tag_10\n  jump\t// in\ntag_11:\n  pop\n    /* \"@openzeppelin/contracts/token/ERC20/ERC20.sol\":1976:2089  constructor(string memory name_, string memory symbol_) {... */\n  pop\n  pop\n    /* \"@chainlink/contracts/src/v0.8/VRFConsumerBaseV2.sol\":5616:5631  _vrfCoordinator */\n  dup1\n    /* \"@chainlink/contracts/src/v0.8/VRFConsumerBaseV2.sol\":5599:5631  vrfCoordinator = _vrfCoordinator */\n  0xffffffffffffffffffffffffffffffffffffffff\n  and\n  0x80\n  dup2\n  0xffffffffffffffffffffffffffffffffffffffff\n  and\n  dup2\n  mstore\n  pop\n  pop\n    /* \"@chainlink/contracts/src/v0.8/VRFConsumerBaseV2.sol\":5556:5636  constructor(address _vrfCoordinator) {... */\n  pop\n    /* \"@openzeppelin/contracts/access/Ownable.sol\":936:968  _transferOwnership(_msgSender()) */\n  tag_14\n    /* \"@openzeppelin/contracts/access/Ownable.sol\":955:967  _msgSender() */\n  tag_15\n    /* \"@openzeppelin/contracts/access/Ownable.sol\":955:965  _msgSender */\n  shl(0x20, tag_16)\n    /* \"@openzeppelin/contracts/access/Ownable.sol\":955:967  _msgSender() */\n  0x20\n  shr\n  jump\t// in\ntag_15:\n    /* \"@openzeppelin/contracts/access/Ownable.sol\":936:954  _transferOwnership */\n  shl(0x20, tag_17)\n    /* \"@openzeppelin/contracts/access/Ownable.sol\":936:968  _transferOwnership(_msgSender()) */\n  0x20\n  shr\n  jump\t// in\ntag_14:\n    /* \"contracts/ERC20K.sol\":1816:1831  vrfCoordinator_ */\n  dup4\n    /* \"contracts/ERC20K.sol\":1776:1832  COORDINATOR = VRFCoordinatorV2Interface(vrfCoordinator_) */\n  0xffffffffffffffffffffffffffffffffffffffff\n  and\n  0xa0\n  dup2\n  0xffffffffffffffffffffffffffffffffffffffff\n  and\n  dup2\n  mstore\n  pop\n  pop\n    /* \"contracts/ERC20K.sol\":1910:1926  priceFeedAddress */\n  dup1\n    /* \"contracts/ERC20K.sol\":1863:1872  priceFeed */\n  0x09\n  0x00\n    /* \"contracts/ERC20K.sol\":1863:1936  priceFeed = AggregatorV3Interface(... */\n  0x0100\n  exp\n  dup2\n  sload\n  dup2\n  0xffffffffffffffffffffffffffffffffffffffff\n  mul\n  not\n  and\n  swap1\n  dup4\n  0xffffffffffffffffffffffffffffffffffffffff\n  and\n  mul\n  or\n  swap1\n  sstore\n  pop\n    /* \"contracts/ERC20K.sol\":1958:1965  keyHash */\n  dup3\n    /* \"contracts/ERC20K.sol\":1946:1965  s_keyHash = keyHash */\n  0xe0\n  dup2\n  dup2\n  mstore\n  pop\n  pop\n    /* \"contracts/ERC20K.sol\":1985:1995  msg.sender */\n  caller\n    /* \"contracts/ERC20K.sol\":1975:1982  s_owner */\n  0x0c\n  0x00\n    /* \"contracts/ERC20K.sol\":1975:1995  s_owner = msg.sender */\n  0x0100\n  exp\n  dup2\n  sload\n  dup2\n  0xffffffffffffffffffffffffffffffffffffffff\n  mul\n  not\n  and\n  swap1\n  dup4\n  0xffffffffffffffffffffffffffffffffffffffff\n  and\n  mul\n  or\n  swap1\n  sstore\n  pop\n    /* \"contracts/ERC20K.sol\":2024:2038  subscriptionId */\n  dup2\n    /* \"contracts/ERC20K.sol\":2005:2038  s_subscriptionId = subscriptionId */\n  0xffffffffffffffff\n  and\n  0xc0\n  dup2\n  0xffffffffffffffff\n  and\n  dup2\n  mstore\n  pop\n  pop\n    /* \"contracts/ERC20K.sol\":2048:2079  _mint(msg.sender, _totalSupply) */\n  tag_19\n    /* \"contracts/ERC20K.sol\":2054:2064  msg.sender */\n  caller\n    /* \"contracts/ERC20K.sol\":2066:2078  _totalSupply */\n  sload(0x06)\n    /* \"contracts/ERC20K.sol\":2048:2053  _mint */\n  shl(0x20, tag_20)\n    /* \"contracts/ERC20K.sol\":2048:2079  _mint(msg.sender, _totalSupply) */\n  0x20\n  shr\n  jump\t// in\ntag_19:\n    /* \"contracts/ERC20K.sol\":1465:2086  constructor(address vrfCoordinator_, bytes32 keyHash, uint64 subscriptionId, address priceFeedAddress) ERC20(\"ERC20K\", \"ERK\") VRFConsumerBaseV2(vrfCoordinator_) {... */\n  pop\n  pop\n  pop\n  pop\n    /* \"contracts/ERC20K.sol\":507:3413  contract ERC20K is ERC20, VRFConsumerBaseV2, Ownable{... */\n  jump(tag_21)\n    /* \"@openzeppelin/contracts/utils/Context.sol\":640:736  function _msgSender() internal view virtual returns (address) {... */\ntag_16:\n    /* \"@openzeppelin/contracts/utils/Context.sol\":693:700  address */\n  0x00\n    /* \"@openzeppelin/contracts/utils/Context.sol\":719:729  msg.sender */\n  caller\n    /* \"@openzeppelin/contracts/utils/Context.sol\":712:729  return msg.sender */\n  swap1\n  pop\n    /* \"@openzeppelin/contracts/utils/Context.sol\":640:736  function _msgSender() internal view virtual returns (address) {... */\n  swap1\n  jump\t// out\n    /* \"@openzeppelin/contracts/access/Ownable.sol\":2433:2620  function _transferOwnership(address newOwner) internal virtual {... */\ntag_17:\n    /* \"@openzeppelin/contracts/access/Ownable.sol\":2506:2522  address oldOwner */\n  0x00\n    /* \"@openzeppelin/contracts/access/Ownable.sol\":2525:2531  _owner */\n  0x05\n  0x00\n  swap1\n  sload\n  swap1\n  0x0100\n  exp\n  swap1\n  div\n  0xffffffffffffffffffffffffffffffffffffffff\n  and\n    /* \"@openzeppelin/contracts/access/Ownable.sol\":2506:2531  address oldOwner = _owner */\n  swap1\n  pop\n    /* \"@openzeppelin/contracts/access/Ownable.sol\":2550:2558  newOwner */\n  dup2\n    /* \"@openzeppelin/contracts/access/Ownable.sol\":2541:2547  _owner */\n  0x05\n  0x00\n    /* \"@openzeppelin/contracts/access/Ownable.sol\":2541:2558  _owner = newOwner */\n  0x0100\n  exp\n  dup2\n  sload\n  dup2\n  0xffffffffffffffffffffffffffffffffffffffff\n  mul\n  not\n  and\n  swap1\n  dup4\n  0xffffffffffffffffffffffffffffffffffffffff\n  and\n  mul\n  or\n  swap1\n  sstore\n  pop\n    /* \"@openzeppelin/contracts/access/Ownable.sol\":2604:2612  newOwner */\n  dup2\n    /* \"@openzeppelin/contracts/access/Ownable.sol\":2573:2613  OwnershipTransferred(oldOwner, newOwner) */\n  0xffffffffffffffffffffffffffffffffffffffff\n  and\n    /* \"@openzeppelin/contracts/access/Ownable.sol\":2594:2602  oldOwner */\n  dup2\n    /* \"@openzeppelin/contracts/access/Ownable.sol\":2573:2613  OwnershipTransferred(oldOwner, newOwner) */\n  0xffffffffffffffffffffffffffffffffffffffff\n  and\n  0x8be0079c531659141344cd1fd0a4f28419497f9722a3daafe3b4186f6b6457e0\n  mload(0x40)\n  mload(0x40)\n  dup1\n  swap2\n  sub\n  swap1\n  log3\n    /* \"@openzeppelin/contracts/access/Ownable.sol\":2496:2620  {... */\n  pop\n    /* \"@openzeppelin/contracts/access/Ownable.sol\":2433:2620  function _transferOwnership(address newOwner) internal virtual {... */\n  pop\n  jump\t// out\n    /* \"@openzeppelin/contracts/token/ERC20/ERC20.sol\":8567:9102  function _mint(address account, uint256 amount) internal virtual {... */\ntag_20:\n    /* \"@openzeppelin/contracts/token/ERC20/ERC20.sol\":8669:8670  0 */\n  0x00\n    /* \"@openzeppelin/contracts/token/ERC20/ERC20.sol\":8650:8671  account != address(0) */\n  0xffffffffffffffffffffffffffffffffffffffff\n  and\n    /* \"@openzeppelin/contracts/token/ERC20/ERC20.sol\":8650:8657  account */\n  dup3\n    /* \"@openzeppelin/contracts/token/ERC20/ERC20.sol\":8650:8671  account != address(0) */\n  0xffffffffffffffffffffffffffffffffffffffff\n  and\n  sub\n    /* \"@openzeppelin/contracts/token/ERC20/ERC20.sol\":8642:8707  require(account != address(0), \"ERC20: mint to the zero address\") */\n  tag_25\n  jumpi\n  mload(0x40)\n  0x08c379a000000000000000000000000000000000000000000000000000000000\n  dup2\n  mstore\n  0x04\n  add\n  tag_26\n  swap1\n  tag_27\n  jump\t// in\ntag_26:\n  mload(0x40)\n  dup1\n  swap2\n  sub\n  swap1\n  revert\ntag_25:\n    /* \"@openzeppelin/contracts/token/ERC20/ERC20.sol\":8718:8767  _beforeTokenTransfer(address(0), account, amount) */\n  tag_28\n    /* \"@openzeppelin/contracts/token/ERC20/ERC20.sol\":8747:8748  0 */\n  0x00\n    /* \"@openzeppelin/contracts/token/ERC20/ERC20.sol\":8751:8758  account */\n  dup4\n    /* \"@openzeppelin/contracts/token/ERC20/ERC20.sol\":8760:8766  amount */\n  dup4\n    /* \"@openzeppelin/contracts/token/ERC20/ERC20.sol\":8718:8738  _beforeTokenTransfer */\n  shl(0x20, tag_29)\n    /* \"@openzeppelin/contracts/token/ERC20/ERC20.sol\":8718:8767  _beforeTokenTransfer(address(0), account, amount) */\n  0x20\n  shr\n  jump\t// in\ntag_28:\n    /* \"@openzeppelin/contracts/token/ERC20/ERC20.sol\":8794:8800  amount */\n  dup1\n    /* \"@openzeppelin/contracts/token/ERC20/ERC20.sol\":8778:8790  _totalSupply */\n  0x02\n  0x00\n    /* \"@openzeppelin/contracts/token/ERC20/ERC20.sol\":8778:8800  _totalSupply += amount */\n  dup3\n  dup3\n  sload\n  tag_30\n  swap2\n  swap1\n  tag_31\n  jump\t// in\ntag_30:\n  swap3\n  pop\n  pop\n  dup2\n  swap1\n  sstore\n  pop\n    /* \"@openzeppelin/contracts/token/ERC20/ERC20.sol\":8968:8974  amount */\n  dup1\n    /* \"@openzeppelin/contracts/token/ERC20/ERC20.sol\":8946:8955  _balances */\n  0x00\n    /* \"@openzeppelin/contracts/token/ERC20/ERC20.sol\":8946:8964  _balances[account] */\n  dup1\n    /* \"@openzeppelin/contracts/token/ERC20/ERC20.sol\":8956:8963  account */\n  dup5\n    /* \"@openzeppelin/contracts/token/ERC20/ERC20.sol\":8946:8964  _balances[account] */\n  0xffffffffffffffffffffffffffffffffffffffff\n  and\n  0xffffffffffffffffffffffffffffffffffffffff\n  and\n  dup2\n  mstore\n  0x20\n  add\n  swap1\n  dup2\n  mstore\n  0x20\n  add\n  0x00\n  keccak256\n  0x00\n    /* \"@openzeppelin/contracts/token/ERC20/ERC20.sol\":8946:8974  _balances[account] += amount */\n  dup3\n  dup3\n  sload\n  add\n  swap3\n  pop\n  pop\n  dup2\n  swap1\n  sstore\n  pop\n    /* \"@openzeppelin/contracts/token/ERC20/ERC20.sol\":9020:9027  account */\n  dup2\n    /* \"@openzeppelin/contracts/token/ERC20/ERC20.sol\":8999:9036  Transfer(address(0), account, amount) */\n  0xffffffffffffffffffffffffffffffffffffffff\n  and\n    /* \"@openzeppelin/contracts/token/ERC20/ERC20.sol\":9016:9017  0 */\n  0x00\n    /* \"@openzeppelin/contracts/token/ERC20/ERC20.sol\":8999:9036  Transfer(address(0), account, amount) */\n  0xffffffffffffffffffffffffffffffffffffffff\n  and\n  0xddf252ad1be2c89b69c2b068fc378daa952ba7f163c4a11628f55a4df523b3ef\n    /* \"@openzeppelin/contracts/token/ERC20/ERC20.sol\":9029:9035  amount */\n  dup4\n    /* \"@openzeppelin/contracts/token/ERC20/ERC20.sol\":8999:9036  Transfer(address(0), account, amount) */\n  mload(0x40)\n  tag_32\n  swap2\n  swap1\n  tag_33\n  jump\t// in\ntag_32:\n  mload(0x40)\n  dup1\n  swap2\n  sub\n  swap1\n  log3\n    /* \"@openzeppelin/contracts/token/ERC20/ERC20.sol\":9047:9095  _afterTokenTransfer(address(0), account, amount) */\n  tag_34\n    /* \"@openzeppelin/contracts/token/ERC20/ERC20.sol\":9075:9076  0 */\n  0x00\n    /* \"@openzeppelin/contracts/token/ERC20/ERC20.sol\":9079:9086  account */\n  dup4\n    /* \"@openzeppelin/contracts/token/ERC20/ERC20.sol\":9088:9094  amount */\n  dup4\n    /* \"@openzeppelin/contracts/token/ERC20/ERC20.sol\":9047:9066  _afterTokenTransfer */\n  shl(0x20, tag_35)\n    /* \"@openzeppelin/contracts/token/ERC20/ERC20.sol\":9047:9095  _afterTokenTransfer(address(0), account, amount) */\n  0x20\n  shr\n  jump\t// in\ntag_34:\n    /* \"@openzeppelin/contracts/token/ERC20/ERC20.sol\":8567:9102  function _mint(address account, uint256 amount) internal virtual {... */\n  pop\n  pop\n  jump\t// out\n    /* \"@openzeppelin/contracts/token/ERC20/ERC20.sol\":12180:12301  function _beforeTokenTransfer(... */\ntag_29:\n  pop\n  pop\n  pop\n  jump\t// out\n    /* \"@openzeppelin/contracts/token/ERC20/ERC20.sol\":12889:13009  function _afterTokenTransfer(... */\ntag_35:\n  pop\n  pop\n  pop\n  jump\t// out\n    /* \"#utility.yul\":88:205   */\ntag_39:\n    /* \"#utility.yul\":197:198   */\n  0x00\n    /* \"#utility.yul\":194:195   */\n  dup1\n    /* \"#utility.yul\":187:199   */\n  revert\n    /* \"#utility.yul\":334:460   */\ntag_41:\n    /* \"#utility.yul\":371:378   */\n  0x00\n    /* \"#utility.yul\":411:453   */\n  0xffffffffffffffffffffffffffffffffffffffff\n    /* \"#utility.yul\":404:409   */\n  dup3\n    /* \"#utility.yul\":400:454   */\n  and\n    /* \"#utility.yul\":389:454   */\n  swap1\n  pop\n    /* \"#utility.yul\":334:460   */\n  swap2\n  swap1\n  pop\n  jump\t// out\n    /* \"#utility.yul\":466:562   */\ntag_42:\n    /* \"#utility.yul\":503:510   */\n  0x00\n    /* \"#utility.yul\":532:556   */\n  tag_82\n    /* \"#utility.yul\":550:555   */\n  dup3\n    /* \"#utility.yul\":532:556   */\n  tag_41\n  jump\t// in\ntag_82:\n    /* \"#utility.yul\":521:556   */\n  swap1\n  pop\n    /* \"#utility.yul\":466:562   */\n  swap2\n  swap1\n  pop\n  jump\t// out\n    /* \"#utility.yul\":568:690   */\ntag_43:\n    /* \"#utility.yul\":641:665   */\n  tag_84\n    /* \"#utility.yul\":659:664   */\n  dup2\n    /* \"#utility.yul\":641:665   */\n  tag_42\n  jump\t// in\ntag_84:\n    /* \"#utility.yul\":634:639   */\n  dup2\n    /* \"#utility.yul\":631:666   */\n  eq\n    /* \"#utility.yul\":621:684   */\n  tag_85\n  jumpi\n    /* \"#utility.yul\":680:681   */\n  0x00\n    /* \"#utility.yul\":677:678   */\n  dup1\n    /* \"#utility.yul\":670:682   */\n  revert\n    /* \"#utility.yul\":621:684   */\ntag_85:\n    /* \"#utility.yul\":568:690   */\n  pop\n  jump\t// out\n    /* \"#utility.yul\":696:839   */\ntag_44:\n    /* \"#utility.yul\":753:758   */\n  0x00\n    /* \"#utility.yul\":784:790   */\n  dup2\n    /* \"#utility.yul\":778:791   */\n  mload\n    /* \"#utility.yul\":769:791   */\n  swap1\n  pop\n    /* \"#utility.yul\":800:833   */\n  tag_87\n    /* \"#utility.yul\":827:832   */\n  dup2\n    /* \"#utility.yul\":800:833   */\n  tag_43\n  jump\t// in\ntag_87:\n    /* \"#utility.yul\":696:839   */\n  swap3\n  swap2\n  pop\n  pop\n  jump\t// out\n    /* \"#utility.yul\":845:922   */\ntag_45:\n    /* \"#utility.yul\":882:889   */\n  0x00\n    /* \"#utility.yul\":911:916   */\n  dup2\n    /* \"#utility.yul\":900:916   */\n  swap1\n  pop\n    /* \"#utility.yul\":845:922   */\n  swap2\n  swap1\n  pop\n  jump\t// out\n    /* \"#utility.yul\":928:1050   */\ntag_46:\n    /* \"#utility.yul\":1001:1025   */\n  tag_90\n    /* \"#utility.yul\":1019:1024   */\n  dup2\n    /* \"#utility.yul\":1001:1025   */\n  tag_45\n  jump\t// in\ntag_90:\n    /* \"#utility.yul\":994:999   */\n  dup2\n    /* \"#utility.yul\":991:1026   */\n  eq\n    /* \"#utility.yul\":981:1044   */\n  tag_91\n  jumpi\n    /* \"#utility.yul\":1040:1041   */\n  0x00\n    /* \"#utility.yul\":1037:1038   */\n  dup1\n    /* \"#utility.yul\":1030:1042   */\n  revert\n    /* \"#utility.yul\":981:1044   */\ntag_91:\n    /* \"#utility.yul\":928:1050   */\n  pop\n  jump\t// out\n    /* \"#utility.yul\":1056:1199   */\ntag_47:\n    /* \"#utility.yul\":1113:1118   */\n  0x00\n    /* \"#utility.yul\":1144:1150   */\n  dup2\n    /* \"#utility.yul\":1138:1151   */\n  mload\n    /* \"#utility.yul\":1129:1151   */\n  swap1\n  pop\n    /* \"#utility.yul\":1160:1193   */\n  tag_93\n    /* \"#utility.yul\":1187:1192   */\n  dup2\n    /* \"#utility.yul\":1160:1193   */\n  tag_46\n  jump\t// in\ntag_93:\n    /* \"#utility.yul\":1056:1199   */\n  swap3\n  swap2\n  pop\n  pop\n  jump\t// out\n    /* \"#utility.yul\":1205:1306   */\ntag_48:\n    /* \"#utility.yul\":1241:1248   */\n  0x00\n    /* \"#utility.yul\":1281:1299   */\n  0xffffffffffffffff\n    /* \"#utility.yul\":1274:1279   */\n  dup3\n    /* \"#utility.yul\":1270:1300   */\n  and\n    /* \"#utility.yul\":1259:1300   */\n  swap1\n  pop\n    /* \"#utility.yul\":1205:1306   */\n  swap2\n  swap1\n  pop\n  jump\t// out\n    /* \"#utility.yul\":1312:1432   */\ntag_49:\n    /* \"#utility.yul\":1384:1407   */\n  tag_96\n    /* \"#utility.yul\":1401:1406   */\n  dup2\n    /* \"#utility.yul\":1384:1407   */\n  tag_48\n  jump\t// in\ntag_96:\n    /* \"#utility.yul\":1377:1382   */\n  dup2\n    /* \"#utility.yul\":1374:1408   */\n  eq\n    /* \"#utility.yul\":1364:1426   */\n  tag_97\n  jumpi\n    /* \"#utility.yul\":1422:1423   */\n  0x00\n    /* \"#utility.yul\":1419:1420   */\n  dup1\n    /* \"#utility.yul\":1412:1424   */\n  revert\n    /* \"#utility.yul\":1364:1426   */\ntag_97:\n    /* \"#utility.yul\":1312:1432   */\n  pop\n  jump\t// out\n    /* \"#utility.yul\":1438:1579   */\ntag_50:\n    /* \"#utility.yul\":1494:1499   */\n  0x00\n    /* \"#utility.yul\":1525:1531   */\n  dup2\n    /* \"#utility.yul\":1519:1532   */\n  mload\n    /* \"#utility.yul\":1510:1532   */\n  swap1\n  pop\n    /* \"#utility.yul\":1541:1573   */\n  tag_99\n    /* \"#utility.yul\":1567:1572   */\n  dup2\n    /* \"#utility.yul\":1541:1573   */\n  tag_49\n  jump\t// in\ntag_99:\n    /* \"#utility.yul\":1438:1579   */\n  swap3\n  swap2\n  pop\n  pop\n  jump\t// out\n    /* \"#utility.yul\":1585:2403   */\ntag_3:\n    /* \"#utility.yul\":1681:1687   */\n  0x00\n    /* \"#utility.yul\":1689:1695   */\n  dup1\n    /* \"#utility.yul\":1697:1703   */\n  0x00\n    /* \"#utility.yul\":1705:1711   */\n  dup1\n    /* \"#utility.yul\":1754:1757   */\n  0x80\n    /* \"#utility.yul\":1742:1751   */\n  dup6\n    /* \"#utility.yul\":1733:1740   */\n  dup8\n    /* \"#utility.yul\":1729:1752   */\n  sub\n    /* \"#utility.yul\":1725:1758   */\n  slt\n    /* \"#utility.yul\":1722:1842   */\n  iszero\n  tag_101\n  jumpi\n    /* \"#utility.yul\":1761:1840   */\n  tag_102\n  tag_39\n  jump\t// in\ntag_102:\n    /* \"#utility.yul\":1722:1842   */\ntag_101:\n    /* \"#utility.yul\":1881:1882   */\n  0x00\n    /* \"#utility.yul\":1906:1970   */\n  tag_103\n    /* \"#utility.yul\":1962:1969   */\n  dup8\n    /* \"#utility.yul\":1953:1959   */\n  dup3\n    /* \"#utility.yul\":1942:1951   */\n  dup9\n    /* \"#utility.yul\":1938:1960   */\n  add\n    /* \"#utility.yul\":1906:1970   */\n  tag_44\n  jump\t// in\ntag_103:\n    /* \"#utility.yul\":1896:1970   */\n  swap5\n  pop\n    /* \"#utility.yul\":1852:1980   */\n  pop\n    /* \"#utility.yul\":2019:2021   */\n  0x20\n    /* \"#utility.yul\":2045:2109   */\n  tag_104\n    /* \"#utility.yul\":2101:2108   */\n  dup8\n    /* \"#utility.yul\":2092:2098   */\n  dup3\n    /* \"#utility.yul\":2081:2090   */\n  dup9\n    /* \"#utility.yul\":2077:2099   */\n  add\n    /* \"#utility.yul\":2045:2109   */\n  tag_47\n  jump\t// in\ntag_104:\n    /* \"#utility.yul\":2035:2109   */\n  swap4\n  pop\n    /* \"#utility.yul\":1990:2119   */\n  pop\n    /* \"#utility.yul\":2158:2160   */\n  0x40\n    /* \"#utility.yul\":2184:2247   */\n  tag_105\n    /* \"#utility.yul\":2239:2246   */\n  dup8\n    /* \"#utility.yul\":2230:2236   */\n  dup3\n    /* \"#utility.yul\":2219:2228   */\n  dup9\n    /* \"#utility.yul\":2215:2237   */\n  add\n    /* \"#utility.yul\":2184:2247   */\n  tag_50\n  jump\t// in\ntag_105:\n    /* \"#utility.yul\":2174:2247   */\n  swap3\n  pop\n    /* \"#utility.yul\":2129:2257   */\n  pop\n    /* \"#utility.yul\":2296:2298   */\n  0x60\n    /* \"#utility.yul\":2322:2386   */\n  tag_106\n    /* \"#utility.yul\":2378:2385   */\n  dup8\n    /* \"#utility.yul\":2369:2375   */\n  dup3\n    /* \"#utility.yul\":2358:2367   */\n  dup9\n    /* \"#utility.yul\":2354:2376   */\n  add\n    /* \"#utility.yul\":2322:2386   */\n  tag_44\n  jump\t// in\ntag_106:\n    /* \"#utility.yul\":2312:2386   */\n  swap2\n  pop\n    /* \"#utility.yul\":2267:2396   */\n  pop\n    /* \"#utility.yul\":1585:2403   */\n  swap3\n  swap6\n  swap2\n  swap5\n  pop\n  swap3\n  pop\n  jump\t// out\n    /* \"#utility.yul\":2409:2508   */\ntag_51:\n    /* \"#utility.yul\":2461:2467   */\n  0x00\n    /* \"#utility.yul\":2495:2500   */\n  dup2\n    /* \"#utility.yul\":2489:2501   */\n  mload\n    /* \"#utility.yul\":2479:2501   */\n  swap1\n  pop\n    /* \"#utility.yul\":2409:2508   */\n  swap2\n  swap1\n  pop\n  jump\t// out\n    /* \"#utility.yul\":2514:2694   */\ntag_52:\n    /* \"#utility.yul\":2562:2639   */\n  0x4e487b7100000000000000000000000000000000000000000000000000000000\n    /* \"#utility.yul\":2559:2560   */\n  0x00\n    /* \"#utility.yul\":2552:2640   */\n  mstore\n    /* \"#utility.yul\":2659:2663   */\n  0x41\n    /* \"#utility.yul\":2656:2657   */\n  0x04\n    /* \"#utility.yul\":2649:2664   */\n  mstore\n    /* \"#utility.yul\":2683:2687   */\n  0x24\n    /* \"#utility.yul\":2680:2681   */\n  0x00\n    /* \"#utility.yul\":2673:2688   */\n  revert\n    /* \"#utility.yul\":2700:2880   */\ntag_53:\n    /* \"#utility.yul\":2748:2825   */\n  0x4e487b7100000000000000000000000000000000000000000000000000000000\n    /* \"#utility.yul\":2745:2746   */\n  0x00\n    /* \"#utility.yul\":2738:2826   */\n  mstore\n    /* \"#utility.yul\":2845:2849   */\n  0x22\n    /* \"#utility.yul\":2842:2843   */\n  0x04\n    /* \"#utility.yul\":2835:2850   */\n  mstore\n    /* \"#utility.yul\":2869:2873   */\n  0x24\n    /* \"#utility.yul\":2866:2867   */\n  0x00\n    /* \"#utility.yul\":2859:2874   */\n  revert\n    /* \"#utility.yul\":2886:3206   */\ntag_54:\n    /* \"#utility.yul\":2930:2936   */\n  0x00\n    /* \"#utility.yul\":2967:2968   */\n  0x02\n    /* \"#utility.yul\":2961:2965   */\n  dup3\n    /* \"#utility.yul\":2957:2969   */\n  div\n    /* \"#utility.yul\":2947:2969   */\n  swap1\n  pop\n    /* \"#utility.yul\":3014:3015   */\n  0x01\n    /* \"#utility.yul\":3008:3012   */\n  dup3\n    /* \"#utility.yul\":3004:3016   */\n  and\n    /* \"#utility.yul\":3035:3053   */\n  dup1\n    /* \"#utility.yul\":3025:3106   */\n  tag_111\n  jumpi\n    /* \"#utility.yul\":3091:3095   */\n  0x7f\n    /* \"#utility.yul\":3083:3089   */\n  dup3\n    /* \"#utility.yul\":3079:3096   */\n  and\n    /* \"#utility.yul\":3069:3096   */\n  swap2\n  pop\n    /* \"#utility.yul\":3025:3106   */\ntag_111:\n    /* \"#utility.yul\":3153:3155   */\n  0x20\n    /* \"#utility.yul\":3145:3151   */\n  dup3\n    /* \"#utility.yul\":3142:3156   */\n  lt\n    /* \"#utility.yul\":3122:3140   */\n  dup2\n    /* \"#utility.yul\":3119:3157   */\n  sub\n    /* \"#utility.yul\":3116:3200   */\n  tag_112\n  jumpi\n    /* \"#utility.yul\":3172:3190   */\n  tag_113\n  tag_53\n  jump\t// in\ntag_113:\n    /* \"#utility.yul\":3116:3200   */\ntag_112:\n    /* \"#utility.yul\":2937:3206   */\n  pop\n    /* \"#utility.yul\":2886:3206   */\n  swap2\n  swap1\n  pop\n  jump\t// out\n    /* \"#utility.yul\":3212:3353   */\ntag_55:\n    /* \"#utility.yul\":3261:3265   */\n  0x00\n    /* \"#utility.yul\":3284:3287   */\n  dup2\n    /* \"#utility.yul\":3276:3287   */\n  swap1\n  pop\n    /* \"#utility.yul\":3307:3310   */\n  dup2\n    /* \"#utility.yul\":3304:3305   */\n  0x00\n    /* \"#utility.yul\":3297:3311   */\n  mstore\n    /* \"#utility.yul\":3341:3345   */\n  0x20\n    /* \"#utility.yul\":3338:3339   */\n  0x00\n    /* \"#utility.yul\":3328:3346   */\n  keccak256\n    /* \"#utility.yul\":3320:3346   */\n  swap1\n  pop\n    /* \"#utility.yul\":3212:3353   */\n  swap2\n  swap1\n  pop\n  jump\t// out\n    /* \"#utility.yul\":3359:3452   */\ntag_56:\n    /* \"#utility.yul\":3396:3402   */\n  0x00\n    /* \"#utility.yul\":3443:3445   */\n  0x20\n    /* \"#utility.yul\":3438:3440   */\n  0x1f\n    /* \"#utility.yul\":3431:3436   */\n  dup4\n    /* \"#utility.yul\":3427:3441   */\n  add\n    /* \"#utility.yul\":3423:3446   */\n  div\n    /* \"#utility.yul\":3413:3446   */\n  swap1\n  pop\n    /* \"#utility.yul\":3359:3452   */\n  swap2\n  swap1\n  pop\n  jump\t// out\n    /* \"#utility.yul\":3458:3565   */\ntag_57:\n    /* \"#utility.yul\":3502:3510   */\n  0x00\n    /* \"#utility.yul\":3552:3557   */\n  dup3\n    /* \"#utility.yul\":3546:3550   */\n  dup3\n    /* \"#utility.yul\":3542:3558   */\n  shl\n    /* \"#utility.yul\":3521:3558   */\n  swap1\n  pop\n    /* \"#utility.yul\":3458:3565   */\n  swap3\n  swap2\n  pop\n  pop\n  jump\t// out\n    /* \"#utility.yul\":3571:3964   */\ntag_58:\n    /* \"#utility.yul\":3640:3646   */\n  0x00\n    /* \"#utility.yul\":3690:3691   */\n  0x08\n    /* \"#utility.yul\":3678:3688   */\n  dup4\n    /* \"#utility.yul\":3674:3692   */\n  mul\n    /* \"#utility.yul\":3713:3810   */\n  tag_118\n    /* \"#utility.yul\":3743:3809   */\n  0xffffffffffffffffffffffffffffffffffffffffffffffffffffffffffffffff\n    /* \"#utility.yul\":3732:3741   */\n  dup3\n    /* \"#utility.yul\":3713:3810   */\n  tag_57\n  jump\t// in\ntag_118:\n    /* \"#utility.yul\":3831:3870   */\n  tag_119\n    /* \"#utility.yul\":3861:3869   */\n  dup7\n    /* \"#utility.yul\":3850:3859   */\n  dup4\n    /* \"#utility.yul\":3831:3870   */\n  tag_57\n  jump\t// in\ntag_119:\n    /* \"#utility.yul\":3819:3870   */\n  swap6\n  pop\n    /* \"#utility.yul\":3903:3907   */\n  dup1\n    /* \"#utility.yul\":3899:3908   */\n  not\n    /* \"#utility.yul\":3892:3897   */\n  dup5\n    /* \"#utility.yul\":3888:3909   */\n  and\n    /* \"#utility.yul\":3879:3909   */\n  swap4\n  pop\n    /* \"#utility.yul\":3952:3956   */\n  dup1\n    /* \"#utility.yul\":3942:3950   */\n  dup7\n    /* \"#utility.yul\":3938:3957   */\n  and\n    /* \"#utility.yul\":3931:3936   */\n  dup5\n    /* \"#utility.yul\":3928:3958   */\n  or\n    /* \"#utility.yul\":3918:3958   */\n  swap3\n  pop\n    /* \"#utility.yul\":3647:3964   */\n  pop\n  pop\n    /* \"#utility.yul\":3571:3964   */\n  swap4\n  swap3\n  pop\n  pop\n  pop\n  jump\t// out\n    /* \"#utility.yul\":3970:4047   */\ntag_59:\n    /* \"#utility.yul\":4007:4014   */\n  0x00\n    /* \"#utility.yul\":4036:4041   */\n  dup2\n    /* \"#utility.yul\":4025:4041   */\n  swap1\n  pop\n    /* \"#utility.yul\":3970:4047   */\n  swap2\n  swap1\n  pop\n  jump\t// out\n    /* \"#utility.yul\":4053:4113   */\ntag_60:\n    /* \"#utility.yul\":4081:4084   */\n  0x00\n    /* \"#utility.yul\":4102:4107   */\n  dup2\n    /* \"#utility.yul\":4095:4107   */\n  swap1\n  pop\n    /* \"#utility.yul\":4053:4113   */\n  swap2\n  swap1\n  pop\n  jump\t// out\n    /* \"#utility.yul\":4119:4261   */\ntag_61:\n    /* \"#utility.yul\":4169:4178   */\n  0x00\n    /* \"#utility.yul\":4202:4255   */\n  tag_123\n    /* \"#utility.yul\":4220:4254   */\n  tag_124\n    /* \"#utility.yul\":4229:4253   */\n  tag_125\n    /* \"#utility.yul\":4247:4252   */\n  dup5\n    /* \"#utility.yul\":4229:4253   */\n  tag_59\n  jump\t// in\ntag_125:\n    /* \"#utility.yul\":4220:4254   */\n  tag_60\n  jump\t// in\ntag_124:\n    /* \"#utility.yul\":4202:4255   */\n  tag_59\n  jump\t// in\ntag_123:\n    /* \"#utility.yul\":4189:4255   */\n  swap1\n  pop\n    /* \"#utility.yul\":4119:4261   */\n  swap2\n  swap1\n  pop\n  jump\t// out\n    /* \"#utility.yul\":4267:4342   */\ntag_62:\n    /* \"#utility.yul\":4310:4313   */\n  0x00\n    /* \"#utility.yul\":4331:4336   */\n  dup2\n    /* \"#utility.yul\":4324:4336   */\n  swap1\n  pop\n    /* \"#utility.yul\":4267:4342   */\n  swap2\n  swap1\n  pop\n  jump\t// out\n    /* \"#utility.yul\":4348:4617   */\ntag_63:\n    /* \"#utility.yul\":4458:4497   */\n  tag_128\n    /* \"#utility.yul\":4489:4496   */\n  dup4\n    /* \"#utility.yul\":4458:4497   */\n  tag_61\n  jump\t// in\ntag_128:\n    /* \"#utility.yul\":4519:4610   */\n  tag_129\n    /* \"#utility.yul\":4568:4609   */\n  tag_130\n    /* \"#utility.yul\":4592:4608   */\n  dup3\n    /* \"#utility.yul\":4568:4609   */\n  tag_62\n  jump\t// in\ntag_130:\n    /* \"#utility.yul\":4560:4566   */\n  dup5\n    /* \"#utility.yul\":4553:4557   */\n  dup5\n    /* \"#utility.yul\":4547:4558   */\n  sload\n    /* \"#utility.yul\":4519:4610   */\n  tag_58\n  jump\t// in\ntag_129:\n    /* \"#utility.yul\":4513:4517   */\n  dup3\n    /* \"#utility.yul\":4506:4611   */\n  sstore\n    /* \"#utility.yul\":4424:4617   */\n  pop\n    /* \"#utility.yul\":4348:4617   */\n  pop\n  pop\n  pop\n  jump\t// out\n    /* \"#utility.yul\":4623:4696   */\ntag_64:\n    /* \"#utility.yul\":4668:4671   */\n  0x00\n    /* \"#utility.yul\":4623:4696   */\n  swap1\n  jump\t// out\n    /* \"#utility.yul\":4702:4891   */\ntag_65:\n    /* \"#utility.yul\":4779:4811   */\n  tag_133\n  tag_64\n  jump\t// in\ntag_133:\n    /* \"#utility.yul\":4820:4885   */\n  tag_134\n    /* \"#utility.yul\":4878:4884   */\n  dup2\n    /* \"#utility.yul\":4870:4876   */\n  dup5\n    /* \"#utility.yul\":4864:4868   */\n  dup5\n    /* \"#utility.yul\":4820:4885   */\n  tag_63\n  jump\t// in\ntag_134:\n    /* \"#utility.yul\":4755:4891   */\n  pop\n    /* \"#utility.yul\":4702:4891   */\n  pop\n  pop\n  jump\t// out\n    /* \"#utility.yul\":4897:5083   */\ntag_66:\n    /* \"#utility.yul\":4957:5077   */\ntag_136:\n    /* \"#utility.yul\":4974:4977   */\n  dup2\n    /* \"#utility.yul\":4967:4972   */\n  dup2\n    /* \"#utility.yul\":4964:4978   */\n  lt\n    /* \"#utility.yul\":4957:5077   */\n  iszero\n  tag_138\n  jumpi\n    /* \"#utility.yul\":5028:5067   */\n  tag_139\n    /* \"#utility.yul\":5065:5066   */\n  0x00\n    /* \"#utility.yul\":5058:5063   */\n  dup3\n    /* \"#utility.yul\":5028:5067   */\n  tag_65\n  jump\t// in\ntag_139:\n    /* \"#utility.yul\":5001:5002   */\n  0x01\n    /* \"#utility.yul\":4994:4999   */\n  dup2\n    /* \"#utility.yul\":4990:5003   */\n  add\n    /* \"#utility.yul\":4981:5003   */\n  swap1\n  pop\n    /* \"#utility.yul\":4957:5077   */\n  jump(tag_136)\ntag_138:\n    /* \"#utility.yul\":4897:5083   */\n  pop\n  pop\n  jump\t// out\n    /* \"#utility.yul\":5089:5632   */\ntag_67:\n    /* \"#utility.yul\":5190:5192   */\n  0x1f\n    /* \"#utility.yul\":5185:5188   */\n  dup3\n    /* \"#utility.yul\":5182:5193   */\n  gt\n    /* \"#utility.yul\":5179:5625   */\n  iszero\n  tag_141\n  jumpi\n    /* \"#utility.yul\":5224:5262   */\n  tag_142\n    /* \"#utility.yul\":5256:5261   */\n  dup2\n    /* \"#utility.yul\":5224:5262   */\n  tag_55\n  jump\t// in\ntag_142:\n    /* \"#utility.yul\":5308:5337   */\n  tag_143\n    /* \"#utility.yul\":5326:5336   */\n  dup5\n    /* \"#utility.yul\":5308:5337   */\n  tag_56\n  jump\t// in\ntag_143:\n    /* \"#utility.yul\":5298:5306   */\n  dup2\n    /* \"#utility.yul\":5294:5338   */\n  add\n    /* \"#utility.yul\":5491:5493   */\n  0x20\n    /* \"#utility.yul\":5479:5489   */\n  dup6\n    /* \"#utility.yul\":5476:5494   */\n  lt\n    /* \"#utility.yul\":5473:5522   */\n  iszero\n  tag_144\n  jumpi\n    /* \"#utility.yul\":5512:5520   */\n  dup2\n    /* \"#utility.yul\":5497:5520   */\n  swap1\n  pop\n    /* \"#utility.yul\":5473:5522   */\ntag_144:\n    /* \"#utility.yul\":5535:5615   */\n  tag_145\n    /* \"#utility.yul\":5591:5613   */\n  tag_146\n    /* \"#utility.yul\":5609:5612   */\n  dup6\n    /* \"#utility.yul\":5591:5613   */\n  tag_56\n  jump\t// in\ntag_146:\n    /* \"#utility.yul\":5581:5589   */\n  dup4\n    /* \"#utility.yul\":5577:5614   */\n  add\n    /* \"#utility.yul\":5564:5575   */\n  dup3\n    /* \"#utility.yul\":5535:5615   */\n  tag_66\n  jump\t// in\ntag_145:\n    /* \"#utility.yul\":5194:5625   */\n  pop\n  pop\n    /* \"#utility.yul\":5179:5625   */\ntag_141:\n    /* \"#utility.yul\":5089:5632   */\n  pop\n  pop\n  pop\n  jump\t// out\n    /* \"#utility.yul\":5638:5755   */\ntag_68:\n    /* \"#utility.yul\":5692:5700   */\n  0x00\n    /* \"#utility.yul\":5742:5747   */\n  dup3\n    /* \"#utility.yul\":5736:5740   */\n  dup3\n    /* \"#utility.yul\":5732:5748   */\n  shr\n    /* \"#utility.yul\":5711:5748   */\n  swap1\n  pop\n    /* \"#utility.yul\":5638:5755   */\n  swap3\n  swap2\n  pop\n  pop\n  jump\t// out\n    /* \"#utility.yul\":5761:5930   */\ntag_69:\n    /* \"#utility.yul\":5805:5811   */\n  0x00\n    /* \"#utility.yul\":5838:5889   */\n  tag_149\n    /* \"#utility.yul\":5886:5887   */\n  0x00\n    /* \"#utility.yul\":5882:5888   */\n  not\n    /* \"#utility.yul\":5874:5879   */\n  dup5\n    /* \"#utility.yul\":5871:5872   */\n  0x08\n    /* \"#utility.yul\":5867:5880   */\n  mul\n    /* \"#utility.yul\":5838:5889   */\n  tag_68\n  jump\t// in\ntag_149:\n    /* \"#utility.yul\":5834:5890   */\n  not\n    /* \"#utility.yul\":5919:5923   */\n  dup1\n    /* \"#utility.yul\":5913:5917   */\n  dup4\n    /* \"#utility.yul\":5909:5924   */\n  and\n    /* \"#utility.yul\":5899:5924   */\n  swap2\n  pop\n    /* \"#utility.yul\":5812:5930   */\n  pop\n    /* \"#utility.yul\":5761:5930   */\n  swap3\n  swap2\n  pop\n  pop\n  jump\t// out\n    /* \"#utility.yul\":5935:6230   */\ntag_70:\n    /* \"#utility.yul\":6011:6015   */\n  0x00\n    /* \"#utility.yul\":6157:6186   */\n  tag_151\n    /* \"#utility.yul\":6182:6185   */\n  dup4\n    /* \"#utility.yul\":6176:6180   */\n  dup4\n    /* \"#utility.yul\":6157:6186   */\n  tag_69\n  jump\t// in\ntag_151:\n    /* \"#utility.yul\":6149:6186   */\n  swap2\n  pop\n    /* \"#utility.yul\":6219:6222   */\n  dup3\n    /* \"#utility.yul\":6216:6217   */\n  0x02\n    /* \"#utility.yul\":6212:6223   */\n  mul\n    /* \"#utility.yul\":6206:6210   */\n  dup3\n    /* \"#utility.yul\":6203:6224   */\n  or\n    /* \"#utility.yul\":6195:6224   */\n  swap1\n  pop\n    /* \"#utility.yul\":5935:6230   */\n  swap3\n  swap2\n  pop\n  pop\n  jump\t// out\n    /* \"#utility.yul\":6235:7630   */\ntag_10:\n    /* \"#utility.yul\":6352:6389   */\n  tag_153\n    /* \"#utility.yul\":6385:6388   */\n  dup3\n    /* \"#utility.yul\":6352:6389   */\n  tag_51\n  jump\t// in\ntag_153:\n    /* \"#utility.yul\":6454:6472   */\n  0xffffffffffffffff\n    /* \"#utility.yul\":6446:6452   */\n  dup2\n    /* \"#utility.yul\":6443:6473   */\n  gt\n    /* \"#utility.yul\":6440:6496   */\n  iszero\n  tag_154\n  jumpi\n    /* \"#utility.yul\":6476:6494   */\n  tag_155\n  tag_52\n  jump\t// in\ntag_155:\n    /* \"#utility.yul\":6440:6496   */\ntag_154:\n    /* \"#utility.yul\":6520:6558   */\n  tag_156\n    /* \"#utility.yul\":6552:6556   */\n  dup3\n    /* \"#utility.yul\":6546:6557   */\n  sload\n    /* \"#utility.yul\":6520:6558   */\n  tag_54\n  jump\t// in\ntag_156:\n    /* \"#utility.yul\":6605:6672   */\n  tag_157\n    /* \"#utility.yul\":6665:6671   */\n  dup3\n    /* \"#utility.yul\":6657:6663   */\n  dup3\n    /* \"#utility.yul\":6651:6655   */\n  dup6\n    /* \"#utility.yul\":6605:6672   */\n  tag_67\n  jump\t// in\ntag_157:\n    /* \"#utility.yul\":6699:6700   */\n  0x00\n    /* \"#utility.yul\":6723:6727   */\n  0x20\n    /* \"#utility.yul\":6710:6727   */\n  swap1\n  pop\n    /* \"#utility.yul\":6755:6757   */\n  0x1f\n    /* \"#utility.yul\":6747:6753   */\n  dup4\n    /* \"#utility.yul\":6744:6758   */\n  gt\n    /* \"#utility.yul\":6772:6773   */\n  0x01\n    /* \"#utility.yul\":6767:7385   */\n  dup2\n  eq\n  tag_159\n  jumpi\n    /* \"#utility.yul\":7429:7430   */\n  0x00\n    /* \"#utility.yul\":7446:7452   */\n  dup5\n    /* \"#utility.yul\":7443:7520   */\n  iszero\n  tag_160\n  jumpi\n    /* \"#utility.yul\":7495:7504   */\n  dup3\n    /* \"#utility.yul\":7490:7493   */\n  dup8\n    /* \"#utility.yul\":7486:7505   */\n  add\n    /* \"#utility.yul\":7480:7506   */\n  mload\n    /* \"#utility.yul\":7471:7506   */\n  swap1\n  pop\n    /* \"#utility.yul\":7443:7520   */\ntag_160:\n    /* \"#utility.yul\":7546:7613   */\n  tag_161\n    /* \"#utility.yul\":7606:7612   */\n  dup6\n    /* \"#utility.yul\":7599:7604   */\n  dup3\n    /* \"#utility.yul\":7546:7613   */\n  tag_70\n  jump\t// in\ntag_161:\n    /* \"#utility.yul\":7540:7544   */\n  dup7\n    /* \"#utility.yul\":7533:7614   */\n  sstore\n    /* \"#utility.yul\":7402:7624   */\n  pop\n    /* \"#utility.yul\":6737:7624   */\n  jump(tag_158)\n    /* \"#utility.yul\":6767:7385   */\ntag_159:\n    /* \"#utility.yul\":6819:6823   */\n  0x1f\n    /* \"#utility.yul\":6815:6824   */\n  not\n    /* \"#utility.yul\":6807:6813   */\n  dup5\n    /* \"#utility.yul\":6803:6825   */\n  and\n    /* \"#utility.yul\":6853:6890   */\n  tag_162\n    /* \"#utility.yul\":6885:6889   */\n  dup7\n    /* \"#utility.yul\":6853:6890   */\n  tag_55\n  jump\t// in\ntag_162:\n    /* \"#utility.yul\":6912:6913   */\n  0x00\n    /* \"#utility.yul\":6926:7134   */\ntag_163:\n    /* \"#utility.yul\":6940:6947   */\n  dup3\n    /* \"#utility.yul\":6937:6938   */\n  dup2\n    /* \"#utility.yul\":6934:6948   */\n  lt\n    /* \"#utility.yul\":6926:7134   */\n  iszero\n  tag_165\n  jumpi\n    /* \"#utility.yul\":7019:7028   */\n  dup5\n    /* \"#utility.yul\":7014:7017   */\n  dup10\n    /* \"#utility.yul\":7010:7029   */\n  add\n    /* \"#utility.yul\":7004:7030   */\n  mload\n    /* \"#utility.yul\":6996:7002   */\n  dup3\n    /* \"#utility.yul\":6989:7031   */\n  sstore\n    /* \"#utility.yul\":7070:7071   */\n  0x01\n    /* \"#utility.yul\":7062:7068   */\n  dup3\n    /* \"#utility.yul\":7058:7072   */\n  add\n    /* \"#utility.yul\":7048:7072   */\n  swap2\n  pop\n    /* \"#utility.yul\":7117:7119   */\n  0x20\n    /* \"#utility.yul\":7106:7115   */\n  dup6\n    /* \"#utility.yul\":7102:7120   */\n  add\n    /* \"#utility.yul\":7089:7120   */\n  swap5\n  pop\n    /* \"#utility.yul\":6963:6967   */\n  0x20\n    /* \"#utility.yul\":6960:6961   */\n  dup2\n    /* \"#utility.yul\":6956:6968   */\n  add\n    /* \"#utility.yul\":6951:6968   */\n  swap1\n  pop\n    /* \"#utility.yul\":6926:7134   */\n  jump(tag_163)\ntag_165:\n    /* \"#utility.yul\":7162:7168   */\n  dup7\n    /* \"#utility.yul\":7153:7160   */\n  dup4\n    /* \"#utility.yul\":7150:7169   */\n  lt\n    /* \"#utility.yul\":7147:7326   */\n  iszero\n  tag_166\n  jumpi\n    /* \"#utility.yul\":7220:7229   */\n  dup5\n    /* \"#utility.yul\":7215:7218   */\n  dup10\n    /* \"#utility.yul\":7211:7230   */\n  add\n    /* \"#utility.yul\":7205:7231   */\n  mload\n    /* \"#utility.yul\":7263:7311   */\n  tag_167\n    /* \"#utility.yul\":7305:7309   */\n  0x1f\n    /* \"#utility.yul\":7297:7303   */\n  dup10\n    /* \"#utility.yul\":7293:7310   */\n  and\n    /* \"#utility.yul\":7282:7291   */\n  dup3\n    /* \"#utility.yul\":7263:7311   */\n  tag_69\n  jump\t// in\ntag_167:\n    /* \"#utility.yul\":7255:7261   */\n  dup4\n    /* \"#utility.yul\":7248:7312   */\n  sstore\n    /* \"#utility.yul\":7170:7326   */\n  pop\n    /* \"#utility.yul\":7147:7326   */\ntag_166:\n    /* \"#utility.yul\":7372:7373   */\n  0x01\n    /* \"#utility.yul\":7368:7369   */\n  0x02\n    /* \"#utility.yul\":7360:7366   */\n  dup9\n    /* \"#utility.yul\":7356:7370   */\n  mul\n    /* \"#utility.yul\":7352:7374   */\n  add\n    /* \"#utility.yul\":7346:7350   */\n  dup9\n    /* \"#utility.yul\":7339:7375   */\n  sstore\n    /* \"#utility.yul\":6774:7385   */\n  pop\n  pop\n  pop\n    /* \"#utility.yul\":6737:7624   */\ntag_158:\n  pop\n    /* \"#utility.yul\":6327:7630   */\n  pop\n  pop\n  pop\n    /* \"#utility.yul\":6235:7630   */\n  pop\n  pop\n  jump\t// out\n    /* \"#utility.yul\":7636:7805   */\ntag_71:\n    /* \"#utility.yul\":7720:7731   */\n  0x00\n    /* \"#utility.yul\":7754:7760   */\n  dup3\n    /* \"#utility.yul\":7749:7752   */\n  dup3\n    /* \"#utility.yul\":7742:7761   */\n  mstore\n    /* \"#utility.yul\":7794:7798   */\n  0x20\n    /* \"#utility.yul\":7789:7792   */\n  dup3\n    /* \"#utility.yul\":7785:7799   */\n  add\n    /* \"#utility.yul\":7770:7799   */\n  swap1\n  pop\n    /* \"#utility.yul\":7636:7805   */\n  swap3\n  swap2\n  pop\n  pop\n  jump\t// out\n    /* \"#utility.yul\":7811:7992   */\ntag_72:\n    /* \"#utility.yul\":7951:7984   */\n  0x45524332303a206d696e7420746f20746865207a65726f206164647265737300\n    /* \"#utility.yul\":7947:7948   */\n  0x00\n    /* \"#utility.yul\":7939:7945   */\n  dup3\n    /* \"#utility.yul\":7935:7949   */\n  add\n    /* \"#utility.yul\":7928:7985   */\n  mstore\n    /* \"#utility.yul\":7811:7992   */\n  pop\n  jump\t// out\n    /* \"#utility.yul\":7998:8364   */\ntag_73:\n    /* \"#utility.yul\":8140:8143   */\n  0x00\n    /* \"#utility.yul\":8161:8228   */\n  tag_171\n    /* \"#utility.yul\":8225:8227   */\n  0x1f\n    /* \"#utility.yul\":8220:8223   */\n  dup4\n    /* \"#utility.yul\":8161:8228   */\n  tag_71\n  jump\t// in\ntag_171:\n    /* \"#utility.yul\":8154:8228   */\n  swap2\n  pop\n    /* \"#utility.yul\":8237:8330   */\n  tag_172\n    /* \"#utility.yul\":8326:8329   */\n  dup3\n    /* \"#utility.yul\":8237:8330   */\n  tag_72\n  jump\t// in\ntag_172:\n    /* \"#utility.yul\":8355:8357   */\n  0x20\n    /* \"#utility.yul\":8350:8353   */\n  dup3\n    /* \"#utility.yul\":8346:8358   */\n  add\n    /* \"#utility.yul\":8339:8358   */\n  swap1\n  pop\n    /* \"#utility.yul\":7998:8364   */\n  swap2\n  swap1\n  pop\n  jump\t// out\n    /* \"#utility.yul\":8370:8789   */\ntag_27:\n    /* \"#utility.yul\":8536:8540   */\n  0x00\n    /* \"#utility.yul\":8574:8576   */\n  0x20\n    /* \"#utility.yul\":8563:8572   */\n  dup3\n    /* \"#utility.yul\":8559:8577   */\n  add\n    /* \"#utility.yul\":8551:8577   */\n  swap1\n  pop\n    /* \"#utility.yul\":8623:8632   */\n  dup2\n    /* \"#utility.yul\":8617:8621   */\n  dup2\n    /* \"#utility.yul\":8613:8633   */\n  sub\n    /* \"#utility.yul\":8609:8610   */\n  0x00\n    /* \"#utility.yul\":8598:8607   */\n  dup4\n    /* \"#utility.yul\":8594:8611   */\n  add\n    /* \"#utility.yul\":8587:8634   */\n  mstore\n    /* \"#utility.yul\":8651:8782   */\n  tag_174\n    /* \"#utility.yul\":8777:8781   */\n  dup2\n    /* \"#utility.yul\":8651:8782   */\n  tag_73\n  jump\t// in\ntag_174:\n    /* \"#utility.yul\":8643:8782   */\n  swap1\n  pop\n    /* \"#utility.yul\":8370:8789   */\n  swap2\n  swap1\n  pop\n  jump\t// out\n    /* \"#utility.yul\":8795:8975   */\ntag_74:\n    /* \"#utility.yul\":8843:8920   */\n  0x4e487b7100000000000000000000000000000000000000000000000000000000\n    /* \"#utility.yul\":8840:8841   */\n  0x00\n    /* \"#utility.yul\":8833:8921   */\n  mstore\n    /* \"#utility.yul\":8940:8944   */\n  0x11\n    /* \"#utility.yul\":8937:8938   */\n  0x04\n    /* \"#utility.yul\":8930:8945   */\n  mstore\n    /* \"#utility.yul\":8964:8968   */\n  0x24\n    /* \"#utility.yul\":8961:8962   */\n  0x00\n    /* \"#utility.yul\":8954:8969   */\n  revert\n    /* \"#utility.yul\":8981:9172   */\ntag_31:\n    /* \"#utility.yul\":9021:9024   */\n  0x00\n    /* \"#utility.yul\":9040:9060   */\n  tag_177\n    /* \"#utility.yul\":9058:9059   */\n  dup3\n    /* \"#utility.yul\":9040:9060   */\n  tag_59\n  jump\t// in\ntag_177:\n    /* \"#utility.yul\":9035:9060   */\n  swap2\n  pop\n    /* \"#utility.yul\":9074:9094   */\n  tag_178\n    /* \"#utility.yul\":9092:9093   */\n  dup4\n    /* \"#utility.yul\":9074:9094   */\n  tag_59\n  jump\t// in\ntag_178:\n    /* \"#utility.yul\":9069:9094   */\n  swap3\n  pop\n    /* \"#utility.yul\":9117:9118   */\n  dup3\n    /* \"#utility.yul\":9114:9115   */\n  dup3\n    /* \"#utility.yul\":9110:9119   */\n  add\n    /* \"#utility.yul\":9103:9119   */\n  swap1\n  pop\n    /* \"#utility.yul\":9138:9141   */\n  dup1\n    /* \"#utility.yul\":9135:9136   */\n  dup3\n    /* \"#utility.yul\":9132:9142   */\n  gt\n    /* \"#utility.yul\":9129:9165   */\n  iszero\n  tag_179\n  jumpi\n    /* \"#utility.yul\":9145:9163   */\n  tag_180\n  tag_74\n  jump\t// in\ntag_180:\n    /* \"#utility.yul\":9129:9165   */\ntag_179:\n    /* \"#utility.yul\":8981:9172   */\n  swap3\n  swap2\n  pop\n  pop\n  jump\t// out\n    /* \"#utility.yul\":9178:9296   */\ntag_75:\n    /* \"#utility.yul\":9265:9289   */\n  tag_182\n    /* \"#utility.yul\":9283:9288   */\n  dup2\n    /* \"#utility.yul\":9265:9289   */\n  tag_59\n  jump\t// in\ntag_182:\n    /* \"#utility.yul\":9260:9263   */\n  dup3\n    /* \"#utility.yul\":9253:9290   */\n  mstore\n    /* \"#utility.yul\":9178:9296   */\n  pop\n  pop\n  jump\t// out\n    /* \"#utility.yul\":9302:9524   */\ntag_33:\n    /* \"#utility.yul\":9395:9399   */\n  0x00\n    /* \"#utility.yul\":9433:9435   */\n  0x20\n    /* \"#utility.yul\":9422:9431   */\n  dup3\n    /* \"#utility.yul\":9418:9436   */\n  add\n    /* \"#utility.yul\":9410:9436   */\n  swap1\n  pop\n    /* \"#utility.yul\":9446:9517   */\n  tag_184\n    /* \"#utility.yul\":9514:9515   */\n  0x00\n    /* \"#utility.yul\":9503:9512   */\n  dup4\n    /* \"#utility.yul\":9499:9516   */\n  add\n    /* \"#utility.yul\":9490:9496   */\n  dup5\n    /* \"#utility.yul\":9446:9517   */\n  tag_75\n  jump\t// in\ntag_184:\n    /* \"#utility.yul\":9302:9524   */\n  swap3\n  swap2\n  pop\n  pop\n  jump\t// out\n    /* \"contracts/ERC20K.sol\":507:3413  contract ERC20K is ERC20, VRFConsumerBaseV2, Ownable{... */\ntag_21:\n  mload(0x80)\n  mload(0xa0)\n  mload(0xc0)\n  mload(0xe0)\n  codecopy(0x00, dataOffset(sub_0), dataSize(sub_0))\n  0x00\n  assignImmutable(\"0xea2be7462ba029b652aff7f133fb5a060c54e0e185c3f490d38499f05e184c65\")\n  0x00\n  assignImmutable(\"0x91aca35d2323f1aee5ba294cf6472d107c931b44a833a4780d457097227aec52\")\n  0x00\n  assignImmutable(\"0x0ace5cd98f2533323fba8ba50b959372b29670c06ed74e106fbe42d8310eea29\")\n  0x00\n  assignImmutable(\"0x1a192fabce13988b84994d4296e6cdc418d55e2f1d7f942188d4040b94fc57ac\")\n  return(0x00, dataSize(sub_0))\nstop\n\nsub_0: assembly {\n        /* \"contracts/ERC20K.sol\":507:3413  contract ERC20K is ERC20, VRFConsumerBaseV2, Ownable{... */\n      mstore(0x40, 0x80)\n      callvalue\n      dup1\n      iszero\n      tag_1\n      jumpi\n      0x00\n      dup1\n      revert\n    tag_1:\n      pop\n      jumpi(tag_2, lt(calldatasize, 0x04))\n      shr(0xe0, calldataload(0x00))\n      dup1\n      0x8da5cb5b\n      gt\n      tag_25\n      jumpi\n      dup1\n      0xbeabacc8\n      gt\n      tag_26\n      jumpi\n      dup1\n      0xbeabacc8\n      eq\n      tag_19\n      jumpi\n      dup1\n      0xdd62ed3e\n      eq\n      tag_20\n      jumpi\n      dup1\n      0xe0c86289\n      eq\n      tag_21\n      jumpi\n      dup1\n      0xe89e106a\n      eq\n      tag_22\n      jumpi\n      dup1\n      0xf2fde38b\n      eq\n      tag_23\n      jumpi\n      dup1\n      0xf6eaffc8\n      eq\n      tag_24\n      jumpi\n      jump(tag_2)\n    tag_26:\n      dup1\n      0x8da5cb5b\n      eq\n      tag_14\n      jumpi\n      dup1\n      0x8e15f473\n      eq\n      tag_15\n      jumpi\n      dup1\n      0x95d89b41\n      eq\n      tag_16\n      jumpi\n      dup1\n      0xa457c2d7\n      eq\n      tag_17\n      jumpi\n      dup1\n      0xa9059cbb\n      eq\n      tag_18\n      jumpi\n      jump(tag_2)\n    tag_25:\n      dup1\n      0x313ce567\n      gt\n      tag_27\n      jumpi\n      dup1\n      0x313ce567\n      eq\n      tag_8\n      jumpi\n      dup1\n      0x39509351\n      eq\n      tag_9\n      jumpi\n      dup1\n      0x40c10f19\n      eq\n      tag_10\n      jumpi\n      dup1\n      0x70a08231\n      eq\n      tag_11\n      jumpi\n      dup1\n      0x715018a6\n      eq\n      tag_12\n      jumpi\n      dup1\n      0x741bef1a\n      eq\n      tag_13\n      jumpi\n      jump(tag_2)\n    tag_27:\n      dup1\n      0x06fdde03\n      eq\n      tag_3\n      jumpi\n      dup1\n      0x095ea7b3\n      eq\n      tag_4\n      jumpi\n      dup1\n      0x18160ddd\n      eq\n      tag_5\n      jumpi\n      dup1\n      0x1fe543e3\n      eq\n      tag_6\n      jumpi\n      dup1\n      0x23b872dd\n      eq\n      tag_7\n      jumpi\n    tag_2:\n      0x00\n      dup1\n      revert\n        /* \"@openzeppelin/contracts/token/ERC20/ERC20.sol\":2154:2252  function name() public view virtual override returns (string memory) {... */\n    tag_3:\n      tag_28\n      tag_29\n      jump\t// in\n    tag_28:\n      mload(0x40)\n      tag_30\n      swap2\n      swap1\n      tag_31\n      jump\t// in\n    tag_30:\n      mload(0x40)\n      dup1\n      swap2\n      sub\n      swap1\n      return\n        /* \"@openzeppelin/contracts/token/ERC20/ERC20.sol\":4431:4628  function approve(address spender, uint256 amount) public virtual override returns (bool) {... */\n    tag_4:\n      tag_32\n      0x04\n      dup1\n      calldatasize\n      sub\n      dup2\n      add\n      swap1\n      tag_33\n      swap2\n      swap1\n      tag_34\n      jump\t// in\n    tag_33:\n      tag_35\n      jump\t// in\n    tag_32:\n      mload(0x40)\n      tag_36\n      swap2\n      swap1\n      tag_37\n      jump\t// in\n    tag_36:\n      mload(0x40)\n      dup1\n      swap2\n      sub\n      swap1\n      return\n        /* \"@openzeppelin/contracts/token/ERC20/ERC20.sol\":3242:3348  function totalSupply() public view virtual override returns (uint256) {... */\n    tag_5:\n      tag_38\n      tag_39\n      jump\t// in\n    tag_38:\n      mload(0x40)\n      tag_40\n      swap2\n      swap1\n      tag_41\n      jump\t// in\n    tag_40:\n      mload(0x40)\n      dup1\n      swap2\n      sub\n      swap1\n      return\n        /* \"@chainlink/contracts/src/v0.8/VRFConsumerBaseV2.sol\":6618:6874  function rawFulfillRandomWords(uint256 requestId, uint256[] memory randomWords) external {... */\n    tag_6:\n      tag_42\n      0x04\n      dup1\n      calldatasize\n      sub\n      dup2\n      add\n      swap1\n      tag_43\n      swap2\n      swap1\n      tag_44\n      jump\t// in\n    tag_43:\n      tag_45\n      jump\t// in\n    tag_42:\n      stop\n        /* \"@openzeppelin/contracts/token/ERC20/ERC20.sol\":5190:5476  function transferFrom(... */\n    tag_7:\n      tag_46\n      0x04\n      dup1\n      calldatasize\n      sub\n      dup2\n      add\n      swap1\n      tag_47\n      swap2\n      swap1\n      tag_48\n      jump\t// in\n    tag_47:\n      tag_49\n      jump\t// in\n    tag_46:\n      mload(0x40)\n      tag_50\n      swap2\n      swap1\n      tag_37\n      jump\t// in\n    tag_50:\n      mload(0x40)\n      dup1\n      swap2\n      sub\n      swap1\n      return\n        /* \"@openzeppelin/contracts/token/ERC20/ERC20.sol\":3091:3182  function decimals() public view virtual override returns (uint8) {... */\n    tag_8:\n      tag_51\n      tag_52\n      jump\t// in\n    tag_51:\n      mload(0x40)\n      tag_53\n      swap2\n      swap1\n      tag_54\n      jump\t// in\n    tag_53:\n      mload(0x40)\n      dup1\n      swap2\n      sub\n      swap1\n      return\n        /* \"@openzeppelin/contracts/token/ERC20/ERC20.sol\":5871:6105  function increaseAllowance(address spender, uint256 addedValue) public virtual returns (bool) {... */\n    tag_9:\n      tag_55\n      0x04\n      dup1\n      calldatasize\n      sub\n      dup2\n      add\n      swap1\n      tag_56\n      swap2\n      swap1\n      tag_34\n      jump\t// in\n    tag_56:\n      tag_57\n      jump\t// in\n    tag_55:\n      mload(0x40)\n      tag_58\n      swap2\n      swap1\n      tag_37\n      jump\t// in\n    tag_58:\n      mload(0x40)\n      dup1\n      swap2\n      sub\n      swap1\n      return\n        /* \"contracts/ERC20K.sol\":2271:2364  function mint(address to, uint256 amount) public onlyOwner {... */\n    tag_10:\n      tag_59\n      0x04\n      dup1\n      calldatasize\n      sub\n      dup2\n      add\n      swap1\n      tag_60\n      swap2\n      swap1\n      tag_34\n      jump\t// in\n    tag_60:\n      tag_61\n      jump\t// in\n    tag_59:\n      stop\n        /* \"@openzeppelin/contracts/token/ERC20/ERC20.sol\":3406:3531  function balanceOf(address account) public view virtual override returns (uint256) {... */\n    tag_11:\n      tag_62\n      0x04\n      dup1\n      calldatasize\n      sub\n      dup2\n      add\n      swap1\n      tag_63\n      swap2\n      swap1\n      tag_64\n      jump\t// in\n    tag_63:\n      tag_65\n      jump\t// in\n    tag_62:\n      mload(0x40)\n      tag_66\n      swap2\n      swap1\n      tag_41\n      jump\t// in\n    tag_66:\n      mload(0x40)\n      dup1\n      swap2\n      sub\n      swap1\n      return\n        /* \"@openzeppelin/contracts/access/Ownable.sol\":1831:1932  function renounceOwnership() public virtual onlyOwner {... */\n    tag_12:\n      tag_67\n      tag_68\n      jump\t// in\n    tag_67:\n      stop\n        /* \"contracts/ERC20K.sol\":662:700  AggregatorV3Interface public priceFeed */\n    tag_13:\n      tag_69\n      tag_70\n      jump\t// in\n    tag_69:\n      mload(0x40)\n      tag_71\n      swap2\n      swap1\n      tag_72\n      jump\t// in\n    tag_71:\n      mload(0x40)\n      dup1\n      swap2\n      sub\n      swap1\n      return\n        /* \"@openzeppelin/contracts/access/Ownable.sol\":1201:1286  function owner() public view virtual returns (address) {... */\n    tag_14:\n      tag_73\n      tag_74\n      jump\t// in\n    tag_73:\n      mload(0x40)\n      tag_75\n      swap2\n      swap1\n      tag_76\n      jump\t// in\n    tag_75:\n      mload(0x40)\n      dup1\n      swap2\n      sub\n      swap1\n      return\n        /* \"contracts/ERC20K.sol\":2519:2866  function getLatestPrice() public view returns (int256) {... */\n    tag_15:\n      tag_77\n      tag_78\n      jump\t// in\n    tag_77:\n      mload(0x40)\n      tag_79\n      swap2\n      swap1\n      tag_80\n      jump\t// in\n    tag_79:\n      mload(0x40)\n      dup1\n      swap2\n      sub\n      swap1\n      return\n        /* \"@openzeppelin/contracts/token/ERC20/ERC20.sol\":2365:2467  function symbol() public view virtual override returns (string memory) {... */\n    tag_16:\n      tag_81\n      tag_82\n      jump\t// in\n    tag_81:\n      mload(0x40)\n      tag_83\n      swap2\n      swap1\n      tag_31\n      jump\t// in\n    tag_83:\n      mload(0x40)\n      dup1\n      swap2\n      sub\n      swap1\n      return\n        /* \"@openzeppelin/contracts/token/ERC20/ERC20.sol\":6592:7019  function decreaseAllowance(address spender, uint256 subtractedValue) public virtual returns (bool) {... */\n    tag_17:\n      tag_84\n      0x04\n      dup1\n      calldatasize\n      sub\n      dup2\n      add\n      swap1\n      tag_85\n      swap2\n      swap1\n      tag_34\n      jump\t// in\n    tag_85:\n      tag_86\n      jump\t// in\n    tag_84:\n      mload(0x40)\n      tag_87\n      swap2\n      swap1\n      tag_37\n      jump\t// in\n    tag_87:\n      mload(0x40)\n      dup1\n      swap2\n      sub\n      swap1\n      return\n        /* \"@openzeppelin/contracts/token/ERC20/ERC20.sol\":3727:3916  function transfer(address to, uint256 amount) public virtual override returns (bool) {... */\n    tag_18:\n      tag_88\n      0x04\n      dup1\n      calldatasize\n      sub\n      dup2\n      add\n      swap1\n      tag_89\n      swap2\n      swap1\n      tag_34\n      jump\t// in\n    tag_89:\n      tag_90\n      jump\t// in\n    tag_88:\n      mload(0x40)\n      tag_91\n      swap2\n      swap1\n      tag_37\n      jump\t// in\n    tag_91:\n      mload(0x40)\n      dup1\n      swap2\n      sub\n      swap1\n      return\n        /* \"contracts/ERC20K.sol\":2370:2491  function transfer(address from, address to, uint256 amount) public onlyOwner {... */\n    tag_19:\n      tag_92\n      0x04\n      dup1\n      calldatasize\n      sub\n      dup2\n      add\n      swap1\n      tag_93\n      swap2\n      swap1\n      tag_48\n      jump\t// in\n    tag_93:\n      tag_94\n      jump\t// in\n    tag_92:\n      stop\n        /* \"@openzeppelin/contracts/token/ERC20/ERC20.sol\":3974:4123  function allowance(address owner, address spender) public view virtual override returns (uint256) {... */\n    tag_20:\n      tag_95\n      0x04\n      dup1\n      calldatasize\n      sub\n      dup2\n      add\n      swap1\n      tag_96\n      swap2\n      swap1\n      tag_97\n      jump\t// in\n    tag_96:\n      tag_98\n      jump\t// in\n    tag_95:\n      mload(0x40)\n      tag_99\n      swap2\n      swap1\n      tag_41\n      jump\t// in\n    tag_99:\n      mload(0x40)\n      dup1\n      swap2\n      sub\n      swap1\n      return\n        /* \"contracts/ERC20K.sol\":2872:3197  function requestRandomWords() external onlyOwner {... */\n    tag_21:\n      tag_100\n      tag_101\n      jump\t// in\n    tag_100:\n      stop\n        /* \"contracts/ERC20K.sol\":1104:1130  uint256 public s_requestId */\n    tag_22:\n      tag_102\n      tag_103\n      jump\t// in\n    tag_102:\n      mload(0x40)\n      tag_104\n      swap2\n      swap1\n      tag_41\n      jump\t// in\n    tag_104:\n      mload(0x40)\n      dup1\n      swap2\n      sub\n      swap1\n      return\n        /* \"@openzeppelin/contracts/access/Ownable.sol\":2081:2279  function transferOwnership(address newOwner) public virtual onlyOwner {... */\n    tag_23:\n      tag_105\n      0x04\n      dup1\n      calldatasize\n      sub\n      dup2\n      add\n      swap1\n      tag_106\n      swap2\n      swap1\n      tag_64\n      jump\t// in\n    tag_106:\n      tag_107\n      jump\t// in\n    tag_105:\n      stop\n        /* \"contracts/ERC20K.sol\":1068:1098  uint256[] public s_randomWords */\n    tag_24:\n      tag_108\n      0x04\n      dup1\n      calldatasize\n      sub\n      dup2\n      add\n      swap1\n      tag_109\n      swap2\n      swap1\n      tag_110\n      jump\t// in\n    tag_109:\n      tag_111\n      jump\t// in\n    tag_108:\n      mload(0x40)\n      tag_112\n      swap2\n      swap1\n      tag_41\n      jump\t// in\n    tag_112:\n      mload(0x40)\n      dup1\n      swap2\n      sub\n      swap1\n      return\n        /* \"@openzeppelin/contracts/token/ERC20/ERC20.sol\":2154:2252  function name() public view virtual override returns (string memory) {... */\n    tag_29:\n        /* \"@openzeppelin/contracts/token/ERC20/ERC20.sol\":2208:2221  string memory */\n      0x60\n        /* \"@openzeppelin/contracts/token/ERC20/ERC20.sol\":2240:2245  _name */\n      0x03\n        /* \"@openzeppelin/contracts/token/ERC20/ERC20.sol\":2233:2245  return _name */\n      dup1\n      sload\n      tag_114\n      swap1\n      tag_115\n      jump\t// in\n    tag_114:\n      dup1\n      0x1f\n      add\n      0x20\n      dup1\n      swap2\n      div\n      mul\n      0x20\n      add\n      mload(0x40)\n      swap1\n      dup2\n      add\n      0x40\n      mstore\n      dup1\n      swap3\n      swap2\n      swap1\n      dup2\n      dup2\n      mstore\n      0x20\n      add\n      dup3\n      dup1\n      sload\n      tag_116\n      swap1\n      tag_115\n      jump\t// in\n    tag_116:\n      dup1\n      iszero\n      tag_117\n      jumpi\n      dup1\n      0x1f\n      lt\n      tag_118\n      jumpi\n      0x0100\n      dup1\n      dup4\n      sload\n      div\n      mul\n      dup4\n      mstore\n      swap2\n      0x20\n      add\n      swap2\n      jump(tag_117)\n    tag_118:\n      dup3\n      add\n      swap2\n      swap1\n      0x00\n      mstore\n      keccak256(0x00, 0x20)\n      swap1\n    tag_119:\n      dup2\n      sload\n      dup2\n      mstore\n      swap1\n      0x01\n      add\n      swap1\n      0x20\n      add\n      dup1\n      dup4\n      gt\n      tag_119\n      jumpi\n      dup3\n      swap1\n      sub\n      0x1f\n      and\n      dup3\n      add\n      swap2\n    tag_117:\n      pop\n      pop\n      pop\n      pop\n      pop\n      swap1\n      pop\n        /* \"@openzeppelin/contracts/token/ERC20/ERC20.sol\":2154:2252  function name() public view virtual override returns (string memory) {... */\n      swap1\n      jump\t// out\n        /* \"@openzeppelin/contracts/token/ERC20/ERC20.sol\":4431:4628  function approve(address spender, uint256 amount) public virtual override returns (bool) {... */\n    tag_35:\n        /* \"@openzeppelin/contracts/token/ERC20/ERC20.sol\":4514:4518  bool */\n      0x00\n        /* \"@openzeppelin/contracts/token/ERC20/ERC20.sol\":4530:4543  address owner */\n      dup1\n        /* \"@openzeppelin/contracts/token/ERC20/ERC20.sol\":4546:4558  _msgSender() */\n      tag_121\n        /* \"@openzeppelin/contracts/token/ERC20/ERC20.sol\":4546:4556  _msgSender */\n      tag_122\n        /* \"@openzeppelin/contracts/token/ERC20/ERC20.sol\":4546:4558  _msgSender() */\n      jump\t// in\n    tag_121:\n        /* \"@openzeppelin/contracts/token/ERC20/ERC20.sol\":4530:4558  address owner = _msgSender() */\n      swap1\n      pop\n        /* \"@openzeppelin/contracts/token/ERC20/ERC20.sol\":4568:4600  _approve(owner, spender, amount) */\n      tag_123\n        /* \"@openzeppelin/contracts/token/ERC20/ERC20.sol\":4577:4582  owner */\n      dup2\n        /* \"@openzeppelin/contracts/token/ERC20/ERC20.sol\":4584:4591  spender */\n      dup6\n        /* \"@openzeppelin/contracts/token/ERC20/ERC20.sol\":4593:4599  amount */\n      dup6\n        /* \"@openzeppelin/contracts/token/ERC20/ERC20.sol\":4568:4576  _approve */\n      tag_124\n        /* \"@openzeppelin/contracts/token/ERC20/ERC20.sol\":4568:4600  _approve(owner, spender, amount) */\n      jump\t// in\n    tag_123:\n        /* \"@openzeppelin/contracts/token/ERC20/ERC20.sol\":4617:4621  true */\n      0x01\n        /* \"@openzeppelin/contracts/token/ERC20/ERC20.sol\":4610:4621  return true */\n      swap2\n      pop\n      pop\n        /* \"@openzeppelin/contracts/token/ERC20/ERC20.sol\":4431:4628  function approve(address spender, uint256 amount) public virtual override returns (bool) {... */\n      swap3\n      swap2\n      pop\n      pop\n      jump\t// out\n        /* \"@openzeppelin/contracts/token/ERC20/ERC20.sol\":3242:3348  function totalSupply() public view virtual override returns (uint256) {... */\n    tag_39:\n        /* \"@openzeppelin/contracts/token/ERC20/ERC20.sol\":3303:3310  uint256 */\n      0x00\n        /* \"@openzeppelin/contracts/token/ERC20/ERC20.sol\":3329:3341  _totalSupply */\n      sload(0x02)\n        /* \"@openzeppelin/contracts/token/ERC20/ERC20.sol\":3322:3341  return _totalSupply */\n      swap1\n      pop\n        /* \"@openzeppelin/contracts/token/ERC20/ERC20.sol\":3242:3348  function totalSupply() public view virtual override returns (uint256) {... */\n      swap1\n      jump\t// out\n        /* \"@chainlink/contracts/src/v0.8/VRFConsumerBaseV2.sol\":6618:6874  function rawFulfillRandomWords(uint256 requestId, uint256[] memory randomWords) external {... */\n    tag_45:\n        /* \"@chainlink/contracts/src/v0.8/VRFConsumerBaseV2.sol\":6731:6745  vrfCoordinator */\n      immutable(\"0x1a192fabce13988b84994d4296e6cdc418d55e2f1d7f942188d4040b94fc57ac\")\n        /* \"@chainlink/contracts/src/v0.8/VRFConsumerBaseV2.sol\":6717:6745  msg.sender != vrfCoordinator */\n      0xffffffffffffffffffffffffffffffffffffffff\n      and\n        /* \"@chainlink/contracts/src/v0.8/VRFConsumerBaseV2.sol\":6717:6727  msg.sender */\n      caller\n        /* \"@chainlink/contracts/src/v0.8/VRFConsumerBaseV2.sol\":6717:6745  msg.sender != vrfCoordinator */\n      0xffffffffffffffffffffffffffffffffffffffff\n      and\n      eq\n        /* \"@chainlink/contracts/src/v0.8/VRFConsumerBaseV2.sol\":6713:6822  if (msg.sender != vrfCoordinator) {... */\n      tag_127\n      jumpi\n        /* \"@chainlink/contracts/src/v0.8/VRFConsumerBaseV2.sol\":6788:6798  msg.sender */\n      caller\n        /* \"@chainlink/contracts/src/v0.8/VRFConsumerBaseV2.sol\":6800:6814  vrfCoordinator */\n      immutable(\"0x1a192fabce13988b84994d4296e6cdc418d55e2f1d7f942188d4040b94fc57ac\")\n        /* \"@chainlink/contracts/src/v0.8/VRFConsumerBaseV2.sol\":6762:6815  OnlyCoordinatorCanFulfill(msg.sender, vrfCoordinator) */\n      mload(0x40)\n      0x1cf993f400000000000000000000000000000000000000000000000000000000\n      dup2\n      mstore\n      0x04\n      add\n      tag_128\n      swap3\n      swap2\n      swap1\n      tag_129\n      jump\t// in\n    tag_128:\n      mload(0x40)\n      dup1\n      swap2\n      sub\n      swap1\n      revert\n        /* \"@chainlink/contracts/src/v0.8/VRFConsumerBaseV2.sol\":6713:6822  if (msg.sender != vrfCoordinator) {... */\n    tag_127:\n        /* \"@chainlink/contracts/src/v0.8/VRFConsumerBaseV2.sol\":6827:6869  fulfillRandomWords(requestId, randomWords) */\n      tag_130\n        /* \"@chainlink/contracts/src/v0.8/VRFConsumerBaseV2.sol\":6846:6855  requestId */\n      dup3\n        /* \"@chainlink/contracts/src/v0.8/VRFConsumerBaseV2.sol\":6857:6868  randomWords */\n      dup3\n        /* \"@chainlink/contracts/src/v0.8/VRFConsumerBaseV2.sol\":6827:6845  fulfillRandomWords */\n      tag_131\n        /* \"@chainlink/contracts/src/v0.8/VRFConsumerBaseV2.sol\":6827:6869  fulfillRandomWords(requestId, randomWords) */\n      jump\t// in\n    tag_130:\n        /* \"@chainlink/contracts/src/v0.8/VRFConsumerBaseV2.sol\":6618:6874  function rawFulfillRandomWords(uint256 requestId, uint256[] memory randomWords) external {... */\n      pop\n      pop\n      jump\t// out\n        /* \"@openzeppelin/contracts/token/ERC20/ERC20.sol\":5190:5476  function transferFrom(... */\n    tag_49:\n        /* \"@openzeppelin/contracts/token/ERC20/ERC20.sol\":5317:5321  bool */\n      0x00\n        /* \"@openzeppelin/contracts/token/ERC20/ERC20.sol\":5333:5348  address spender */\n      dup1\n        /* \"@openzeppelin/contracts/token/ERC20/ERC20.sol\":5351:5363  _msgSender() */\n      tag_133\n        /* \"@openzeppelin/contracts/token/ERC20/ERC20.sol\":5351:5361  _msgSender */\n      tag_122\n        /* \"@openzeppelin/contracts/token/ERC20/ERC20.sol\":5351:5363  _msgSender() */\n      jump\t// in\n    tag_133:\n        /* \"@openzeppelin/contracts/token/ERC20/ERC20.sol\":5333:5363  address spender = _msgSender() */\n      swap1\n      pop\n        /* \"@openzeppelin/contracts/token/ERC20/ERC20.sol\":5373:5411  _spendAllowance(from, spender, amount) */\n      tag_134\n        /* \"@openzeppelin/contracts/token/ERC20/ERC20.sol\":5389:5393  from */\n      dup6\n        /* \"@openzeppelin/contracts/token/ERC20/ERC20.sol\":5395:5402  spender */\n      dup3\n        /* \"@openzeppelin/contracts/token/ERC20/ERC20.sol\":5404:5410  amount */\n      dup6\n        /* \"@openzeppelin/contracts/token/ERC20/ERC20.sol\":5373:5388  _spendAllowance */\n      tag_135\n        /* \"@openzeppelin/contracts/token/ERC20/ERC20.sol\":5373:5411  _spendAllowance(from, spender, amount) */\n      jump\t// in\n    tag_134:\n        /* \"@openzeppelin/contracts/token/ERC20/ERC20.sol\":5421:5448  _transfer(from, to, amount) */\n      tag_136\n        /* \"@openzeppelin/contracts/token/ERC20/ERC20.sol\":5431:5435  from */\n      dup6\n        /* \"@openzeppelin/contracts/token/ERC20/ERC20.sol\":5437:5439  to */\n      dup6\n        /* \"@openzeppelin/contracts/token/ERC20/ERC20.sol\":5441:5447  amount */\n      dup6\n        /* \"@openzeppelin/contracts/token/ERC20/ERC20.sol\":5421:5430  _transfer */\n      tag_137\n        /* \"@openzeppelin/contracts/token/ERC20/ERC20.sol\":5421:5448  _transfer(from, to, amount) */\n      jump\t// in\n    tag_136:\n        /* \"@openzeppelin/contracts/token/ERC20/ERC20.sol\":5465:5469  true */\n      0x01\n        /* \"@openzeppelin/contracts/token/ERC20/ERC20.sol\":5458:5469  return true */\n      swap2\n      pop\n      pop\n        /* \"@openzeppelin/contracts/token/ERC20/ERC20.sol\":5190:5476  function transferFrom(... */\n      swap4\n      swap3\n      pop\n      pop\n      pop\n      jump\t// out\n        /* \"@openzeppelin/contracts/token/ERC20/ERC20.sol\":3091:3182  function decimals() public view virtual override returns (uint8) {... */\n    tag_52:\n        /* \"@openzeppelin/contracts/token/ERC20/ERC20.sol\":3149:3154  uint8 */\n      0x00\n        /* \"@openzeppelin/contracts/token/ERC20/ERC20.sol\":3173:3175  18 */\n      0x12\n        /* \"@openzeppelin/contracts/token/ERC20/ERC20.sol\":3166:3175  return 18 */\n      swap1\n      pop\n        /* \"@openzeppelin/contracts/token/ERC20/ERC20.sol\":3091:3182  function decimals() public view virtual override returns (uint8) {... */\n      swap1\n      jump\t// out\n        /* \"@openzeppelin/contracts/token/ERC20/ERC20.sol\":5871:6105  function increaseAllowance(address spender, uint256 addedValue) public virtual returns (bool) {... */\n    tag_57:\n        /* \"@openzeppelin/contracts/token/ERC20/ERC20.sol\":5959:5963  bool */\n      0x00\n        /* \"@openzeppelin/contracts/token/ERC20/ERC20.sol\":5975:5988  address owner */\n      dup1\n        /* \"@openzeppelin/contracts/token/ERC20/ERC20.sol\":5991:6003  _msgSender() */\n      tag_140\n        /* \"@openzeppelin/contracts/token/ERC20/ERC20.sol\":5991:6001  _msgSender */\n      tag_122\n        /* \"@openzeppelin/contracts/token/ERC20/ERC20.sol\":5991:6003  _msgSender() */\n      jump\t// in\n    tag_140:\n        /* \"@openzeppelin/contracts/token/ERC20/ERC20.sol\":5975:6003  address owner = _msgSender() */\n      swap1\n      pop\n        /* \"@openzeppelin/contracts/token/ERC20/ERC20.sol\":6013:6077  _approve(owner, spender, allowance(owner, spender) + addedValue) */\n      tag_141\n        /* \"@openzeppelin/contracts/token/ERC20/ERC20.sol\":6022:6027  owner */\n      dup2\n        /* \"@openzeppelin/contracts/token/ERC20/ERC20.sol\":6029:6036  spender */\n      dup6\n        /* \"@openzeppelin/contracts/token/ERC20/ERC20.sol\":6066:6076  addedValue */\n      dup6\n        /* \"@openzeppelin/contracts/token/ERC20/ERC20.sol\":6038:6063  allowance(owner, spender) */\n      tag_142\n        /* \"@openzeppelin/contracts/token/ERC20/ERC20.sol\":6048:6053  owner */\n      dup6\n        /* \"@openzeppelin/contracts/token/ERC20/ERC20.sol\":6055:6062  spender */\n      dup10\n        /* \"@openzeppelin/contracts/token/ERC20/ERC20.sol\":6038:6047  allowance */\n      tag_98\n        /* \"@openzeppelin/contracts/token/ERC20/ERC20.sol\":6038:6063  allowance(owner, spender) */\n      jump\t// in\n    tag_142:\n        /* \"@openzeppelin/contracts/token/ERC20/ERC20.sol\":6038:6076  allowance(owner, spender) + addedValue */\n      tag_143\n      swap2\n      swap1\n      tag_144\n      jump\t// in\n    tag_143:\n        /* \"@openzeppelin/contracts/token/ERC20/ERC20.sol\":6013:6021  _approve */\n      tag_124\n        /* \"@openzeppelin/contracts/token/ERC20/ERC20.sol\":6013:6077  _approve(owner, spender, allowance(owner, spender) + addedValue) */\n      jump\t// in\n    tag_141:\n        /* \"@openzeppelin/contracts/token/ERC20/ERC20.sol\":6094:6098  true */\n      0x01\n        /* \"@openzeppelin/contracts/token/ERC20/ERC20.sol\":6087:6098  return true */\n      swap2\n      pop\n      pop\n        /* \"@openzeppelin/contracts/token/ERC20/ERC20.sol\":5871:6105  function increaseAllowance(address spender, uint256 addedValue) public virtual returns (bool) {... */\n      swap3\n      swap2\n      pop\n      pop\n      jump\t// out\n        /* \"contracts/ERC20K.sol\":2271:2364  function mint(address to, uint256 amount) public onlyOwner {... */\n    tag_61:\n        /* \"@openzeppelin/contracts/access/Ownable.sol\":1094:1107  _checkOwner() */\n      tag_146\n        /* \"@openzeppelin/contracts/access/Ownable.sol\":1094:1105  _checkOwner */\n      tag_147\n        /* \"@openzeppelin/contracts/access/Ownable.sol\":1094:1107  _checkOwner() */\n      jump\t// in\n    tag_146:\n        /* \"contracts/ERC20K.sol\":2340:2357  _mint(to, amount) */\n      tag_149\n        /* \"contracts/ERC20K.sol\":2346:2348  to */\n      dup3\n        /* \"contracts/ERC20K.sol\":2350:2356  amount */\n      dup3\n        /* \"contracts/ERC20K.sol\":2340:2345  _mint */\n      tag_150\n        /* \"contracts/ERC20K.sol\":2340:2357  _mint(to, amount) */\n      jump\t// in\n    tag_149:\n        /* \"contracts/ERC20K.sol\":2271:2364  function mint(address to, uint256 amount) public onlyOwner {... */\n      pop\n      pop\n      jump\t// out\n        /* \"@openzeppelin/contracts/token/ERC20/ERC20.sol\":3406:3531  function balanceOf(address account) public view virtual override returns (uint256) {... */\n    tag_65:\n        /* \"@openzeppelin/contracts/token/ERC20/ERC20.sol\":3480:3487  uint256 */\n      0x00\n        /* \"@openzeppelin/contracts/token/ERC20/ERC20.sol\":3506:3515  _balances */\n      dup1\n        /* \"@openzeppelin/contracts/token/ERC20/ERC20.sol\":3506:3524  _balances[account] */\n      0x00\n        /* \"@openzeppelin/contracts/token/ERC20/ERC20.sol\":3516:3523  account */\n      dup4\n        /* \"@openzeppelin/contracts/token/ERC20/ERC20.sol\":3506:3524  _balances[account] */\n      0xffffffffffffffffffffffffffffffffffffffff\n      and\n      0xffffffffffffffffffffffffffffffffffffffff\n      and\n      dup2\n      mstore\n      0x20\n      add\n      swap1\n      dup2\n      mstore\n      0x20\n      add\n      0x00\n      keccak256\n      sload\n        /* \"@openzeppelin/contracts/token/ERC20/ERC20.sol\":3499:3524  return _balances[account] */\n      swap1\n      pop\n        /* \"@openzeppelin/contracts/token/ERC20/ERC20.sol\":3406:3531  function balanceOf(address account) public view virtual override returns (uint256) {... */\n      swap2\n      swap1\n      pop\n      jump\t// out\n        /* \"@openzeppelin/contracts/access/Ownable.sol\":1831:1932  function renounceOwnership() public virtual onlyOwner {... */\n    tag_68:\n        /* \"@openzeppelin/contracts/access/Ownable.sol\":1094:1107  _checkOwner() */\n      tag_153\n        /* \"@openzeppelin/contracts/access/Ownable.sol\":1094:1105  _checkOwner */\n      tag_147\n        /* \"@openzeppelin/contracts/access/Ownable.sol\":1094:1107  _checkOwner() */\n      jump\t// in\n    tag_153:\n        /* \"@openzeppelin/contracts/access/Ownable.sol\":1895:1925  _transferOwnership(address(0)) */\n      tag_155\n        /* \"@openzeppelin/contracts/access/Ownable.sol\":1922:1923  0 */\n      0x00\n        /* \"@openzeppelin/contracts/access/Ownable.sol\":1895:1913  _transferOwnership */\n      tag_156\n        /* \"@openzeppelin/contracts/access/Ownable.sol\":1895:1925  _transferOwnership(address(0)) */\n      jump\t// in\n    tag_155:\n        /* \"@openzeppelin/contracts/access/Ownable.sol\":1831:1932  function renounceOwnership() public virtual onlyOwner {... */\n      jump\t// out\n        /* \"contracts/ERC20K.sol\":662:700  AggregatorV3Interface public priceFeed */\n    tag_70:\n      0x09\n      0x00\n      swap1\n      sload\n      swap1\n      0x0100\n      exp\n      swap1\n      div\n      0xffffffffffffffffffffffffffffffffffffffff\n      and\n      dup2\n      jump\t// out\n        /* \"@openzeppelin/contracts/access/Ownable.sol\":1201:1286  function owner() public view virtual returns (address) {... */\n    tag_74:\n        /* \"@openzeppelin/contracts/access/Ownable.sol\":1247:1254  address */\n      0x00\n        /* \"@openzeppelin/contracts/access/Ownable.sol\":1273:1279  _owner */\n      0x05\n      0x00\n      swap1\n      sload\n      swap1\n      0x0100\n      exp\n      swap1\n      div\n      0xffffffffffffffffffffffffffffffffffffffff\n      and\n        /* \"@openzeppelin/contracts/access/Ownable.sol\":1266:1279  return _owner */\n      swap1\n      pop\n        /* \"@openzeppelin/contracts/access/Ownable.sol\":1201:1286  function owner() public view virtual returns (address) {... */\n      swap1\n      jump\t// out\n        /* \"contracts/ERC20K.sol\":2519:2866  function getLatestPrice() public view returns (int256) {... */\n    tag_78:\n        /* \"contracts/ERC20K.sol\":2566:2572  int256 */\n      0x00\n        /* \"contracts/ERC20K.sol\":2598:2612  uint80 roundID */\n      dup1\n        /* \"contracts/ERC20K.sol\":2626:2638  int256 price */\n      0x00\n        /* \"contracts/ERC20K.sol\":2652:2669  uint256 startedAt */\n      dup1\n        /* \"contracts/ERC20K.sol\":2683:2700  uint256 timeStamp */\n      0x00\n        /* \"contracts/ERC20K.sol\":2714:2736  uint80 answeredInRound */\n      dup1\n        /* \"contracts/ERC20K.sol\":2749:2758  priceFeed */\n      0x09\n      0x00\n      swap1\n      sload\n      swap1\n      0x0100\n      exp\n      swap1\n      div\n      0xffffffffffffffffffffffffffffffffffffffff\n      and\n        /* \"contracts/ERC20K.sol\":2749:2774  priceFeed.latestRoundData */\n      0xffffffffffffffffffffffffffffffffffffffff\n      and\n      0xfeaf968c\n        /* \"contracts/ERC20K.sol\":2749:2776  priceFeed.latestRoundData() */\n      mload(0x40)\n      dup2\n      0xffffffff\n      and\n      0xe0\n      shl\n      dup2\n      mstore\n      0x04\n      add\n      0xa0\n      mload(0x40)\n      dup1\n      dup4\n      sub\n      dup2\n      dup7\n      gas\n      staticcall\n      iszero\n      dup1\n      iszero\n      tag_160\n      jumpi\n      returndatasize\n      0x00\n      dup1\n      returndatacopy\n      revert(0x00, returndatasize)\n    tag_160:\n      pop\n      pop\n      pop\n      pop\n      mload(0x40)\n      returndatasize\n      not(0x1f)\n      0x1f\n      dup3\n      add\n      and\n      dup3\n      add\n      dup1\n      0x40\n      mstore\n      pop\n      dup2\n      add\n      swap1\n      tag_161\n      swap2\n      swap1\n      tag_162\n      jump\t// in\n    tag_161:\n        /* \"contracts/ERC20K.sol\":2584:2776  (... */\n      swap5\n      pop\n      swap5\n      pop\n      swap5\n      pop\n      swap5\n      pop\n      swap5\n      pop\n        /* \"contracts/ERC20K.sol\":2856:2859  1e8 */\n      0x05f5e100\n        /* \"contracts/ERC20K.sol\":2848:2853  price */\n      dup5\n        /* \"contracts/ERC20K.sol\":2848:2859  price / 1e8 */\n      tag_163\n      swap2\n      swap1\n      tag_164\n      jump\t// in\n    tag_163:\n        /* \"contracts/ERC20K.sol\":2841:2859  return price / 1e8 */\n      swap6\n      pop\n      pop\n      pop\n      pop\n      pop\n      pop\n        /* \"contracts/ERC20K.sol\":2519:2866  function getLatestPrice() public view returns (int256) {... */\n      swap1\n      jump\t// out\n        /* \"@openzeppelin/contracts/token/ERC20/ERC20.sol\":2365:2467  function symbol() public view virtual override returns (string memory) {... */\n    tag_82:\n        /* \"@openzeppelin/contracts/token/ERC20/ERC20.sol\":2421:2434  string memory */\n      0x60\n        /* \"@openzeppelin/contracts/token/ERC20/ERC20.sol\":2453:2460  _symbol */\n      0x04\n        /* \"@openzeppelin/contracts/token/ERC20/ERC20.sol\":2446:2460  return _symbol */\n      dup1\n      sload\n      tag_166\n      swap1\n      tag_115\n      jump\t// in\n    tag_166:\n      dup1\n      0x1f\n      add\n      0x20\n      dup1\n      swap2\n      div\n      mul\n      0x20\n      add\n      mload(0x40)\n      swap1\n      dup2\n      add\n      0x40\n      mstore\n      dup1\n      swap3\n      swap2\n      swap1\n      dup2\n      dup2\n      mstore\n      0x20\n      add\n      dup3\n      dup1\n      sload\n      tag_167\n      swap1\n      tag_115\n      jump\t// in\n    tag_167:\n      dup1\n      iszero\n      tag_168\n      jumpi\n      dup1\n      0x1f\n      lt\n      tag_169\n      jumpi\n      0x0100\n      dup1\n      dup4\n      sload\n      div\n      mul\n      dup4\n      mstore\n      swap2\n      0x20\n      add\n      swap2\n      jump(tag_168)\n    tag_169:\n      dup3\n      add\n      swap2\n      swap1\n      0x00\n      mstore\n      keccak256(0x00, 0x20)\n      swap1\n    tag_170:\n      dup2\n      sload\n      dup2\n      mstore\n      swap1\n      0x01\n      add\n      swap1\n      0x20\n      add\n      dup1\n      dup4\n      gt\n      tag_170\n      jumpi\n      dup3\n      swap1\n      sub\n      0x1f\n      and\n      dup3\n      add\n      swap2\n    tag_168:\n      pop\n      pop\n      pop\n      pop\n      pop\n      swap1\n      pop\n        /* \"@openzeppelin/contracts/token/ERC20/ERC20.sol\":2365:2467  function symbol() public view virtual override returns (string memory) {... */\n      swap1\n      jump\t// out\n        /* \"@openzeppelin/contracts/token/ERC20/ERC20.sol\":6592:7019  function decreaseAllowance(address spender, uint256 subtractedValue) public virtual returns (bool) {... */\n    tag_86:\n        /* \"@openzeppelin/contracts/token/ERC20/ERC20.sol\":6685:6689  bool */\n      0x00\n        /* \"@openzeppelin/contracts/token/ERC20/ERC20.sol\":6701:6714  address owner */\n      dup1\n        /* \"@openzeppelin/contracts/token/ERC20/ERC20.sol\":6717:6729  _msgSender() */\n      tag_172\n        /* \"@openzeppelin/contracts/token/ERC20/ERC20.sol\":6717:6727  _msgSender */\n      tag_122\n        /* \"@openzeppelin/contracts/token/ERC20/ERC20.sol\":6717:6729  _msgSender() */\n      jump\t// in\n    tag_172:\n        /* \"@openzeppelin/contracts/token/ERC20/ERC20.sol\":6701:6729  address owner = _msgSender() */\n      swap1\n      pop\n        /* \"@openzeppelin/contracts/token/ERC20/ERC20.sol\":6739:6763  uint256 currentAllowance */\n      0x00\n        /* \"@openzeppelin/contracts/token/ERC20/ERC20.sol\":6766:6791  allowance(owner, spender) */\n      tag_173\n        /* \"@openzeppelin/contracts/token/ERC20/ERC20.sol\":6776:6781  owner */\n      dup3\n        /* \"@openzeppelin/contracts/token/ERC20/ERC20.sol\":6783:6790  spender */\n      dup7\n        /* \"@openzeppelin/contracts/token/ERC20/ERC20.sol\":6766:6775  allowance */\n      tag_98\n        /* \"@openzeppelin/contracts/token/ERC20/ERC20.sol\":6766:6791  allowance(owner, spender) */\n      jump\t// in\n    tag_173:\n        /* \"@openzeppelin/contracts/token/ERC20/ERC20.sol\":6739:6791  uint256 currentAllowance = allowance(owner, spender) */\n      swap1\n      pop\n        /* \"@openzeppelin/contracts/token/ERC20/ERC20.sol\":6829:6844  subtractedValue */\n      dup4\n        /* \"@openzeppelin/contracts/token/ERC20/ERC20.sol\":6809:6825  currentAllowance */\n      dup2\n        /* \"@openzeppelin/contracts/token/ERC20/ERC20.sol\":6809:6844  currentAllowance >= subtractedValue */\n      lt\n      iszero\n        /* \"@openzeppelin/contracts/token/ERC20/ERC20.sol\":6801:6886  require(currentAllowance >= subtractedValue, \"ERC20: decreased allowance below zero\") */\n      tag_174\n      jumpi\n      mload(0x40)\n      0x08c379a000000000000000000000000000000000000000000000000000000000\n      dup2\n      mstore\n      0x04\n      add\n      tag_175\n      swap1\n      tag_176\n      jump\t// in\n    tag_175:\n      mload(0x40)\n      dup1\n      swap2\n      sub\n      swap1\n      revert\n    tag_174:\n        /* \"@openzeppelin/contracts/token/ERC20/ERC20.sol\":6920:6980  _approve(owner, spender, currentAllowance - subtractedValue) */\n      tag_177\n        /* \"@openzeppelin/contracts/token/ERC20/ERC20.sol\":6929:6934  owner */\n      dup3\n        /* \"@openzeppelin/contracts/token/ERC20/ERC20.sol\":6936:6943  spender */\n      dup7\n        /* \"@openzeppelin/contracts/token/ERC20/ERC20.sol\":6964:6979  subtractedValue */\n      dup7\n        /* \"@openzeppelin/contracts/token/ERC20/ERC20.sol\":6945:6961  currentAllowance */\n      dup5\n        /* \"@openzeppelin/contracts/token/ERC20/ERC20.sol\":6945:6979  currentAllowance - subtractedValue */\n      sub\n        /* \"@openzeppelin/contracts/token/ERC20/ERC20.sol\":6920:6928  _approve */\n      tag_124\n        /* \"@openzeppelin/contracts/token/ERC20/ERC20.sol\":6920:6980  _approve(owner, spender, currentAllowance - subtractedValue) */\n      jump\t// in\n    tag_177:\n        /* \"@openzeppelin/contracts/token/ERC20/ERC20.sol\":7008:7012  true */\n      0x01\n        /* \"@openzeppelin/contracts/token/ERC20/ERC20.sol\":7001:7012  return true */\n      swap3\n      pop\n      pop\n      pop\n        /* \"@openzeppelin/contracts/token/ERC20/ERC20.sol\":6592:7019  function decreaseAllowance(address spender, uint256 subtractedValue) public virtual returns (bool) {... */\n      swap3\n      swap2\n      pop\n      pop\n      jump\t// out\n        /* \"@openzeppelin/contracts/token/ERC20/ERC20.sol\":3727:3916  function transfer(address to, uint256 amount) public virtual override returns (bool) {... */\n    tag_90:\n        /* \"@openzeppelin/contracts/token/ERC20/ERC20.sol\":3806:3810  bool */\n      0x00\n        /* \"@openzeppelin/contracts/token/ERC20/ERC20.sol\":3822:3835  address owner */\n      dup1\n        /* \"@openzeppelin/contracts/token/ERC20/ERC20.sol\":3838:3850  _msgSender() */\n      tag_179\n        /* \"@openzeppelin/contracts/token/ERC20/ERC20.sol\":3838:3848  _msgSender */\n      tag_122\n        /* \"@openzeppelin/contracts/token/ERC20/ERC20.sol\":3838:3850  _msgSender() */\n      jump\t// in\n    tag_179:\n        /* \"@openzeppelin/contracts/token/ERC20/ERC20.sol\":3822:3850  address owner = _msgSender() */\n      swap1\n      pop\n        /* \"@openzeppelin/contracts/token/ERC20/ERC20.sol\":3860:3888  _transfer(owner, to, amount) */\n      tag_180\n        /* \"@openzeppelin/contracts/token/ERC20/ERC20.sol\":3870:3875  owner */\n      dup2\n        /* \"@openzeppelin/contracts/token/ERC20/ERC20.sol\":3877:3879  to */\n      dup6\n        /* \"@openzeppelin/contracts/token/ERC20/ERC20.sol\":3881:3887  amount */\n      dup6\n        /* \"@openzeppelin/contracts/token/ERC20/ERC20.sol\":3860:3869  _transfer */\n      tag_137\n        /* \"@openzeppelin/contracts/token/ERC20/ERC20.sol\":3860:3888  _transfer(owner, to, amount) */\n      jump\t// in\n    tag_180:\n        /* \"@openzeppelin/contracts/token/ERC20/ERC20.sol\":3905:3909  true */\n      0x01\n        /* \"@openzeppelin/contracts/token/ERC20/ERC20.sol\":3898:3909  return true */\n      swap2\n      pop\n      pop\n        /* \"@openzeppelin/contracts/token/ERC20/ERC20.sol\":3727:3916  function transfer(address to, uint256 amount) public virtual override returns (bool) {... */\n      swap3\n      swap2\n      pop\n      pop\n      jump\t// out\n        /* \"contracts/ERC20K.sol\":2370:2491  function transfer(address from, address to, uint256 amount) public onlyOwner {... */\n    tag_94:\n        /* \"@openzeppelin/contracts/access/Ownable.sol\":1094:1107  _checkOwner() */\n      tag_182\n        /* \"@openzeppelin/contracts/access/Ownable.sol\":1094:1105  _checkOwner */\n      tag_147\n        /* \"@openzeppelin/contracts/access/Ownable.sol\":1094:1107  _checkOwner() */\n      jump\t// in\n    tag_182:\n        /* \"contracts/ERC20K.sol\":2457:2484  _transfer(from, to, amount) */\n      tag_184\n        /* \"contracts/ERC20K.sol\":2467:2471  from */\n      dup4\n        /* \"contracts/ERC20K.sol\":2473:2475  to */\n      dup4\n        /* \"contracts/ERC20K.sol\":2477:2483  amount */\n      dup4\n        /* \"contracts/ERC20K.sol\":2457:2466  _transfer */\n      tag_137\n        /* \"contracts/ERC20K.sol\":2457:2484  _transfer(from, to, amount) */\n      jump\t// in\n    tag_184:\n        /* \"contracts/ERC20K.sol\":2370:2491  function transfer(address from, address to, uint256 amount) public onlyOwner {... */\n      pop\n      pop\n      pop\n      jump\t// out\n        /* \"@openzeppelin/contracts/token/ERC20/ERC20.sol\":3974:4123  function allowance(address owner, address spender) public view virtual override returns (uint256) {... */\n    tag_98:\n        /* \"@openzeppelin/contracts/token/ERC20/ERC20.sol\":4063:4070  uint256 */\n      0x00\n        /* \"@openzeppelin/contracts/token/ERC20/ERC20.sol\":4089:4100  _allowances */\n      0x01\n        /* \"@openzeppelin/contracts/token/ERC20/ERC20.sol\":4089:4107  _allowances[owner] */\n      0x00\n        /* \"@openzeppelin/contracts/token/ERC20/ERC20.sol\":4101:4106  owner */\n      dup5\n        /* \"@openzeppelin/contracts/token/ERC20/ERC20.sol\":4089:4107  _allowances[owner] */\n      0xffffffffffffffffffffffffffffffffffffffff\n      and\n      0xffffffffffffffffffffffffffffffffffffffff\n      and\n      dup2\n      mstore\n      0x20\n      add\n      swap1\n      dup2\n      mstore\n      0x20\n      add\n      0x00\n      keccak256\n        /* \"@openzeppelin/contracts/token/ERC20/ERC20.sol\":4089:4116  _allowances[owner][spender] */\n      0x00\n        /* \"@openzeppelin/contracts/token/ERC20/ERC20.sol\":4108:4115  spender */\n      dup4\n        /* \"@openzeppelin/contracts/token/ERC20/ERC20.sol\":4089:4116  _allowances[owner][spender] */\n      0xffffffffffffffffffffffffffffffffffffffff\n      and\n      0xffffffffffffffffffffffffffffffffffffffff\n      and\n      dup2\n      mstore\n      0x20\n      add\n      swap1\n      dup2\n      mstore\n      0x20\n      add\n      0x00\n      keccak256\n      sload\n        /* \"@openzeppelin/contracts/token/ERC20/ERC20.sol\":4082:4116  return _allowances[owner][spender] */\n      swap1\n      pop\n        /* \"@openzeppelin/contracts/token/ERC20/ERC20.sol\":3974:4123  function allowance(address owner, address spender) public view virtual override returns (uint256) {... */\n      swap3\n      swap2\n      pop\n      pop\n      jump\t// out\n        /* \"contracts/ERC20K.sol\":2872:3197  function requestRandomWords() external onlyOwner {... */\n    tag_101:\n        /* \"@openzeppelin/contracts/access/Ownable.sol\":1094:1107  _checkOwner() */\n      tag_187\n        /* \"@openzeppelin/contracts/access/Ownable.sol\":1094:1105  _checkOwner */\n      tag_147\n        /* \"@openzeppelin/contracts/access/Ownable.sol\":1094:1107  _checkOwner() */\n      jump\t// in\n    tag_187:\n        /* \"contracts/ERC20K.sol\":3007:3018  COORDINATOR */\n      immutable(\"0x0ace5cd98f2533323fba8ba50b959372b29670c06ed74e106fbe42d8310eea29\")\n        /* \"contracts/ERC20K.sol\":3007:3037  COORDINATOR.requestRandomWords */\n      0xffffffffffffffffffffffffffffffffffffffff\n      and\n      0x5d3b1d30\n        /* \"contracts/ERC20K.sol\":3051:3060  s_keyHash */\n      immutable(\"0xea2be7462ba029b652aff7f133fb5a060c54e0e185c3f490d38499f05e184c65\")\n        /* \"contracts/ERC20K.sol\":3074:3090  s_subscriptionId */\n      immutable(\"0x91aca35d2323f1aee5ba294cf6472d107c931b44a833a4780d457097227aec52\")\n        /* \"contracts/ERC20K.sol\":1302:1303  3 */\n      0x03\n        /* \"contracts/ERC20K.sol\":1195:1201  100000 */\n      0x0186a0\n        /* \"contracts/ERC20K.sol\":1457:1458  2 */\n      0x02\n        /* \"contracts/ERC20K.sol\":3007:3190  COORDINATOR.requestRandomWords(... */\n      mload(0x40)\n      dup7\n      0xffffffff\n      and\n      0xe0\n      shl\n      dup2\n      mstore\n      0x04\n      add\n      tag_189\n      swap6\n      swap5\n      swap4\n      swap3\n      swap2\n      swap1\n      tag_190\n      jump\t// in\n    tag_189:\n      0x20\n      mload(0x40)\n      dup1\n      dup4\n      sub\n      dup2\n      0x00\n      dup8\n      gas\n      call\n      iszero\n      dup1\n      iszero\n      tag_192\n      jumpi\n      returndatasize\n      0x00\n      dup1\n      returndatacopy\n      revert(0x00, returndatasize)\n    tag_192:\n      pop\n      pop\n      pop\n      pop\n      mload(0x40)\n      returndatasize\n      not(0x1f)\n      0x1f\n      dup3\n      add\n      and\n      dup3\n      add\n      dup1\n      0x40\n      mstore\n      pop\n      dup2\n      add\n      swap1\n      tag_193\n      swap2\n      swap1\n      tag_194\n      jump\t// in\n    tag_193:\n        /* \"contracts/ERC20K.sol\":2993:3004  s_requestId */\n      0x0b\n        /* \"contracts/ERC20K.sol\":2993:3190  s_requestId = COORDINATOR.requestRandomWords(... */\n      dup2\n      swap1\n      sstore\n      pop\n        /* \"contracts/ERC20K.sol\":2872:3197  function requestRandomWords() external onlyOwner {... */\n      jump\t// out\n        /* \"contracts/ERC20K.sol\":1104:1130  uint256 public s_requestId */\n    tag_103:\n      sload(0x0b)\n      dup2\n      jump\t// out\n        /* \"@openzeppelin/contracts/access/Ownable.sol\":2081:2279  function transferOwnership(address newOwner) public virtual onlyOwner {... */\n    tag_107:\n        /* \"@openzeppelin/contracts/access/Ownable.sol\":1094:1107  _checkOwner() */\n      tag_196\n        /* \"@openzeppelin/contracts/access/Ownable.sol\":1094:1105  _checkOwner */\n      tag_147\n        /* \"@openzeppelin/contracts/access/Ownable.sol\":1094:1107  _checkOwner() */\n      jump\t// in\n    tag_196:\n        /* \"@openzeppelin/contracts/access/Ownable.sol\":2189:2190  0 */\n      0x00\n        /* \"@openzeppelin/contracts/access/Ownable.sol\":2169:2191  newOwner != address(0) */\n      0xffffffffffffffffffffffffffffffffffffffff\n      and\n        /* \"@openzeppelin/contracts/access/Ownable.sol\":2169:2177  newOwner */\n      dup2\n        /* \"@openzeppelin/contracts/access/Ownable.sol\":2169:2191  newOwner != address(0) */\n      0xffffffffffffffffffffffffffffffffffffffff\n      and\n      sub\n        /* \"@openzeppelin/contracts/access/Ownable.sol\":2161:2234  require(newOwner != address(0), \"Ownable: new owner is the zero address\") */\n      tag_198\n      jumpi\n      mload(0x40)\n      0x08c379a000000000000000000000000000000000000000000000000000000000\n      dup2\n      mstore\n      0x04\n      add\n      tag_199\n      swap1\n      tag_200\n      jump\t// in\n    tag_199:\n      mload(0x40)\n      dup1\n      swap2\n      sub\n      swap1\n      revert\n    tag_198:\n        /* \"@openzeppelin/contracts/access/Ownable.sol\":2244:2272  _transferOwnership(newOwner) */\n      tag_201\n        /* \"@openzeppelin/contracts/access/Ownable.sol\":2263:2271  newOwner */\n      dup2\n        /* \"@openzeppelin/contracts/access/Ownable.sol\":2244:2262  _transferOwnership */\n      tag_156\n        /* \"@openzeppelin/contracts/access/Ownable.sol\":2244:2272  _transferOwnership(newOwner) */\n      jump\t// in\n    tag_201:\n        /* \"@openzeppelin/contracts/access/Ownable.sol\":2081:2279  function transferOwnership(address newOwner) public virtual onlyOwner {... */\n      pop\n      jump\t// out\n        /* \"contracts/ERC20K.sol\":1068:1098  uint256[] public s_randomWords */\n    tag_111:\n      0x0a\n      dup2\n      dup2\n      sload\n      dup2\n      lt\n      tag_202\n      jumpi\n      0x00\n      dup1\n      revert\n    tag_202:\n      swap1\n      0x00\n      mstore\n      keccak256(0x00, 0x20)\n      add\n      0x00\n      swap2\n      pop\n      swap1\n      pop\n      sload\n      dup2\n      jump\t// out\n        /* \"@openzeppelin/contracts/utils/Context.sol\":640:736  function _msgSender() internal view virtual returns (address) {... */\n    tag_122:\n        /* \"@openzeppelin/contracts/utils/Context.sol\":693:700  address */\n      0x00\n        /* \"@openzeppelin/contracts/utils/Context.sol\":719:729  msg.sender */\n      caller\n        /* \"@openzeppelin/contracts/utils/Context.sol\":712:729  return msg.sender */\n      swap1\n      pop\n        /* \"@openzeppelin/contracts/utils/Context.sol\":640:736  function _msgSender() internal view virtual returns (address) {... */\n      swap1\n      jump\t// out\n        /* \"@openzeppelin/contracts/token/ERC20/ERC20.sol\":10504:10874  function _approve(... */\n    tag_124:\n        /* \"@openzeppelin/contracts/token/ERC20/ERC20.sol\":10652:10653  0 */\n      0x00\n        /* \"@openzeppelin/contracts/token/ERC20/ERC20.sol\":10635:10654  owner != address(0) */\n      0xffffffffffffffffffffffffffffffffffffffff\n      and\n        /* \"@openzeppelin/contracts/token/ERC20/ERC20.sol\":10635:10640  owner */\n      dup4\n        /* \"@openzeppelin/contracts/token/ERC20/ERC20.sol\":10635:10654  owner != address(0) */\n      0xffffffffffffffffffffffffffffffffffffffff\n      and\n      sub\n        /* \"@openzeppelin/contracts/token/ERC20/ERC20.sol\":10627:10695  require(owner != address(0), \"ERC20: approve from the zero address\") */\n      tag_206\n      jumpi\n      mload(0x40)\n      0x08c379a000000000000000000000000000000000000000000000000000000000\n      dup2\n      mstore\n      0x04\n      add\n      tag_207\n      swap1\n      tag_208\n      jump\t// in\n    tag_207:\n      mload(0x40)\n      dup1\n      swap2\n      sub\n      swap1\n      revert\n    tag_206:\n        /* \"@openzeppelin/contracts/token/ERC20/ERC20.sol\":10732:10733  0 */\n      0x00\n        /* \"@openzeppelin/contracts/token/ERC20/ERC20.sol\":10713:10734  spender != address(0) */\n      0xffffffffffffffffffffffffffffffffffffffff\n      and\n        /* \"@openzeppelin/contracts/token/ERC20/ERC20.sol\":10713:10720  spender */\n      dup3\n        /* \"@openzeppelin/contracts/token/ERC20/ERC20.sol\":10713:10734  spender != address(0) */\n      0xffffffffffffffffffffffffffffffffffffffff\n      and\n      sub\n        /* \"@openzeppelin/contracts/token/ERC20/ERC20.sol\":10705:10773  require(spender != address(0), \"ERC20: approve to the zero address\") */\n      tag_209\n      jumpi\n      mload(0x40)\n      0x08c379a000000000000000000000000000000000000000000000000000000000\n      dup2\n      mstore\n      0x04\n      add\n      tag_210\n      swap1\n      tag_211\n      jump\t// in\n    tag_210:\n      mload(0x40)\n      dup1\n      swap2\n      sub\n      swap1\n      revert\n    tag_209:\n        /* \"@openzeppelin/contracts/token/ERC20/ERC20.sol\":10814:10820  amount */\n      dup1\n        /* \"@openzeppelin/contracts/token/ERC20/ERC20.sol\":10784:10795  _allowances */\n      0x01\n        /* \"@openzeppelin/contracts/token/ERC20/ERC20.sol\":10784:10802  _allowances[owner] */\n      0x00\n        /* \"@openzeppelin/contracts/token/ERC20/ERC20.sol\":10796:10801  owner */\n      dup6\n        /* \"@openzeppelin/contracts/token/ERC20/ERC20.sol\":10784:10802  _allowances[owner] */\n      0xffffffffffffffffffffffffffffffffffffffff\n      and\n      0xffffffffffffffffffffffffffffffffffffffff\n      and\n      dup2\n      mstore\n      0x20\n      add\n      swap1\n      dup2\n      mstore\n      0x20\n      add\n      0x00\n      keccak256\n        /* \"@openzeppelin/contracts/token/ERC20/ERC20.sol\":10784:10811  _allowances[owner][spender] */\n      0x00\n        /* \"@openzeppelin/contracts/token/ERC20/ERC20.sol\":10803:10810  spender */\n      dup5\n        /* \"@openzeppelin/contracts/token/ERC20/ERC20.sol\":10784:10811  _allowances[owner][spender] */\n      0xffffffffffffffffffffffffffffffffffffffff\n      and\n      0xffffffffffffffffffffffffffffffffffffffff\n      and\n      dup2\n      mstore\n      0x20\n      add\n      swap1\n      dup2\n      mstore\n      0x20\n      add\n      0x00\n      keccak256\n        /* \"@openzeppelin/contracts/token/ERC20/ERC20.sol\":10784:10820  _allowances[owner][spender] = amount */\n      dup2\n      swap1\n      sstore\n      pop\n        /* \"@openzeppelin/contracts/token/ERC20/ERC20.sol\":10851:10858  spender */\n      dup2\n        /* \"@openzeppelin/contracts/token/ERC20/ERC20.sol\":10835:10867  Approval(owner, spender, amount) */\n      0xffffffffffffffffffffffffffffffffffffffff\n      and\n        /* \"@openzeppelin/contracts/token/ERC20/ERC20.sol\":10844:10849  owner */\n      dup4\n        /* \"@openzeppelin/contracts/token/ERC20/ERC20.sol\":10835:10867  Approval(owner, spender, amount) */\n      0xffffffffffffffffffffffffffffffffffffffff\n      and\n      0x8c5be1e5ebec7d5bd14f71427d1e84f3dd0314c0f7b2291e5b200ac8c7c3b925\n        /* \"@openzeppelin/contracts/token/ERC20/ERC20.sol\":10860:10866  amount */\n      dup4\n        /* \"@openzeppelin/contracts/token/ERC20/ERC20.sol\":10835:10867  Approval(owner, spender, amount) */\n      mload(0x40)\n      tag_212\n      swap2\n      swap1\n      tag_41\n      jump\t// in\n    tag_212:\n      mload(0x40)\n      dup1\n      swap2\n      sub\n      swap1\n      log3\n        /* \"@openzeppelin/contracts/token/ERC20/ERC20.sol\":10504:10874  function _approve(... */\n      pop\n      pop\n      pop\n      jump\t// out\n        /* \"contracts/ERC20K.sol\":3203:3411  function fulfillRandomWords(uint256 requestId, uint256[] memory randomWords)... */\n    tag_131:\n        /* \"contracts/ERC20K.sol\":3344:3355  randomWords */\n      dup1\n        /* \"contracts/ERC20K.sol\":3328:3341  s_randomWords */\n      0x0a\n        /* \"contracts/ERC20K.sol\":3328:3355  s_randomWords = randomWords */\n      swap1\n      dup1\n      mload\n      swap1\n      0x20\n      add\n      swap1\n      tag_214\n      swap3\n      swap2\n      swap1\n      tag_215\n      jump\t// in\n    tag_214:\n      pop\n        /* \"contracts/ERC20K.sol\":3203:3411  function fulfillRandomWords(uint256 requestId, uint256[] memory randomWords)... */\n      pop\n      pop\n      jump\t// out\n        /* \"@openzeppelin/contracts/token/ERC20/ERC20.sol\":11155:11596  function _spendAllowance(... */\n    tag_135:\n        /* \"@openzeppelin/contracts/token/ERC20/ERC20.sol\":11285:11309  uint256 currentAllowance */\n      0x00\n        /* \"@openzeppelin/contracts/token/ERC20/ERC20.sol\":11312:11337  allowance(owner, spender) */\n      tag_217\n        /* \"@openzeppelin/contracts/token/ERC20/ERC20.sol\":11322:11327  owner */\n      dup5\n        /* \"@openzeppelin/contracts/token/ERC20/ERC20.sol\":11329:11336  spender */\n      dup5\n        /* \"@openzeppelin/contracts/token/ERC20/ERC20.sol\":11312:11321  allowance */\n      tag_98\n        /* \"@openzeppelin/contracts/token/ERC20/ERC20.sol\":11312:11337  allowance(owner, spender) */\n      jump\t// in\n    tag_217:\n        /* \"@openzeppelin/contracts/token/ERC20/ERC20.sol\":11285:11337  uint256 currentAllowance = allowance(owner, spender) */\n      swap1\n      pop\n        /* \"@openzeppelin/contracts/token/ERC20/ERC20.sol\":11371:11388  type(uint256).max */\n      0xffffffffffffffffffffffffffffffffffffffffffffffffffffffffffffffff\n        /* \"@openzeppelin/contracts/token/ERC20/ERC20.sol\":11351:11367  currentAllowance */\n      dup2\n        /* \"@openzeppelin/contracts/token/ERC20/ERC20.sol\":11351:11388  currentAllowance != type(uint256).max */\n      eq\n        /* \"@openzeppelin/contracts/token/ERC20/ERC20.sol\":11347:11590  if (currentAllowance != type(uint256).max) {... */\n      tag_218\n      jumpi\n        /* \"@openzeppelin/contracts/token/ERC20/ERC20.sol\":11432:11438  amount */\n      dup2\n        /* \"@openzeppelin/contracts/token/ERC20/ERC20.sol\":11412:11428  currentAllowance */\n      dup2\n        /* \"@openzeppelin/contracts/token/ERC20/ERC20.sol\":11412:11438  currentAllowance >= amount */\n      lt\n      iszero\n        /* \"@openzeppelin/contracts/token/ERC20/ERC20.sol\":11404:11472  require(currentAllowance >= amount, \"ERC20: insufficient allowance\") */\n      tag_219\n      jumpi\n      mload(0x40)\n      0x08c379a000000000000000000000000000000000000000000000000000000000\n      dup2\n      mstore\n      0x04\n      add\n      tag_220\n      swap1\n      tag_221\n      jump\t// in\n    tag_220:\n      mload(0x40)\n      dup1\n      swap2\n      sub\n      swap1\n      revert\n    tag_219:\n        /* \"@openzeppelin/contracts/token/ERC20/ERC20.sol\":11514:11565  _approve(owner, spender, currentAllowance - amount) */\n      tag_222\n        /* \"@openzeppelin/contracts/token/ERC20/ERC20.sol\":11523:11528  owner */\n      dup5\n        /* \"@openzeppelin/contracts/token/ERC20/ERC20.sol\":11530:11537  spender */\n      dup5\n        /* \"@openzeppelin/contracts/token/ERC20/ERC20.sol\":11558:11564  amount */\n      dup5\n        /* \"@openzeppelin/contracts/token/ERC20/ERC20.sol\":11539:11555  currentAllowance */\n      dup5\n        /* \"@openzeppelin/contracts/token/ERC20/ERC20.sol\":11539:11564  currentAllowance - amount */\n      sub\n        /* \"@openzeppelin/contracts/token/ERC20/ERC20.sol\":11514:11522  _approve */\n      tag_124\n        /* \"@openzeppelin/contracts/token/ERC20/ERC20.sol\":11514:11565  _approve(owner, spender, currentAllowance - amount) */\n      jump\t// in\n    tag_222:\n        /* \"@openzeppelin/contracts/token/ERC20/ERC20.sol\":11347:11590  if (currentAllowance != type(uint256).max) {... */\n    tag_218:\n        /* \"@openzeppelin/contracts/token/ERC20/ERC20.sol\":11275:11596  {... */\n      pop\n        /* \"@openzeppelin/contracts/token/ERC20/ERC20.sol\":11155:11596  function _spendAllowance(... */\n      pop\n      pop\n      pop\n      jump\t// out\n        /* \"@openzeppelin/contracts/token/ERC20/ERC20.sol\":7473:8291  function _transfer(... */\n    tag_137:\n        /* \"@openzeppelin/contracts/token/ERC20/ERC20.sol\":7615:7616  0 */\n      0x00\n        /* \"@openzeppelin/contracts/token/ERC20/ERC20.sol\":7599:7617  from != address(0) */\n      0xffffffffffffffffffffffffffffffffffffffff\n      and\n        /* \"@openzeppelin/contracts/token/ERC20/ERC20.sol\":7599:7603  from */\n      dup4\n        /* \"@openzeppelin/contracts/token/ERC20/ERC20.sol\":7599:7617  from != address(0) */\n      0xffffffffffffffffffffffffffffffffffffffff\n      and\n      sub\n        /* \"@openzeppelin/contracts/token/ERC20/ERC20.sol\":7591:7659  require(from != address(0), \"ERC20: transfer from the zero address\") */\n      tag_224\n      jumpi\n      mload(0x40)\n      0x08c379a000000000000000000000000000000000000000000000000000000000\n      dup2\n      mstore\n      0x04\n      add\n      tag_225\n      swap1\n      tag_226\n      jump\t// in\n    tag_225:\n      mload(0x40)\n      dup1\n      swap2\n      sub\n      swap1\n      revert\n    tag_224:\n        /* \"@openzeppelin/contracts/token/ERC20/ERC20.sol\":7691:7692  0 */\n      0x00\n        /* \"@openzeppelin/contracts/token/ERC20/ERC20.sol\":7677:7693  to != address(0) */\n      0xffffffffffffffffffffffffffffffffffffffff\n      and\n        /* \"@openzeppelin/contracts/token/ERC20/ERC20.sol\":7677:7679  to */\n      dup3\n        /* \"@openzeppelin/contracts/token/ERC20/ERC20.sol\":7677:7693  to != address(0) */\n      0xffffffffffffffffffffffffffffffffffffffff\n      and\n      sub\n        /* \"@openzeppelin/contracts/token/ERC20/ERC20.sol\":7669:7733  require(to != address(0), \"ERC20: transfer to the zero address\") */\n      tag_227\n      jumpi\n      mload(0x40)\n      0x08c379a000000000000000000000000000000000000000000000000000000000\n      dup2\n      mstore\n      0x04\n      add\n      tag_228\n      swap1\n      tag_229\n      jump\t// in\n    tag_228:\n      mload(0x40)\n      dup1\n      swap2\n      sub\n      swap1\n      revert\n    tag_227:\n        /* \"@openzeppelin/contracts/token/ERC20/ERC20.sol\":7744:7782  _beforeTokenTransfer(from, to, amount) */\n      tag_230\n        /* \"@openzeppelin/contracts/token/ERC20/ERC20.sol\":7765:7769  from */\n      dup4\n        /* \"@openzeppelin/contracts/token/ERC20/ERC20.sol\":7771:7773  to */\n      dup4\n        /* \"@openzeppelin/contracts/token/ERC20/ERC20.sol\":7775:7781  amount */\n      dup4\n        /* \"@openzeppelin/contracts/token/ERC20/ERC20.sol\":7744:7764  _beforeTokenTransfer */\n      tag_231\n        /* \"@openzeppelin/contracts/token/ERC20/ERC20.sol\":7744:7782  _beforeTokenTransfer(from, to, amount) */\n      jump\t// in\n    tag_230:\n        /* \"@openzeppelin/contracts/token/ERC20/ERC20.sol\":7793:7812  uint256 fromBalance */\n      0x00\n        /* \"@openzeppelin/contracts/token/ERC20/ERC20.sol\":7815:7824  _balances */\n      dup1\n        /* \"@openzeppelin/contracts/token/ERC20/ERC20.sol\":7815:7830  _balances[from] */\n      0x00\n        /* \"@openzeppelin/contracts/token/ERC20/ERC20.sol\":7825:7829  from */\n      dup6\n        /* \"@openzeppelin/contracts/token/ERC20/ERC20.sol\":7815:7830  _balances[from] */\n      0xffffffffffffffffffffffffffffffffffffffff\n      and\n      0xffffffffffffffffffffffffffffffffffffffff\n      and\n      dup2\n      mstore\n      0x20\n      add\n      swap1\n      dup2\n      mstore\n      0x20\n      add\n      0x00\n      keccak256\n      sload\n        /* \"@openzeppelin/contracts/token/ERC20/ERC20.sol\":7793:7830  uint256 fromBalance = _balances[from] */\n      swap1\n      pop\n        /* \"@openzeppelin/contracts/token/ERC20/ERC20.sol\":7863:7869  amount */\n      dup2\n        /* \"@openzeppelin/contracts/token/ERC20/ERC20.sol\":7848:7859  fromBalance */\n      dup2\n        /* \"@openzeppelin/contracts/token/ERC20/ERC20.sol\":7848:7869  fromBalance >= amount */\n      lt\n      iszero\n        /* \"@openzeppelin/contracts/token/ERC20/ERC20.sol\":7840:7912  require(fromBalance >= amount, \"ERC20: transfer amount exceeds balance\") */\n      tag_232\n      jumpi\n      mload(0x40)\n      0x08c379a000000000000000000000000000000000000000000000000000000000\n      dup2\n      mstore\n      0x04\n      add\n      tag_233\n      swap1\n      tag_234\n      jump\t// in\n    tag_233:\n      mload(0x40)\n      dup1\n      swap2\n      sub\n      swap1\n      revert\n    tag_232:\n        /* \"@openzeppelin/contracts/token/ERC20/ERC20.sol\":7978:7984  amount */\n      dup2\n        /* \"@openzeppelin/contracts/token/ERC20/ERC20.sol\":7964:7975  fromBalance */\n      dup2\n        /* \"@openzeppelin/contracts/token/ERC20/ERC20.sol\":7964:7984  fromBalance - amount */\n      sub\n        /* \"@openzeppelin/contracts/token/ERC20/ERC20.sol\":7946:7955  _balances */\n      0x00\n        /* \"@openzeppelin/contracts/token/ERC20/ERC20.sol\":7946:7961  _balances[from] */\n      dup1\n        /* \"@openzeppelin/contracts/token/ERC20/ERC20.sol\":7956:7960  from */\n      dup7\n        /* \"@openzeppelin/contracts/token/ERC20/ERC20.sol\":7946:7961  _balances[from] */\n      0xffffffffffffffffffffffffffffffffffffffff\n      and\n      0xffffffffffffffffffffffffffffffffffffffff\n      and\n      dup2\n      mstore\n      0x20\n      add\n      swap1\n      dup2\n      mstore\n      0x20\n      add\n      0x00\n      keccak256\n        /* \"@openzeppelin/contracts/token/ERC20/ERC20.sol\":7946:7984  _balances[from] = fromBalance - amount */\n      dup2\n      swap1\n      sstore\n      pop\n        /* \"@openzeppelin/contracts/token/ERC20/ERC20.sol\":8178:8184  amount */\n      dup2\n        /* \"@openzeppelin/contracts/token/ERC20/ERC20.sol\":8161:8170  _balances */\n      0x00\n        /* \"@openzeppelin/contracts/token/ERC20/ERC20.sol\":8161:8174  _balances[to] */\n      dup1\n        /* \"@openzeppelin/contracts/token/ERC20/ERC20.sol\":8171:8173  to */\n      dup6\n        /* \"@openzeppelin/contracts/token/ERC20/ERC20.sol\":8161:8174  _balances[to] */\n      0xffffffffffffffffffffffffffffffffffffffff\n      and\n      0xffffffffffffffffffffffffffffffffffffffff\n      and\n      dup2\n      mstore\n      0x20\n      add\n      swap1\n      dup2\n      mstore\n      0x20\n      add\n      0x00\n      keccak256\n      0x00\n        /* \"@openzeppelin/contracts/token/ERC20/ERC20.sol\":8161:8184  _balances[to] += amount */\n      dup3\n      dup3\n      sload\n      add\n      swap3\n      pop\n      pop\n      dup2\n      swap1\n      sstore\n      pop\n        /* \"@openzeppelin/contracts/token/ERC20/ERC20.sol\":8225:8227  to */\n      dup3\n        /* \"@openzeppelin/contracts/token/ERC20/ERC20.sol\":8210:8236  Transfer(from, to, amount) */\n      0xffffffffffffffffffffffffffffffffffffffff\n      and\n        /* \"@openzeppelin/contracts/token/ERC20/ERC20.sol\":8219:8223  from */\n      dup5\n        /* \"@openzeppelin/contracts/token/ERC20/ERC20.sol\":8210:8236  Transfer(from, to, amount) */\n      0xffffffffffffffffffffffffffffffffffffffff\n      and\n      0xddf252ad1be2c89b69c2b068fc378daa952ba7f163c4a11628f55a4df523b3ef\n        /* \"@openzeppelin/contracts/token/ERC20/ERC20.sol\":8229:8235  amount */\n      dup5\n        /* \"@openzeppelin/contracts/token/ERC20/ERC20.sol\":8210:8236  Transfer(from, to, amount) */\n      mload(0x40)\n      tag_235\n      swap2\n      swap1\n      tag_41\n      jump\t// in\n    tag_235:\n      mload(0x40)\n      dup1\n      swap2\n      sub\n      swap1\n      log3\n        /* \"@openzeppelin/contracts/token/ERC20/ERC20.sol\":8247:8284  _afterTokenTransfer(from, to, amount) */\n      tag_236\n        /* \"@openzeppelin/contracts/token/ERC20/ERC20.sol\":8267:8271  from */\n      dup5\n        /* \"@openzeppelin/contracts/token/ERC20/ERC20.sol\":8273:8275  to */\n      dup5\n        /* \"@openzeppelin/contracts/token/ERC20/ERC20.sol\":8277:8283  amount */\n      dup5\n        /* \"@openzeppelin/contracts/token/ERC20/ERC20.sol\":8247:8266  _afterTokenTransfer */\n      tag_237\n        /* \"@openzeppelin/contracts/token/ERC20/ERC20.sol\":8247:8284  _afterTokenTransfer(from, to, amount) */\n      jump\t// in\n    tag_236:\n        /* \"@openzeppelin/contracts/token/ERC20/ERC20.sol\":7581:8291  {... */\n      pop\n        /* \"@openzeppelin/contracts/token/ERC20/ERC20.sol\":7473:8291  function _transfer(... */\n      pop\n      pop\n      pop\n      jump\t// out\n        /* \"@openzeppelin/contracts/access/Ownable.sol\":1359:1489  function _checkOwner() internal view virtual {... */\n    tag_147:\n        /* \"@openzeppelin/contracts/access/Ownable.sol\":1433:1445  _msgSender() */\n      tag_239\n        /* \"@openzeppelin/contracts/access/Ownable.sol\":1433:1443  _msgSender */\n      tag_122\n        /* \"@openzeppelin/contracts/access/Ownable.sol\":1433:1445  _msgSender() */\n      jump\t// in\n    tag_239:\n        /* \"@openzeppelin/contracts/access/Ownable.sol\":1422:1445  owner() == _msgSender() */\n      0xffffffffffffffffffffffffffffffffffffffff\n      and\n        /* \"@openzeppelin/contracts/access/Ownable.sol\":1422:1429  owner() */\n      tag_240\n        /* \"@openzeppelin/contracts/access/Ownable.sol\":1422:1427  owner */\n      tag_74\n        /* \"@openzeppelin/contracts/access/Ownable.sol\":1422:1429  owner() */\n      jump\t// in\n    tag_240:\n        /* \"@openzeppelin/contracts/access/Ownable.sol\":1422:1445  owner() == _msgSender() */\n      0xffffffffffffffffffffffffffffffffffffffff\n      and\n      eq\n        /* \"@openzeppelin/contracts/access/Ownable.sol\":1414:1482  require(owner() == _msgSender(), \"Ownable: caller is not the owner\") */\n      tag_241\n      jumpi\n      mload(0x40)\n      0x08c379a000000000000000000000000000000000000000000000000000000000\n      dup2\n      mstore\n      0x04\n      add\n      tag_242\n      swap1\n      tag_243\n      jump\t// in\n    tag_242:\n      mload(0x40)\n      dup1\n      swap2\n      sub\n      swap1\n      revert\n    tag_241:\n        /* \"@openzeppelin/contracts/access/Ownable.sol\":1359:1489  function _checkOwner() internal view virtual {... */\n      jump\t// out\n        /* \"@openzeppelin/contracts/token/ERC20/ERC20.sol\":8567:9102  function _mint(address account, uint256 amount) internal virtual {... */\n    tag_150:\n        /* \"@openzeppelin/contracts/token/ERC20/ERC20.sol\":8669:8670  0 */\n      0x00\n        /* \"@openzeppelin/contracts/token/ERC20/ERC20.sol\":8650:8671  account != address(0) */\n      0xffffffffffffffffffffffffffffffffffffffff\n      and\n        /* \"@openzeppelin/contracts/token/ERC20/ERC20.sol\":8650:8657  account */\n      dup3\n        /* \"@openzeppelin/contracts/token/ERC20/ERC20.sol\":8650:8671  account != address(0) */\n      0xffffffffffffffffffffffffffffffffffffffff\n      and\n      sub\n        /* \"@openzeppelin/contracts/token/ERC20/ERC20.sol\":8642:8707  require(account != address(0), \"ERC20: mint to the zero address\") */\n      tag_245\n      jumpi\n      mload(0x40)\n      0x08c379a000000000000000000000000000000000000000000000000000000000\n      dup2\n      mstore\n      0x04\n      add\n      tag_246\n      swap1\n      tag_247\n      jump\t// in\n    tag_246:\n      mload(0x40)\n      dup1\n      swap2\n      sub\n      swap1\n      revert\n    tag_245:\n        /* \"@openzeppelin/contracts/token/ERC20/ERC20.sol\":8718:8767  _beforeTokenTransfer(address(0), account, amount) */\n      tag_248\n        /* \"@openzeppelin/contracts/token/ERC20/ERC20.sol\":8747:8748  0 */\n      0x00\n        /* \"@openzeppelin/contracts/token/ERC20/ERC20.sol\":8751:8758  account */\n      dup4\n        /* \"@openzeppelin/contracts/token/ERC20/ERC20.sol\":8760:8766  amount */\n      dup4\n        /* \"@openzeppelin/contracts/token/ERC20/ERC20.sol\":8718:8738  _beforeTokenTransfer */\n      tag_231\n        /* \"@openzeppelin/contracts/token/ERC20/ERC20.sol\":8718:8767  _beforeTokenTransfer(address(0), account, amount) */\n      jump\t// in\n    tag_248:\n        /* \"@openzeppelin/contracts/token/ERC20/ERC20.sol\":8794:8800  amount */\n      dup1\n        /* \"@openzeppelin/contracts/token/ERC20/ERC20.sol\":8778:8790  _totalSupply */\n      0x02\n      0x00\n        /* \"@openzeppelin/contracts/token/ERC20/ERC20.sol\":8778:8800  _totalSupply += amount */\n      dup3\n      dup3\n      sload\n      tag_249\n      swap2\n      swap1\n      tag_144\n      jump\t// in\n    tag_249:\n      swap3\n      pop\n      pop\n      dup2\n      swap1\n      sstore\n      pop\n        /* \"@openzeppelin/contracts/token/ERC20/ERC20.sol\":8968:8974  amount */\n      dup1\n        /* \"@openzeppelin/contracts/token/ERC20/ERC20.sol\":8946:8955  _balances */\n      0x00\n        /* \"@openzeppelin/contracts/token/ERC20/ERC20.sol\":8946:8964  _balances[account] */\n      dup1\n        /* \"@openzeppelin/contracts/token/ERC20/ERC20.sol\":8956:8963  account */\n      dup5\n        /* \"@openzeppelin/contracts/token/ERC20/ERC20.sol\":8946:8964  _balances[account] */\n      0xffffffffffffffffffffffffffffffffffffffff\n      and\n      0xffffffffffffffffffffffffffffffffffffffff\n      and\n      dup2\n      mstore\n      0x20\n      add\n      swap1\n      dup2\n      mstore\n      0x20\n      add\n      0x00\n      keccak256\n      0x00\n        /* \"@openzeppelin/contracts/token/ERC20/ERC20.sol\":8946:8974  _balances[account] += amount */\n      dup3\n      dup3\n      sload\n      add\n      swap3\n      pop\n      pop\n      dup2\n      swap1\n      sstore\n      pop\n        /* \"@openzeppelin/contracts/token/ERC20/ERC20.sol\":9020:9027  account */\n      dup2\n        /* \"@openzeppelin/contracts/token/ERC20/ERC20.sol\":8999:9036  Transfer(address(0), account, amount) */\n      0xffffffffffffffffffffffffffffffffffffffff\n      and\n        /* \"@openzeppelin/contracts/token/ERC20/ERC20.sol\":9016:9017  0 */\n      0x00\n        /* \"@openzeppelin/contracts/token/ERC20/ERC20.sol\":8999:9036  Transfer(address(0), account, amount) */\n      0xffffffffffffffffffffffffffffffffffffffff\n      and\n      0xddf252ad1be2c89b69c2b068fc378daa952ba7f163c4a11628f55a4df523b3ef\n        /* \"@openzeppelin/contracts/token/ERC20/ERC20.sol\":9029:9035  amount */\n      dup4\n        /* \"@openzeppelin/contracts/token/ERC20/ERC20.sol\":8999:9036  Transfer(address(0), account, amount) */\n      mload(0x40)\n      tag_250\n      swap2\n      swap1\n      tag_41\n      jump\t// in\n    tag_250:\n      mload(0x40)\n      dup1\n      swap2\n      sub\n      swap1\n      log3\n        /* \"@openzeppelin/contracts/token/ERC20/ERC20.sol\":9047:9095  _afterTokenTransfer(address(0), account, amount) */\n      tag_251\n        /* \"@openzeppelin/contracts/token/ERC20/ERC20.sol\":9075:9076  0 */\n      0x00\n        /* \"@openzeppelin/contracts/token/ERC20/ERC20.sol\":9079:9086  account */\n      dup4\n        /* \"@openzeppelin/contracts/token/ERC20/ERC20.sol\":9088:9094  amount */\n      dup4\n        /* \"@openzeppelin/contracts/token/ERC20/ERC20.sol\":9047:9066  _afterTokenTransfer */\n      tag_237\n        /* \"@openzeppelin/contracts/token/ERC20/ERC20.sol\":9047:9095  _afterTokenTransfer(address(0), account, amount) */\n      jump\t// in\n    tag_251:\n        /* \"@openzeppelin/contracts/token/ERC20/ERC20.sol\":8567:9102  function _mint(address account, uint256 amount) internal virtual {... */\n      pop\n      pop\n      jump\t// out\n        /* \"@openzeppelin/contracts/access/Ownable.sol\":2433:2620  function _transferOwnership(address newOwner) internal virtual {... */\n    tag_156:\n        /* \"@openzeppelin/contracts/access/Ownable.sol\":2506:2522  address oldOwner */\n      0x00\n        /* \"@openzeppelin/contracts/access/Ownable.sol\":2525:2531  _owner */\n      0x05\n      0x00\n      swap1\n      sload\n      swap1\n      0x0100\n      exp\n      swap1\n      div\n      0xffffffffffffffffffffffffffffffffffffffff\n      and\n        /* \"@openzeppelin/contracts/access/Ownable.sol\":2506:2531  address oldOwner = _owner */\n      swap1\n      pop\n        /* \"@openzeppelin/contracts/access/Ownable.sol\":2550:2558  newOwner */\n      dup2\n        /* \"@openzeppelin/contracts/access/Ownable.sol\":2541:2547  _owner */\n      0x05\n      0x00\n        /* \"@openzeppelin/contracts/access/Ownable.sol\":2541:2558  _owner = newOwner */\n      0x0100\n      exp\n      dup2\n      sload\n      dup2\n      0xffffffffffffffffffffffffffffffffffffffff\n      mul\n      not\n      and\n      swap1\n      dup4\n      0xffffffffffffffffffffffffffffffffffffffff\n      and\n      mul\n      or\n      swap1\n      sstore\n      pop\n        /* \"@openzeppelin/contracts/access/Ownable.sol\":2604:2612  newOwner */\n      dup2\n        /* \"@openzeppelin/contracts/access/Ownable.sol\":2573:2613  OwnershipTransferred(oldOwner, newOwner) */\n      0xffffffffffffffffffffffffffffffffffffffff\n      and\n        /* \"@openzeppelin/contracts/access/Ownable.sol\":2594:2602  oldOwner */\n      dup2\n        /* \"@openzeppelin/contracts/access/Ownable.sol\":2573:2613  OwnershipTransferred(oldOwner, newOwner) */\n      0xffffffffffffffffffffffffffffffffffffffff\n      and\n      0x8be0079c531659141344cd1fd0a4f28419497f9722a3daafe3b4186f6b6457e0\n      mload(0x40)\n      mload(0x40)\n      dup1\n      swap2\n      sub\n      swap1\n      log3\n        /* \"@openzeppelin/contracts/access/Ownable.sol\":2496:2620  {... */\n      pop\n        /* \"@openzeppelin/contracts/access/Ownable.sol\":2433:2620  function _transferOwnership(address newOwner) internal virtual {... */\n      pop\n      jump\t// out\n        /* \"@openzeppelin/contracts/token/ERC20/ERC20.sol\":12180:12301  function _beforeTokenTransfer(... */\n    tag_231:\n      pop\n      pop\n      pop\n      jump\t// out\n        /* \"@openzeppelin/contracts/token/ERC20/ERC20.sol\":12889:13009  function _afterTokenTransfer(... */\n    tag_237:\n      pop\n      pop\n      pop\n      jump\t// out\n    tag_215:\n      dup3\n      dup1\n      sload\n      dup3\n      dup3\n      sstore\n      swap1\n      0x00\n      mstore\n      keccak256(0x00, 0x20)\n      swap1\n      dup2\n      add\n      swap3\n      dup3\n      iszero\n      tag_255\n      jumpi\n      swap2\n      0x20\n      mul\n      dup3\n      add\n    tag_256:\n      dup3\n      dup2\n      gt\n      iszero\n      tag_257\n      jumpi\n      dup3\n      mload\n      dup3\n      sstore\n      swap2\n      0x20\n      add\n      swap2\n      swap1\n      0x01\n      add\n      swap1\n      jump(tag_256)\n    tag_257:\n    tag_255:\n      pop\n      swap1\n      pop\n      tag_258\n      swap2\n      swap1\n      tag_259\n      jump\t// in\n    tag_258:\n      pop\n      swap1\n      jump\t// out\n    tag_259:\n    tag_260:\n      dup1\n      dup3\n      gt\n      iszero\n      tag_261\n      jumpi\n      0x00\n      dup2\n      0x00\n      swap1\n      sstore\n      pop\n      0x01\n      add\n      jump(tag_260)\n    tag_261:\n      pop\n      swap1\n      jump\t// out\n        /* \"#utility.yul\":7:106   */\n    tag_262:\n        /* \"#utility.yul\":59:65   */\n      0x00\n        /* \"#utility.yul\":93:98   */\n      dup2\n        /* \"#utility.yul\":87:99   */\n      mload\n        /* \"#utility.yul\":77:99   */\n      swap1\n      pop\n        /* \"#utility.yul\":7:106   */\n      swap2\n      swap1\n      pop\n      jump\t// out\n        /* \"#utility.yul\":112:281   */\n    tag_263:\n        /* \"#utility.yul\":196:207   */\n      0x00\n        /* \"#utility.yul\":230:236   */\n      dup3\n        /* \"#utility.yul\":225:228   */\n      dup3\n        /* \"#utility.yul\":218:237   */\n      mstore\n        /* \"#utility.yul\":270:274   */\n      0x20\n        /* \"#utility.yul\":265:268   */\n      dup3\n        /* \"#utility.yul\":261:275   */\n      add\n        /* \"#utility.yul\":246:275   */\n      swap1\n      pop\n        /* \"#utility.yul\":112:281   */\n      swap3\n      swap2\n      pop\n      pop\n      jump\t// out\n        /* \"#utility.yul\":287:533   */\n    tag_264:\n        /* \"#utility.yul\":368:369   */\n      0x00\n        /* \"#utility.yul\":378:491   */\n    tag_339:\n        /* \"#utility.yul\":392:398   */\n      dup4\n        /* \"#utility.yul\":389:390   */\n      dup2\n        /* \"#utility.yul\":386:399   */\n      lt\n        /* \"#utility.yul\":378:491   */\n      iszero\n      tag_341\n      jumpi\n        /* \"#utility.yul\":477:478   */\n      dup1\n        /* \"#utility.yul\":472:475   */\n      dup3\n        /* \"#utility.yul\":468:479   */\n      add\n        /* \"#utility.yul\":462:480   */\n      mload\n        /* \"#utility.yul\":458:459   */\n      dup2\n        /* \"#utility.yul\":453:456   */\n      dup5\n        /* \"#utility.yul\":449:460   */\n      add\n        /* \"#utility.yul\":442:481   */\n      mstore\n        /* \"#utility.yul\":414:416   */\n      0x20\n        /* \"#utility.yul\":411:412   */\n      dup2\n        /* \"#utility.yul\":407:417   */\n      add\n        /* \"#utility.yul\":402:417   */\n      swap1\n      pop\n        /* \"#utility.yul\":378:491   */\n      jump(tag_339)\n    tag_341:\n        /* \"#utility.yul\":525:526   */\n      0x00\n        /* \"#utility.yul\":516:522   */\n      dup5\n        /* \"#utility.yul\":511:514   */\n      dup5\n        /* \"#utility.yul\":507:523   */\n      add\n        /* \"#utility.yul\":500:527   */\n      mstore\n        /* \"#utility.yul\":349:533   */\n      pop\n        /* \"#utility.yul\":287:533   */\n      pop\n      pop\n      pop\n      jump\t// out\n        /* \"#utility.yul\":539:641   */\n    tag_265:\n        /* \"#utility.yul\":580:586   */\n      0x00\n        /* \"#utility.yul\":631:633   */\n      0x1f\n        /* \"#utility.yul\":627:634   */\n      not\n        /* \"#utility.yul\":622:624   */\n      0x1f\n        /* \"#utility.yul\":615:620   */\n      dup4\n        /* \"#utility.yul\":611:625   */\n      add\n        /* \"#utility.yul\":607:635   */\n      and\n        /* \"#utility.yul\":597:635   */\n      swap1\n      pop\n        /* \"#utility.yul\":539:641   */\n      swap2\n      swap1\n      pop\n      jump\t// out\n        /* \"#utility.yul\":647:1024   */\n    tag_266:\n        /* \"#utility.yul\":735:738   */\n      0x00\n        /* \"#utility.yul\":763:802   */\n      tag_344\n        /* \"#utility.yul\":796:801   */\n      dup3\n        /* \"#utility.yul\":763:802   */\n      tag_262\n      jump\t// in\n    tag_344:\n        /* \"#utility.yul\":818:889   */\n      tag_345\n        /* \"#utility.yul\":882:888   */\n      dup2\n        /* \"#utility.yul\":877:880   */\n      dup6\n        /* \"#utility.yul\":818:889   */\n      tag_263\n      jump\t// in\n    tag_345:\n        /* \"#utility.yul\":811:889   */\n      swap4\n      pop\n        /* \"#utility.yul\":898:963   */\n      tag_346\n        /* \"#utility.yul\":956:962   */\n      dup2\n        /* \"#utility.yul\":951:954   */\n      dup6\n        /* \"#utility.yul\":944:948   */\n      0x20\n        /* \"#utility.yul\":937:942   */\n      dup7\n        /* \"#utility.yul\":933:949   */\n      add\n        /* \"#utility.yul\":898:963   */\n      tag_264\n      jump\t// in\n    tag_346:\n        /* \"#utility.yul\":988:1017   */\n      tag_347\n        /* \"#utility.yul\":1010:1016   */\n      dup2\n        /* \"#utility.yul\":988:1017   */\n      tag_265\n      jump\t// in\n    tag_347:\n        /* \"#utility.yul\":983:986   */\n      dup5\n        /* \"#utility.yul\":979:1018   */\n      add\n        /* \"#utility.yul\":972:1018   */\n      swap2\n      pop\n        /* \"#utility.yul\":739:1024   */\n      pop\n        /* \"#utility.yul\":647:1024   */\n      swap3\n      swap2\n      pop\n      pop\n      jump\t// out\n        /* \"#utility.yul\":1030:1343   */\n    tag_31:\n        /* \"#utility.yul\":1143:1147   */\n      0x00\n        /* \"#utility.yul\":1181:1183   */\n      0x20\n        /* \"#utility.yul\":1170:1179   */\n      dup3\n        /* \"#utility.yul\":1166:1184   */\n      add\n        /* \"#utility.yul\":1158:1184   */\n      swap1\n      pop\n        /* \"#utility.yul\":1230:1239   */\n      dup2\n        /* \"#utility.yul\":1224:1228   */\n      dup2\n        /* \"#utility.yul\":1220:1240   */\n      sub\n        /* \"#utility.yul\":1216:1217   */\n      0x00\n        /* \"#utility.yul\":1205:1214   */\n      dup4\n        /* \"#utility.yul\":1201:1218   */\n      add\n        /* \"#utility.yul\":1194:1241   */\n      mstore\n        /* \"#utility.yul\":1258:1336   */\n      tag_349\n        /* \"#utility.yul\":1331:1335   */\n      dup2\n        /* \"#utility.yul\":1322:1328   */\n      dup5\n        /* \"#utility.yul\":1258:1336   */\n      tag_266\n      jump\t// in\n    tag_349:\n        /* \"#utility.yul\":1250:1336   */\n      swap1\n      pop\n        /* \"#utility.yul\":1030:1343   */\n      swap3\n      swap2\n      pop\n      pop\n      jump\t// out\n        /* \"#utility.yul\":1349:1424   */\n    tag_267:\n        /* \"#utility.yul\":1382:1388   */\n      0x00\n        /* \"#utility.yul\":1415:1417   */\n      0x40\n        /* \"#utility.yul\":1409:1418   */\n      mload\n        /* \"#utility.yul\":1399:1418   */\n      swap1\n      pop\n        /* \"#utility.yul\":1349:1424   */\n      swap1\n      jump\t// out\n        /* \"#utility.yul\":1430:1547   */\n    tag_268:\n        /* \"#utility.yul\":1539:1540   */\n      0x00\n        /* \"#utility.yul\":1536:1537   */\n      dup1\n        /* \"#utility.yul\":1529:1541   */\n      revert\n        /* \"#utility.yul\":1553:1670   */\n    tag_269:\n        /* \"#utility.yul\":1662:1663   */\n      0x00\n        /* \"#utility.yul\":1659:1660   */\n      dup1\n        /* \"#utility.yul\":1652:1664   */\n      revert\n        /* \"#utility.yul\":1676:1802   */\n    tag_270:\n        /* \"#utility.yul\":1713:1720   */\n      0x00\n        /* \"#utility.yul\":1753:1795   */\n      0xffffffffffffffffffffffffffffffffffffffff\n        /* \"#utility.yul\":1746:1751   */\n      dup3\n        /* \"#utility.yul\":1742:1796   */\n      and\n        /* \"#utility.yul\":1731:1796   */\n      swap1\n      pop\n        /* \"#utility.yul\":1676:1802   */\n      swap2\n      swap1\n      pop\n      jump\t// out\n        /* \"#utility.yul\":1808:1904   */\n    tag_271:\n        /* \"#utility.yul\":1845:1852   */\n      0x00\n        /* \"#utility.yul\":1874:1898   */\n      tag_355\n        /* \"#utility.yul\":1892:1897   */\n      dup3\n        /* \"#utility.yul\":1874:1898   */\n      tag_270\n      jump\t// in\n    tag_355:\n        /* \"#utility.yul\":1863:1898   */\n      swap1\n      pop\n        /* \"#utility.yul\":1808:1904   */\n      swap2\n      swap1\n      pop\n      jump\t// out\n        /* \"#utility.yul\":1910:2032   */\n    tag_272:\n        /* \"#utility.yul\":1983:2007   */\n      tag_357\n        /* \"#utility.yul\":2001:2006   */\n      dup2\n        /* \"#utility.yul\":1983:2007   */\n      tag_271\n      jump\t// in\n    tag_357:\n        /* \"#utility.yul\":1976:1981   */\n      dup2\n        /* \"#utility.yul\":1973:2008   */\n      eq\n        /* \"#utility.yul\":1963:2026   */\n      tag_358\n      jumpi\n        /* \"#utility.yul\":2022:2023   */\n      0x00\n        /* \"#utility.yul\":2019:2020   */\n      dup1\n        /* \"#utility.yul\":2012:2024   */\n      revert\n        /* \"#utility.yul\":1963:2026   */\n    tag_358:\n        /* \"#utility.yul\":1910:2032   */\n      pop\n      jump\t// out\n        /* \"#utility.yul\":2038:2177   */\n    tag_273:\n        /* \"#utility.yul\":2084:2089   */\n      0x00\n        /* \"#utility.yul\":2122:2128   */\n      dup2\n        /* \"#utility.yul\":2109:2129   */\n      calldataload\n        /* \"#utility.yul\":2100:2129   */\n      swap1\n      pop\n        /* \"#utility.yul\":2138:2171   */\n      tag_360\n        /* \"#utility.yul\":2165:2170   */\n      dup2\n        /* \"#utility.yul\":2138:2171   */\n      tag_272\n      jump\t// in\n    tag_360:\n        /* \"#utility.yul\":2038:2177   */\n      swap3\n      swap2\n      pop\n      pop\n      jump\t// out\n        /* \"#utility.yul\":2183:2260   */\n    tag_274:\n        /* \"#utility.yul\":2220:2227   */\n      0x00\n        /* \"#utility.yul\":2249:2254   */\n      dup2\n        /* \"#utility.yul\":2238:2254   */\n      swap1\n      pop\n        /* \"#utility.yul\":2183:2260   */\n      swap2\n      swap1\n      pop\n      jump\t// out\n        /* \"#utility.yul\":2266:2388   */\n    tag_275:\n        /* \"#utility.yul\":2339:2363   */\n      tag_363\n        /* \"#utility.yul\":2357:2362   */\n      dup2\n        /* \"#utility.yul\":2339:2363   */\n      tag_274\n      jump\t// in\n    tag_363:\n        /* \"#utility.yul\":2332:2337   */\n      dup2\n        /* \"#utility.yul\":2329:2364   */\n      eq\n        /* \"#utility.yul\":2319:2382   */\n      tag_364\n      jumpi\n        /* \"#utility.yul\":2378:2379   */\n      0x00\n        /* \"#utility.yul\":2375:2376   */\n      dup1\n        /* \"#utility.yul\":2368:2380   */\n      revert\n        /* \"#utility.yul\":2319:2382   */\n    tag_364:\n        /* \"#utility.yul\":2266:2388   */\n      pop\n      jump\t// out\n        /* \"#utility.yul\":2394:2533   */\n    tag_276:\n        /* \"#utility.yul\":2440:2445   */\n      0x00\n        /* \"#utility.yul\":2478:2484   */\n      dup2\n        /* \"#utility.yul\":2465:2485   */\n      calldataload\n        /* \"#utility.yul\":2456:2485   */\n      swap1\n      pop\n        /* \"#utility.yul\":2494:2527   */\n      tag_366\n        /* \"#utility.yul\":2521:2526   */\n      dup2\n        /* \"#utility.yul\":2494:2527   */\n      tag_275\n      jump\t// in\n    tag_366:\n        /* \"#utility.yul\":2394:2533   */\n      swap3\n      swap2\n      pop\n      pop\n      jump\t// out\n        /* \"#utility.yul\":2539:3013   */\n    tag_34:\n        /* \"#utility.yul\":2607:2613   */\n      0x00\n        /* \"#utility.yul\":2615:2621   */\n      dup1\n        /* \"#utility.yul\":2664:2666   */\n      0x40\n        /* \"#utility.yul\":2652:2661   */\n      dup4\n        /* \"#utility.yul\":2643:2650   */\n      dup6\n        /* \"#utility.yul\":2639:2662   */\n      sub\n        /* \"#utility.yul\":2635:2667   */\n      slt\n        /* \"#utility.yul\":2632:2751   */\n      iszero\n      tag_368\n      jumpi\n        /* \"#utility.yul\":2670:2749   */\n      tag_369\n      tag_268\n      jump\t// in\n    tag_369:\n        /* \"#utility.yul\":2632:2751   */\n    tag_368:\n        /* \"#utility.yul\":2790:2791   */\n      0x00\n        /* \"#utility.yul\":2815:2868   */\n      tag_370\n        /* \"#utility.yul\":2860:2867   */\n      dup6\n        /* \"#utility.yul\":2851:2857   */\n      dup3\n        /* \"#utility.yul\":2840:2849   */\n      dup7\n        /* \"#utility.yul\":2836:2858   */\n      add\n        /* \"#utility.yul\":2815:2868   */\n      tag_273\n      jump\t// in\n    tag_370:\n        /* \"#utility.yul\":2805:2868   */\n      swap3\n      pop\n        /* \"#utility.yul\":2761:2878   */\n      pop\n        /* \"#utility.yul\":2917:2919   */\n      0x20\n        /* \"#utility.yul\":2943:2996   */\n      tag_371\n        /* \"#utility.yul\":2988:2995   */\n      dup6\n        /* \"#utility.yul\":2979:2985   */\n      dup3\n        /* \"#utility.yul\":2968:2977   */\n      dup7\n        /* \"#utility.yul\":2964:2986   */\n      add\n        /* \"#utility.yul\":2943:2996   */\n      tag_276\n      jump\t// in\n    tag_371:\n        /* \"#utility.yul\":2933:2996   */\n      swap2\n      pop\n        /* \"#utility.yul\":2888:3006   */\n      pop\n        /* \"#utility.yul\":2539:3013   */\n      swap3\n      pop\n      swap3\n      swap1\n      pop\n      jump\t// out\n        /* \"#utility.yul\":3019:3109   */\n    tag_277:\n        /* \"#utility.yul\":3053:3060   */\n      0x00\n        /* \"#utility.yul\":3096:3101   */\n      dup2\n        /* \"#utility.yul\":3089:3102   */\n      iszero\n        /* \"#utility.yul\":3082:3103   */\n      iszero\n        /* \"#utility.yul\":3071:3103   */\n      swap1\n      pop\n        /* \"#utility.yul\":3019:3109   */\n      swap2\n      swap1\n      pop\n      jump\t// out\n        /* \"#utility.yul\":3115:3224   */\n    tag_278:\n        /* \"#utility.yul\":3196:3217   */\n      tag_374\n        /* \"#utility.yul\":3211:3216   */\n      dup2\n        /* \"#utility.yul\":3196:3217   */\n      tag_277\n      jump\t// in\n    tag_374:\n        /* \"#utility.yul\":3191:3194   */\n      dup3\n        /* \"#utility.yul\":3184:3218   */\n      mstore\n        /* \"#utility.yul\":3115:3224   */\n      pop\n      pop\n      jump\t// out\n        /* \"#utility.yul\":3230:3440   */\n    tag_37:\n        /* \"#utility.yul\":3317:3321   */\n      0x00\n        /* \"#utility.yul\":3355:3357   */\n      0x20\n        /* \"#utility.yul\":3344:3353   */\n      dup3\n        /* \"#utility.yul\":3340:3358   */\n      add\n        /* \"#utility.yul\":3332:3358   */\n      swap1\n      pop\n        /* \"#utility.yul\":3368:3433   */\n      tag_376\n        /* \"#utility.yul\":3430:3431   */\n      0x00\n        /* \"#utility.yul\":3419:3428   */\n      dup4\n        /* \"#utility.yul\":3415:3432   */\n      add\n        /* \"#utility.yul\":3406:3412   */\n      dup5\n        /* \"#utility.yul\":3368:3433   */\n      tag_278\n      jump\t// in\n    tag_376:\n        /* \"#utility.yul\":3230:3440   */\n      swap3\n      swap2\n      pop\n      pop\n      jump\t// out\n        /* \"#utility.yul\":3446:3564   */\n    tag_279:\n        /* \"#utility.yul\":3533:3557   */\n      tag_378\n        /* \"#utility.yul\":3551:3556   */\n      dup2\n        /* \"#utility.yul\":3533:3557   */\n      tag_274\n      jump\t// in\n    tag_378:\n        /* \"#utility.yul\":3528:3531   */\n      dup3\n        /* \"#utility.yul\":3521:3558   */\n      mstore\n        /* \"#utility.yul\":3446:3564   */\n      pop\n      pop\n      jump\t// out\n        /* \"#utility.yul\":3570:3792   */\n    tag_41:\n        /* \"#utility.yul\":3663:3667   */\n      0x00\n        /* \"#utility.yul\":3701:3703   */\n      0x20\n        /* \"#utility.yul\":3690:3699   */\n      dup3\n        /* \"#utility.yul\":3686:3704   */\n      add\n        /* \"#utility.yul\":3678:3704   */\n      swap1\n      pop\n        /* \"#utility.yul\":3714:3785   */\n      tag_380\n        /* \"#utility.yul\":3782:3783   */\n      0x00\n        /* \"#utility.yul\":3771:3780   */\n      dup4\n        /* \"#utility.yul\":3767:3784   */\n      add\n        /* \"#utility.yul\":3758:3764   */\n      dup5\n        /* \"#utility.yul\":3714:3785   */\n      tag_279\n      jump\t// in\n    tag_380:\n        /* \"#utility.yul\":3570:3792   */\n      swap3\n      swap2\n      pop\n      pop\n      jump\t// out\n        /* \"#utility.yul\":3798:3915   */\n    tag_280:\n        /* \"#utility.yul\":3907:3908   */\n      0x00\n        /* \"#utility.yul\":3904:3905   */\n      dup1\n        /* \"#utility.yul\":3897:3909   */\n      revert\n        /* \"#utility.yul\":3921:4101   */\n    tag_281:\n        /* \"#utility.yul\":3969:4046   */\n      0x4e487b7100000000000000000000000000000000000000000000000000000000\n        /* \"#utility.yul\":3966:3967   */\n      0x00\n        /* \"#utility.yul\":3959:4047   */\n      mstore\n        /* \"#utility.yul\":4066:4070   */\n      0x41\n        /* \"#utility.yul\":4063:4064   */\n      0x04\n        /* \"#utility.yul\":4056:4071   */\n      mstore\n        /* \"#utility.yul\":4090:4094   */\n      0x24\n        /* \"#utility.yul\":4087:4088   */\n      0x00\n        /* \"#utility.yul\":4080:4095   */\n      revert\n        /* \"#utility.yul\":4107:4388   */\n    tag_282:\n        /* \"#utility.yul\":4190:4217   */\n      tag_384\n        /* \"#utility.yul\":4212:4216   */\n      dup3\n        /* \"#utility.yul\":4190:4217   */\n      tag_265\n      jump\t// in\n    tag_384:\n        /* \"#utility.yul\":4182:4188   */\n      dup2\n        /* \"#utility.yul\":4178:4218   */\n      add\n        /* \"#utility.yul\":4320:4326   */\n      dup2\n        /* \"#utility.yul\":4308:4318   */\n      dup2\n        /* \"#utility.yul\":4305:4327   */\n      lt\n        /* \"#utility.yul\":4284:4302   */\n      0xffffffffffffffff\n        /* \"#utility.yul\":4272:4282   */\n      dup3\n        /* \"#utility.yul\":4269:4303   */\n      gt\n        /* \"#utility.yul\":4266:4328   */\n      or\n        /* \"#utility.yul\":4263:4351   */\n      iszero\n      tag_385\n      jumpi\n        /* \"#utility.yul\":4331:4349   */\n      tag_386\n      tag_281\n      jump\t// in\n    tag_386:\n        /* \"#utility.yul\":4263:4351   */\n    tag_385:\n        /* \"#utility.yul\":4371:4381   */\n      dup1\n        /* \"#utility.yul\":4367:4369   */\n      0x40\n        /* \"#utility.yul\":4360:4382   */\n      mstore\n        /* \"#utility.yul\":4150:4388   */\n      pop\n        /* \"#utility.yul\":4107:4388   */\n      pop\n      pop\n      jump\t// out\n        /* \"#utility.yul\":4394:4523   */\n    tag_283:\n        /* \"#utility.yul\":4428:4434   */\n      0x00\n        /* \"#utility.yul\":4455:4475   */\n      tag_388\n      tag_267\n      jump\t// in\n    tag_388:\n        /* \"#utility.yul\":4445:4475   */\n      swap1\n      pop\n        /* \"#utility.yul\":4484:4517   */\n      tag_389\n        /* \"#utility.yul\":4512:4516   */\n      dup3\n        /* \"#utility.yul\":4504:4510   */\n      dup3\n        /* \"#utility.yul\":4484:4517   */\n      tag_282\n      jump\t// in\n    tag_389:\n        /* \"#utility.yul\":4394:4523   */\n      swap2\n      swap1\n      pop\n      jump\t// out\n        /* \"#utility.yul\":4529:4840   */\n    tag_284:\n        /* \"#utility.yul\":4606:4610   */\n      0x00\n        /* \"#utility.yul\":4696:4714   */\n      0xffffffffffffffff\n        /* \"#utility.yul\":4688:4694   */\n      dup3\n        /* \"#utility.yul\":4685:4715   */\n      gt\n        /* \"#utility.yul\":4682:4738   */\n      iszero\n      tag_391\n      jumpi\n        /* \"#utility.yul\":4718:4736   */\n      tag_392\n      tag_281\n      jump\t// in\n    tag_392:\n        /* \"#utility.yul\":4682:4738   */\n    tag_391:\n        /* \"#utility.yul\":4768:4772   */\n      0x20\n        /* \"#utility.yul\":4760:4766   */\n      dup3\n        /* \"#utility.yul\":4756:4773   */\n      mul\n        /* \"#utility.yul\":4748:4773   */\n      swap1\n      pop\n        /* \"#utility.yul\":4828:4832   */\n      0x20\n        /* \"#utility.yul\":4822:4826   */\n      dup2\n        /* \"#utility.yul\":4818:4833   */\n      add\n        /* \"#utility.yul\":4810:4833   */\n      swap1\n      pop\n        /* \"#utility.yul\":4529:4840   */\n      swap2\n      swap1\n      pop\n      jump\t// out\n        /* \"#utility.yul\":4846:4963   */\n    tag_285:\n        /* \"#utility.yul\":4955:4956   */\n      0x00\n        /* \"#utility.yul\":4952:4953   */\n      dup1\n        /* \"#utility.yul\":4945:4957   */\n      revert\n        /* \"#utility.yul\":4986:5696   */\n    tag_286:\n        /* \"#utility.yul\":5082:5087   */\n      0x00\n        /* \"#utility.yul\":5107:5188   */\n      tag_395\n        /* \"#utility.yul\":5123:5187   */\n      tag_396\n        /* \"#utility.yul\":5180:5186   */\n      dup5\n        /* \"#utility.yul\":5123:5187   */\n      tag_284\n      jump\t// in\n    tag_396:\n        /* \"#utility.yul\":5107:5188   */\n      tag_283\n      jump\t// in\n    tag_395:\n        /* \"#utility.yul\":5098:5188   */\n      swap1\n      pop\n        /* \"#utility.yul\":5208:5213   */\n      dup1\n        /* \"#utility.yul\":5237:5243   */\n      dup4\n        /* \"#utility.yul\":5230:5235   */\n      dup3\n        /* \"#utility.yul\":5223:5244   */\n      mstore\n        /* \"#utility.yul\":5271:5275   */\n      0x20\n        /* \"#utility.yul\":5264:5269   */\n      dup3\n        /* \"#utility.yul\":5260:5276   */\n      add\n        /* \"#utility.yul\":5253:5276   */\n      swap1\n      pop\n        /* \"#utility.yul\":5324:5328   */\n      0x20\n        /* \"#utility.yul\":5316:5322   */\n      dup5\n        /* \"#utility.yul\":5312:5329   */\n      mul\n        /* \"#utility.yul\":5304:5310   */\n      dup4\n        /* \"#utility.yul\":5300:5330   */\n      add\n        /* \"#utility.yul\":5353:5356   */\n      dup6\n        /* \"#utility.yul\":5345:5351   */\n      dup2\n        /* \"#utility.yul\":5342:5357   */\n      gt\n        /* \"#utility.yul\":5339:5461   */\n      iszero\n      tag_397\n      jumpi\n        /* \"#utility.yul\":5372:5451   */\n      tag_398\n      tag_285\n      jump\t// in\n    tag_398:\n        /* \"#utility.yul\":5339:5461   */\n    tag_397:\n        /* \"#utility.yul\":5487:5493   */\n      dup4\n        /* \"#utility.yul\":5470:5690   */\n    tag_399:\n        /* \"#utility.yul\":5504:5510   */\n      dup2\n        /* \"#utility.yul\":5499:5502   */\n      dup2\n        /* \"#utility.yul\":5496:5511   */\n      lt\n        /* \"#utility.yul\":5470:5690   */\n      iszero\n      tag_401\n      jumpi\n        /* \"#utility.yul\":5579:5582   */\n      dup1\n        /* \"#utility.yul\":5608:5645   */\n      tag_402\n        /* \"#utility.yul\":5641:5644   */\n      dup9\n        /* \"#utility.yul\":5629:5639   */\n      dup3\n        /* \"#utility.yul\":5608:5645   */\n      tag_276\n      jump\t// in\n    tag_402:\n        /* \"#utility.yul\":5603:5606   */\n      dup5\n        /* \"#utility.yul\":5596:5646   */\n      mstore\n        /* \"#utility.yul\":5675:5679   */\n      0x20\n        /* \"#utility.yul\":5670:5673   */\n      dup5\n        /* \"#utility.yul\":5666:5680   */\n      add\n        /* \"#utility.yul\":5659:5680   */\n      swap4\n      pop\n        /* \"#utility.yul\":5546:5690   */\n      pop\n        /* \"#utility.yul\":5530:5534   */\n      0x20\n        /* \"#utility.yul\":5525:5528   */\n      dup2\n        /* \"#utility.yul\":5521:5535   */\n      add\n        /* \"#utility.yul\":5514:5535   */\n      swap1\n      pop\n        /* \"#utility.yul\":5470:5690   */\n      jump(tag_399)\n    tag_401:\n        /* \"#utility.yul\":5474:5495   */\n      pop\n        /* \"#utility.yul\":5088:5696   */\n      pop\n      pop\n        /* \"#utility.yul\":4986:5696   */\n      swap4\n      swap3\n      pop\n      pop\n      pop\n      jump\t// out\n        /* \"#utility.yul\":5719:6089   */\n    tag_287:\n        /* \"#utility.yul\":5790:5795   */\n      0x00\n        /* \"#utility.yul\":5839:5842   */\n      dup3\n        /* \"#utility.yul\":5832:5836   */\n      0x1f\n        /* \"#utility.yul\":5824:5830   */\n      dup4\n        /* \"#utility.yul\":5820:5837   */\n      add\n        /* \"#utility.yul\":5816:5843   */\n      slt\n        /* \"#utility.yul\":5806:5928   */\n      tag_404\n      jumpi\n        /* \"#utility.yul\":5847:5926   */\n      tag_405\n      tag_280\n      jump\t// in\n    tag_405:\n        /* \"#utility.yul\":5806:5928   */\n    tag_404:\n        /* \"#utility.yul\":5964:5970   */\n      dup2\n        /* \"#utility.yul\":5951:5971   */\n      calldataload\n        /* \"#utility.yul\":5989:6083   */\n      tag_406\n        /* \"#utility.yul\":6079:6082   */\n      dup5\n        /* \"#utility.yul\":6071:6077   */\n      dup3\n        /* \"#utility.yul\":6064:6068   */\n      0x20\n        /* \"#utility.yul\":6056:6062   */\n      dup7\n        /* \"#utility.yul\":6052:6069   */\n      add\n        /* \"#utility.yul\":5989:6083   */\n      tag_286\n      jump\t// in\n    tag_406:\n        /* \"#utility.yul\":5980:6083   */\n      swap2\n      pop\n        /* \"#utility.yul\":5796:6089   */\n      pop\n        /* \"#utility.yul\":5719:6089   */\n      swap3\n      swap2\n      pop\n      pop\n      jump\t// out\n        /* \"#utility.yul\":6095:6779   */\n    tag_44:\n        /* \"#utility.yul\":6188:6194   */\n      0x00\n        /* \"#utility.yul\":6196:6202   */\n      dup1\n        /* \"#utility.yul\":6245:6247   */\n      0x40\n        /* \"#utility.yul\":6233:6242   */\n      dup4\n        /* \"#utility.yul\":6224:6231   */\n      dup6\n        /* \"#utility.yul\":6220:6243   */\n      sub\n        /* \"#utility.yul\":6216:6248   */\n      slt\n        /* \"#utility.yul\":6213:6332   */\n      iszero\n      tag_408\n      jumpi\n        /* \"#utility.yul\":6251:6330   */\n      tag_409\n      tag_268\n      jump\t// in\n    tag_409:\n        /* \"#utility.yul\":6213:6332   */\n    tag_408:\n        /* \"#utility.yul\":6371:6372   */\n      0x00\n        /* \"#utility.yul\":6396:6449   */\n      tag_410\n        /* \"#utility.yul\":6441:6448   */\n      dup6\n        /* \"#utility.yul\":6432:6438   */\n      dup3\n        /* \"#utility.yul\":6421:6430   */\n      dup7\n        /* \"#utility.yul\":6417:6439   */\n      add\n        /* \"#utility.yul\":6396:6449   */\n      tag_276\n      jump\t// in\n    tag_410:\n        /* \"#utility.yul\":6386:6449   */\n      swap3\n      pop\n        /* \"#utility.yul\":6342:6459   */\n      pop\n        /* \"#utility.yul\":6526:6528   */\n      0x20\n        /* \"#utility.yul\":6515:6524   */\n      dup4\n        /* \"#utility.yul\":6511:6529   */\n      add\n        /* \"#utility.yul\":6498:6530   */\n      calldataload\n        /* \"#utility.yul\":6557:6575   */\n      0xffffffffffffffff\n        /* \"#utility.yul\":6549:6555   */\n      dup2\n        /* \"#utility.yul\":6546:6576   */\n      gt\n        /* \"#utility.yul\":6543:6660   */\n      iszero\n      tag_411\n      jumpi\n        /* \"#utility.yul\":6579:6658   */\n      tag_412\n      tag_269\n      jump\t// in\n    tag_412:\n        /* \"#utility.yul\":6543:6660   */\n    tag_411:\n        /* \"#utility.yul\":6684:6762   */\n      tag_413\n        /* \"#utility.yul\":6754:6761   */\n      dup6\n        /* \"#utility.yul\":6745:6751   */\n      dup3\n        /* \"#utility.yul\":6734:6743   */\n      dup7\n        /* \"#utility.yul\":6730:6752   */\n      add\n        /* \"#utility.yul\":6684:6762   */\n      tag_287\n      jump\t// in\n    tag_413:\n        /* \"#utility.yul\":6674:6762   */\n      swap2\n      pop\n        /* \"#utility.yul\":6469:6772   */\n      pop\n        /* \"#utility.yul\":6095:6779   */\n      swap3\n      pop\n      swap3\n      swap1\n      pop\n      jump\t// out\n        /* \"#utility.yul\":6785:7404   */\n    tag_48:\n        /* \"#utility.yul\":6862:6868   */\n      0x00\n        /* \"#utility.yul\":6870:6876   */\n      dup1\n        /* \"#utility.yul\":6878:6884   */\n      0x00\n        /* \"#utility.yul\":6927:6929   */\n      0x60\n        /* \"#utility.yul\":6915:6924   */\n      dup5\n        /* \"#utility.yul\":6906:6913   */\n      dup7\n        /* \"#utility.yul\":6902:6925   */\n      sub\n        /* \"#utility.yul\":6898:6930   */\n      slt\n        /* \"#utility.yul\":6895:7014   */\n      iszero\n      tag_415\n      jumpi\n        /* \"#utility.yul\":6933:7012   */\n      tag_416\n      tag_268\n      jump\t// in\n    tag_416:\n        /* \"#utility.yul\":6895:7014   */\n    tag_415:\n        /* \"#utility.yul\":7053:7054   */\n      0x00\n        /* \"#utility.yul\":7078:7131   */\n      tag_417\n        /* \"#utility.yul\":7123:7130   */\n      dup7\n        /* \"#utility.yul\":7114:7120   */\n      dup3\n        /* \"#utility.yul\":7103:7112   */\n      dup8\n        /* \"#utility.yul\":7099:7121   */\n      add\n        /* \"#utility.yul\":7078:7131   */\n      tag_273\n      jump\t// in\n    tag_417:\n        /* \"#utility.yul\":7068:7131   */\n      swap4\n      pop\n        /* \"#utility.yul\":7024:7141   */\n      pop\n        /* \"#utility.yul\":7180:7182   */\n      0x20\n        /* \"#utility.yul\":7206:7259   */\n      tag_418\n        /* \"#utility.yul\":7251:7258   */\n      dup7\n        /* \"#utility.yul\":7242:7248   */\n      dup3\n        /* \"#utility.yul\":7231:7240   */\n      dup8\n        /* \"#utility.yul\":7227:7249   */\n      add\n        /* \"#utility.yul\":7206:7259   */\n      tag_273\n      jump\t// in\n    tag_418:\n        /* \"#utility.yul\":7196:7259   */\n      swap3\n      pop\n        /* \"#utility.yul\":7151:7269   */\n      pop\n        /* \"#utility.yul\":7308:7310   */\n      0x40\n        /* \"#utility.yul\":7334:7387   */\n      tag_419\n        /* \"#utility.yul\":7379:7386   */\n      dup7\n        /* \"#utility.yul\":7370:7376   */\n      dup3\n        /* \"#utility.yul\":7359:7368   */\n      dup8\n        /* \"#utility.yul\":7355:7377   */\n      add\n        /* \"#utility.yul\":7334:7387   */\n      tag_276\n      jump\t// in\n    tag_419:\n        /* \"#utility.yul\":7324:7387   */\n      swap2\n      pop\n        /* \"#utility.yul\":7279:7397   */\n      pop\n        /* \"#utility.yul\":6785:7404   */\n      swap3\n      pop\n      swap3\n      pop\n      swap3\n      jump\t// out\n        /* \"#utility.yul\":7410:7496   */\n    tag_288:\n        /* \"#utility.yul\":7445:7452   */\n      0x00\n        /* \"#utility.yul\":7485:7489   */\n      0xff\n        /* \"#utility.yul\":7478:7483   */\n      dup3\n        /* \"#utility.yul\":7474:7490   */\n      and\n        /* \"#utility.yul\":7463:7490   */\n      swap1\n      pop\n        /* \"#utility.yul\":7410:7496   */\n      swap2\n      swap1\n      pop\n      jump\t// out\n        /* \"#utility.yul\":7502:7614   */\n    tag_289:\n        /* \"#utility.yul\":7585:7607   */\n      tag_422\n        /* \"#utility.yul\":7601:7606   */\n      dup2\n        /* \"#utility.yul\":7585:7607   */\n      tag_288\n      jump\t// in\n    tag_422:\n        /* \"#utility.yul\":7580:7583   */\n      dup3\n        /* \"#utility.yul\":7573:7608   */\n      mstore\n        /* \"#utility.yul\":7502:7614   */\n      pop\n      pop\n      jump\t// out\n        /* \"#utility.yul\":7620:7834   */\n    tag_54:\n        /* \"#utility.yul\":7709:7713   */\n      0x00\n        /* \"#utility.yul\":7747:7749   */\n      0x20\n        /* \"#utility.yul\":7736:7745   */\n      dup3\n        /* \"#utility.yul\":7732:7750   */\n      add\n        /* \"#utility.yul\":7724:7750   */\n      swap1\n      pop\n        /* \"#utility.yul\":7760:7827   */\n      tag_424\n        /* \"#utility.yul\":7824:7825   */\n      0x00\n        /* \"#utility.yul\":7813:7822   */\n      dup4\n        /* \"#utility.yul\":7809:7826   */\n      add\n        /* \"#utility.yul\":7800:7806   */\n      dup5\n        /* \"#utility.yul\":7760:7827   */\n      tag_289\n      jump\t// in\n    tag_424:\n        /* \"#utility.yul\":7620:7834   */\n      swap3\n      swap2\n      pop\n      pop\n      jump\t// out\n        /* \"#utility.yul\":7840:8169   */\n    tag_64:\n        /* \"#utility.yul\":7899:7905   */\n      0x00\n        /* \"#utility.yul\":7948:7950   */\n      0x20\n        /* \"#utility.yul\":7936:7945   */\n      dup3\n        /* \"#utility.yul\":7927:7934   */\n      dup5\n        /* \"#utility.yul\":7923:7946   */\n      sub\n        /* \"#utility.yul\":7919:7951   */\n      slt\n        /* \"#utility.yul\":7916:8035   */\n      iszero\n      tag_426\n      jumpi\n        /* \"#utility.yul\":7954:8033   */\n      tag_427\n      tag_268\n      jump\t// in\n    tag_427:\n        /* \"#utility.yul\":7916:8035   */\n    tag_426:\n        /* \"#utility.yul\":8074:8075   */\n      0x00\n        /* \"#utility.yul\":8099:8152   */\n      tag_428\n        /* \"#utility.yul\":8144:8151   */\n      dup5\n        /* \"#utility.yul\":8135:8141   */\n      dup3\n        /* \"#utility.yul\":8124:8133   */\n      dup6\n        /* \"#utility.yul\":8120:8142   */\n      add\n        /* \"#utility.yul\":8099:8152   */\n      tag_273\n      jump\t// in\n    tag_428:\n        /* \"#utility.yul\":8089:8152   */\n      swap2\n      pop\n        /* \"#utility.yul\":8045:8162   */\n      pop\n        /* \"#utility.yul\":7840:8169   */\n      swap3\n      swap2\n      pop\n      pop\n      jump\t// out\n        /* \"#utility.yul\":8175:8235   */\n    tag_290:\n        /* \"#utility.yul\":8203:8206   */\n      0x00\n        /* \"#utility.yul\":8224:8229   */\n      dup2\n        /* \"#utility.yul\":8217:8229   */\n      swap1\n      pop\n        /* \"#utility.yul\":8175:8235   */\n      swap2\n      swap1\n      pop\n      jump\t// out\n        /* \"#utility.yul\":8241:8383   */\n    tag_291:\n        /* \"#utility.yul\":8291:8300   */\n      0x00\n        /* \"#utility.yul\":8324:8377   */\n      tag_431\n        /* \"#utility.yul\":8342:8376   */\n      tag_432\n        /* \"#utility.yul\":8351:8375   */\n      tag_433\n        /* \"#utility.yul\":8369:8374   */\n      dup5\n        /* \"#utility.yul\":8351:8375   */\n      tag_270\n      jump\t// in\n    tag_433:\n        /* \"#utility.yul\":8342:8376   */\n      tag_290\n      jump\t// in\n    tag_432:\n        /* \"#utility.yul\":8324:8377   */\n      tag_270\n      jump\t// in\n    tag_431:\n        /* \"#utility.yul\":8311:8377   */\n      swap1\n      pop\n        /* \"#utility.yul\":8241:8383   */\n      swap2\n      swap1\n      pop\n      jump\t// out\n        /* \"#utility.yul\":8389:8515   */\n    tag_292:\n        /* \"#utility.yul\":8439:8448   */\n      0x00\n        /* \"#utility.yul\":8472:8509   */\n      tag_435\n        /* \"#utility.yul\":8503:8508   */\n      dup3\n        /* \"#utility.yul\":8472:8509   */\n      tag_291\n      jump\t// in\n    tag_435:\n        /* \"#utility.yul\":8459:8509   */\n      swap1\n      pop\n        /* \"#utility.yul\":8389:8515   */\n      swap2\n      swap1\n      pop\n      jump\t// out\n        /* \"#utility.yul\":8521:8676   */\n    tag_293:\n        /* \"#utility.yul\":8600:8609   */\n      0x00\n        /* \"#utility.yul\":8633:8670   */\n      tag_437\n        /* \"#utility.yul\":8664:8669   */\n      dup3\n        /* \"#utility.yul\":8633:8670   */\n      tag_292\n      jump\t// in\n    tag_437:\n        /* \"#utility.yul\":8620:8670   */\n      swap1\n      pop\n        /* \"#utility.yul\":8521:8676   */\n      swap2\n      swap1\n      pop\n      jump\t// out\n        /* \"#utility.yul\":8682:8871   */\n    tag_294:\n        /* \"#utility.yul\":8798:8864   */\n      tag_439\n        /* \"#utility.yul\":8858:8863   */\n      dup2\n        /* \"#utility.yul\":8798:8864   */\n      tag_293\n      jump\t// in\n    tag_439:\n        /* \"#utility.yul\":8793:8796   */\n      dup3\n        /* \"#utility.yul\":8786:8865   */\n      mstore\n        /* \"#utility.yul\":8682:8871   */\n      pop\n      pop\n      jump\t// out\n        /* \"#utility.yul\":8877:9157   */\n    tag_72:\n        /* \"#utility.yul\":8999:9003   */\n      0x00\n        /* \"#utility.yul\":9037:9039   */\n      0x20\n        /* \"#utility.yul\":9026:9035   */\n      dup3\n        /* \"#utility.yul\":9022:9040   */\n      add\n        /* \"#utility.yul\":9014:9040   */\n      swap1\n      pop\n        /* \"#utility.yul\":9050:9150   */\n      tag_441\n        /* \"#utility.yul\":9147:9148   */\n      0x00\n        /* \"#utility.yul\":9136:9145   */\n      dup4\n        /* \"#utility.yul\":9132:9149   */\n      add\n        /* \"#utility.yul\":9123:9129   */\n      dup5\n        /* \"#utility.yul\":9050:9150   */\n      tag_294\n      jump\t// in\n    tag_441:\n        /* \"#utility.yul\":8877:9157   */\n      swap3\n      swap2\n      pop\n      pop\n      jump\t// out\n        /* \"#utility.yul\":9163:9281   */\n    tag_295:\n        /* \"#utility.yul\":9250:9274   */\n      tag_443\n        /* \"#utility.yul\":9268:9273   */\n      dup2\n        /* \"#utility.yul\":9250:9274   */\n      tag_271\n      jump\t// in\n    tag_443:\n        /* \"#utility.yul\":9245:9248   */\n      dup3\n        /* \"#utility.yul\":9238:9275   */\n      mstore\n        /* \"#utility.yul\":9163:9281   */\n      pop\n      pop\n      jump\t// out\n        /* \"#utility.yul\":9287:9509   */\n    tag_76:\n        /* \"#utility.yul\":9380:9384   */\n      0x00\n        /* \"#utility.yul\":9418:9420   */\n      0x20\n        /* \"#utility.yul\":9407:9416   */\n      dup3\n        /* \"#utility.yul\":9403:9421   */\n      add\n        /* \"#utility.yul\":9395:9421   */\n      swap1\n      pop\n        /* \"#utility.yul\":9431:9502   */\n      tag_445\n        /* \"#utility.yul\":9499:9500   */\n      0x00\n        /* \"#utility.yul\":9488:9497   */\n      dup4\n        /* \"#utility.yul\":9484:9501   */\n      add\n        /* \"#utility.yul\":9475:9481   */\n      dup5\n        /* \"#utility.yul\":9431:9502   */\n      tag_295\n      jump\t// in\n    tag_445:\n        /* \"#utility.yul\":9287:9509   */\n      swap3\n      swap2\n      pop\n      pop\n      jump\t// out\n        /* \"#utility.yul\":9515:9591   */\n    tag_296:\n        /* \"#utility.yul\":9551:9558   */\n      0x00\n        /* \"#utility.yul\":9580:9585   */\n      dup2\n        /* \"#utility.yul\":9569:9585   */\n      swap1\n      pop\n        /* \"#utility.yul\":9515:9591   */\n      swap2\n      swap1\n      pop\n      jump\t// out\n        /* \"#utility.yul\":9597:9712   */\n    tag_297:\n        /* \"#utility.yul\":9682:9705   */\n      tag_448\n        /* \"#utility.yul\":9699:9704   */\n      dup2\n        /* \"#utility.yul\":9682:9705   */\n      tag_296\n      jump\t// in\n    tag_448:\n        /* \"#utility.yul\":9677:9680   */\n      dup3\n        /* \"#utility.yul\":9670:9706   */\n      mstore\n        /* \"#utility.yul\":9597:9712   */\n      pop\n      pop\n      jump\t// out\n        /* \"#utility.yul\":9718:9936   */\n    tag_80:\n        /* \"#utility.yul\":9809:9813   */\n      0x00\n        /* \"#utility.yul\":9847:9849   */\n      0x20\n        /* \"#utility.yul\":9836:9845   */\n      dup3\n        /* \"#utility.yul\":9832:9850   */\n      add\n        /* \"#utility.yul\":9824:9850   */\n      swap1\n      pop\n        /* \"#utility.yul\":9860:9929   */\n      tag_450\n        /* \"#utility.yul\":9926:9927   */\n      0x00\n        /* \"#utility.yul\":9915:9924   */\n      dup4\n        /* \"#utility.yul\":9911:9928   */\n      add\n        /* \"#utility.yul\":9902:9908   */\n      dup5\n        /* \"#utility.yul\":9860:9929   */\n      tag_297\n      jump\t// in\n    tag_450:\n        /* \"#utility.yul\":9718:9936   */\n      swap3\n      swap2\n      pop\n      pop\n      jump\t// out\n        /* \"#utility.yul\":9942:10416   */\n    tag_97:\n        /* \"#utility.yul\":10010:10016   */\n      0x00\n        /* \"#utility.yul\":10018:10024   */\n      dup1\n        /* \"#utility.yul\":10067:10069   */\n      0x40\n        /* \"#utility.yul\":10055:10064   */\n      dup4\n        /* \"#utility.yul\":10046:10053   */\n      dup6\n        /* \"#utility.yul\":10042:10065   */\n      sub\n        /* \"#utility.yul\":10038:10070   */\n      slt\n        /* \"#utility.yul\":10035:10154   */\n      iszero\n      tag_452\n      jumpi\n        /* \"#utility.yul\":10073:10152   */\n      tag_453\n      tag_268\n      jump\t// in\n    tag_453:\n        /* \"#utility.yul\":10035:10154   */\n    tag_452:\n        /* \"#utility.yul\":10193:10194   */\n      0x00\n        /* \"#utility.yul\":10218:10271   */\n      tag_454\n        /* \"#utility.yul\":10263:10270   */\n      dup6\n        /* \"#utility.yul\":10254:10260   */\n      dup3\n        /* \"#utility.yul\":10243:10252   */\n      dup7\n        /* \"#utility.yul\":10239:10261   */\n      add\n        /* \"#utility.yul\":10218:10271   */\n      tag_273\n      jump\t// in\n    tag_454:\n        /* \"#utility.yul\":10208:10271   */\n      swap3\n      pop\n        /* \"#utility.yul\":10164:10281   */\n      pop\n        /* \"#utility.yul\":10320:10322   */\n      0x20\n        /* \"#utility.yul\":10346:10399   */\n      tag_455\n        /* \"#utility.yul\":10391:10398   */\n      dup6\n        /* \"#utility.yul\":10382:10388   */\n      dup3\n        /* \"#utility.yul\":10371:10380   */\n      dup7\n        /* \"#utility.yul\":10367:10389   */\n      add\n        /* \"#utility.yul\":10346:10399   */\n      tag_273\n      jump\t// in\n    tag_455:\n        /* \"#utility.yul\":10336:10399   */\n      swap2\n      pop\n        /* \"#utility.yul\":10291:10409   */\n      pop\n        /* \"#utility.yul\":9942:10416   */\n      swap3\n      pop\n      swap3\n      swap1\n      pop\n      jump\t// out\n        /* \"#utility.yul\":10422:10751   */\n    tag_110:\n        /* \"#utility.yul\":10481:10487   */\n      0x00\n        /* \"#utility.yul\":10530:10532   */\n      0x20\n        /* \"#utility.yul\":10518:10527   */\n      dup3\n        /* \"#utility.yul\":10509:10516   */\n      dup5\n        /* \"#utility.yul\":10505:10528   */\n      sub\n        /* \"#utility.yul\":10501:10533   */\n      slt\n        /* \"#utility.yul\":10498:10617   */\n      iszero\n      tag_457\n      jumpi\n        /* \"#utility.yul\":10536:10615   */\n      tag_458\n      tag_268\n      jump\t// in\n    tag_458:\n        /* \"#utility.yul\":10498:10617   */\n    tag_457:\n        /* \"#utility.yul\":10656:10657   */\n      0x00\n        /* \"#utility.yul\":10681:10734   */\n      tag_459\n        /* \"#utility.yul\":10726:10733   */\n      dup5\n        /* \"#utility.yul\":10717:10723   */\n      dup3\n        /* \"#utility.yul\":10706:10715   */\n      dup6\n        /* \"#utility.yul\":10702:10724   */\n      add\n        /* \"#utility.yul\":10681:10734   */\n      tag_276\n      jump\t// in\n    tag_459:\n        /* \"#utility.yul\":10671:10734   */\n      swap2\n      pop\n        /* \"#utility.yul\":10627:10744   */\n      pop\n        /* \"#utility.yul\":10422:10751   */\n      swap3\n      swap2\n      pop\n      pop\n      jump\t// out\n        /* \"#utility.yul\":10757:10937   */\n    tag_298:\n        /* \"#utility.yul\":10805:10882   */\n      0x4e487b7100000000000000000000000000000000000000000000000000000000\n        /* \"#utility.yul\":10802:10803   */\n      0x00\n        /* \"#utility.yul\":10795:10883   */\n      mstore\n        /* \"#utility.yul\":10902:10906   */\n      0x22\n        /* \"#utility.yul\":10899:10900   */\n      0x04\n        /* \"#utility.yul\":10892:10907   */\n      mstore\n        /* \"#utility.yul\":10926:10930   */\n      0x24\n        /* \"#utility.yul\":10923:10924   */\n      0x00\n        /* \"#utility.yul\":10916:10931   */\n      revert\n        /* \"#utility.yul\":10943:11263   */\n    tag_115:\n        /* \"#utility.yul\":10987:10993   */\n      0x00\n        /* \"#utility.yul\":11024:11025   */\n      0x02\n        /* \"#utility.yul\":11018:11022   */\n      dup3\n        /* \"#utility.yul\":11014:11026   */\n      div\n        /* \"#utility.yul\":11004:11026   */\n      swap1\n      pop\n        /* \"#utility.yul\":11071:11072   */\n      0x01\n        /* \"#utility.yul\":11065:11069   */\n      dup3\n        /* \"#utility.yul\":11061:11073   */\n      and\n        /* \"#utility.yul\":11092:11110   */\n      dup1\n        /* \"#utility.yul\":11082:11163   */\n      tag_462\n      jumpi\n        /* \"#utility.yul\":11148:11152   */\n      0x7f\n        /* \"#utility.yul\":11140:11146   */\n      dup3\n        /* \"#utility.yul\":11136:11153   */\n      and\n        /* \"#utility.yul\":11126:11153   */\n      swap2\n      pop\n        /* \"#utility.yul\":11082:11163   */\n    tag_462:\n        /* \"#utility.yul\":11210:11212   */\n      0x20\n        /* \"#utility.yul\":11202:11208   */\n      dup3\n        /* \"#utility.yul\":11199:11213   */\n      lt\n        /* \"#utility.yul\":11179:11197   */\n      dup2\n        /* \"#utility.yul\":11176:11214   */\n      sub\n        /* \"#utility.yul\":11173:11257   */\n      tag_463\n      jumpi\n        /* \"#utility.yul\":11229:11247   */\n      tag_464\n      tag_298\n      jump\t// in\n    tag_464:\n        /* \"#utility.yul\":11173:11257   */\n    tag_463:\n        /* \"#utility.yul\":10994:11263   */\n      pop\n        /* \"#utility.yul\":10943:11263   */\n      swap2\n      swap1\n      pop\n      jump\t// out\n        /* \"#utility.yul\":11269:11601   */\n    tag_129:\n        /* \"#utility.yul\":11390:11394   */\n      0x00\n        /* \"#utility.yul\":11428:11430   */\n      0x40\n        /* \"#utility.yul\":11417:11426   */\n      dup3\n        /* \"#utility.yul\":11413:11431   */\n      add\n        /* \"#utility.yul\":11405:11431   */\n      swap1\n      pop\n        /* \"#utility.yul\":11441:11512   */\n      tag_466\n        /* \"#utility.yul\":11509:11510   */\n      0x00\n        /* \"#utility.yul\":11498:11507   */\n      dup4\n        /* \"#utility.yul\":11494:11511   */\n      add\n        /* \"#utility.yul\":11485:11491   */\n      dup6\n        /* \"#utility.yul\":11441:11512   */\n      tag_295\n      jump\t// in\n    tag_466:\n        /* \"#utility.yul\":11522:11594   */\n      tag_467\n        /* \"#utility.yul\":11590:11592   */\n      0x20\n        /* \"#utility.yul\":11579:11588   */\n      dup4\n        /* \"#utility.yul\":11575:11593   */\n      add\n        /* \"#utility.yul\":11566:11572   */\n      dup5\n        /* \"#utility.yul\":11522:11594   */\n      tag_295\n      jump\t// in\n    tag_467:\n        /* \"#utility.yul\":11269:11601   */\n      swap4\n      swap3\n      pop\n      pop\n      pop\n      jump\t// out\n        /* \"#utility.yul\":11607:11787   */\n    tag_299:\n        /* \"#utility.yul\":11655:11732   */\n      0x4e487b7100000000000000000000000000000000000000000000000000000000\n        /* \"#utility.yul\":11652:11653   */\n      0x00\n        /* \"#utility.yul\":11645:11733   */\n      mstore\n        /* \"#utility.yul\":11752:11756   */\n      0x11\n        /* \"#utility.yul\":11749:11750   */\n      0x04\n        /* \"#utility.yul\":11742:11757   */\n      mstore\n        /* \"#utility.yul\":11776:11780   */\n      0x24\n        /* \"#utility.yul\":11773:11774   */\n      0x00\n        /* \"#utility.yul\":11766:11781   */\n      revert\n        /* \"#utility.yul\":11793:11984   */\n    tag_144:\n        /* \"#utility.yul\":11833:11836   */\n      0x00\n        /* \"#utility.yul\":11852:11872   */\n      tag_470\n        /* \"#utility.yul\":11870:11871   */\n      dup3\n        /* \"#utility.yul\":11852:11872   */\n      tag_274\n      jump\t// in\n    tag_470:\n        /* \"#utility.yul\":11847:11872   */\n      swap2\n      pop\n        /* \"#utility.yul\":11886:11906   */\n      tag_471\n        /* \"#utility.yul\":11904:11905   */\n      dup4\n        /* \"#utility.yul\":11886:11906   */\n      tag_274\n      jump\t// in\n    tag_471:\n        /* \"#utility.yul\":11881:11906   */\n      swap3\n      pop\n        /* \"#utility.yul\":11929:11930   */\n      dup3\n        /* \"#utility.yul\":11926:11927   */\n      dup3\n        /* \"#utility.yul\":11922:11931   */\n      add\n        /* \"#utility.yul\":11915:11931   */\n      swap1\n      pop\n        /* \"#utility.yul\":11950:11953   */\n      dup1\n        /* \"#utility.yul\":11947:11948   */\n      dup3\n        /* \"#utility.yul\":11944:11954   */\n      gt\n        /* \"#utility.yul\":11941:11977   */\n      iszero\n      tag_472\n      jumpi\n        /* \"#utility.yul\":11957:11975   */\n      tag_473\n      tag_299\n      jump\t// in\n    tag_473:\n        /* \"#utility.yul\":11941:11977   */\n    tag_472:\n        /* \"#utility.yul\":11793:11984   */\n      swap3\n      swap2\n      pop\n      pop\n      jump\t// out\n        /* \"#utility.yul\":11990:12095   */\n    tag_300:\n        /* \"#utility.yul\":12026:12033   */\n      0x00\n        /* \"#utility.yul\":12066:12088   */\n      0xffffffffffffffffffff\n        /* \"#utility.yul\":12059:12064   */\n      dup3\n        /* \"#utility.yul\":12055:12089   */\n      and\n        /* \"#utility.yul\":12044:12089   */\n      swap1\n      pop\n        /* \"#utility.yul\":11990:12095   */\n      swap2\n      swap1\n      pop\n      jump\t// out\n        /* \"#utility.yul\":12101:12221   */\n    tag_301:\n        /* \"#utility.yul\":12173:12196   */\n      tag_476\n        /* \"#utility.yul\":12190:12195   */\n      dup2\n        /* \"#utility.yul\":12173:12196   */\n      tag_300\n      jump\t// in\n    tag_476:\n        /* \"#utility.yul\":12166:12171   */\n      dup2\n        /* \"#utility.yul\":12163:12197   */\n      eq\n        /* \"#utility.yul\":12153:12215   */\n      tag_477\n      jumpi\n        /* \"#utility.yul\":12211:12212   */\n      0x00\n        /* \"#utility.yul\":12208:12209   */\n      dup1\n        /* \"#utility.yul\":12201:12213   */\n      revert\n        /* \"#utility.yul\":12153:12215   */\n    tag_477:\n        /* \"#utility.yul\":12101:12221   */\n      pop\n      jump\t// out\n        /* \"#utility.yul\":12227:12368   */\n    tag_302:\n        /* \"#utility.yul\":12283:12288   */\n      0x00\n        /* \"#utility.yul\":12314:12320   */\n      dup2\n        /* \"#utility.yul\":12308:12321   */\n      mload\n        /* \"#utility.yul\":12299:12321   */\n      swap1\n      pop\n        /* \"#utility.yul\":12330:12362   */\n      tag_479\n        /* \"#utility.yul\":12356:12361   */\n      dup2\n        /* \"#utility.yul\":12330:12362   */\n      tag_301\n      jump\t// in\n    tag_479:\n        /* \"#utility.yul\":12227:12368   */\n      swap3\n      swap2\n      pop\n      pop\n      jump\t// out\n        /* \"#utility.yul\":12374:12494   */\n    tag_303:\n        /* \"#utility.yul\":12446:12469   */\n      tag_481\n        /* \"#utility.yul\":12463:12468   */\n      dup2\n        /* \"#utility.yul\":12446:12469   */\n      tag_296\n      jump\t// in\n    tag_481:\n        /* \"#utility.yul\":12439:12444   */\n      dup2\n        /* \"#utility.yul\":12436:12470   */\n      eq\n        /* \"#utility.yul\":12426:12488   */\n      tag_482\n      jumpi\n        /* \"#utility.yul\":12484:12485   */\n      0x00\n        /* \"#utility.yul\":12481:12482   */\n      dup1\n        /* \"#utility.yul\":12474:12486   */\n      revert\n        /* \"#utility.yul\":12426:12488   */\n    tag_482:\n        /* \"#utility.yul\":12374:12494   */\n      pop\n      jump\t// out\n        /* \"#utility.yul\":12500:12641   */\n    tag_304:\n        /* \"#utility.yul\":12556:12561   */\n      0x00\n        /* \"#utility.yul\":12587:12593   */\n      dup2\n        /* \"#utility.yul\":12581:12594   */\n      mload\n        /* \"#utility.yul\":12572:12594   */\n      swap1\n      pop\n        /* \"#utility.yul\":12603:12635   */\n      tag_484\n        /* \"#utility.yul\":12629:12634   */\n      dup2\n        /* \"#utility.yul\":12603:12635   */\n      tag_303\n      jump\t// in\n    tag_484:\n        /* \"#utility.yul\":12500:12641   */\n      swap3\n      swap2\n      pop\n      pop\n      jump\t// out\n        /* \"#utility.yul\":12647:12790   */\n    tag_305:\n        /* \"#utility.yul\":12704:12709   */\n      0x00\n        /* \"#utility.yul\":12735:12741   */\n      dup2\n        /* \"#utility.yul\":12729:12742   */\n      mload\n        /* \"#utility.yul\":12720:12742   */\n      swap1\n      pop\n        /* \"#utility.yul\":12751:12784   */\n      tag_486\n        /* \"#utility.yul\":12778:12783   */\n      dup2\n        /* \"#utility.yul\":12751:12784   */\n      tag_275\n      jump\t// in\n    tag_486:\n        /* \"#utility.yul\":12647:12790   */\n      swap3\n      swap2\n      pop\n      pop\n      jump\t// out\n        /* \"#utility.yul\":12796:13767   */\n    tag_162:\n        /* \"#utility.yul\":12899:12905   */\n      0x00\n        /* \"#utility.yul\":12907:12913   */\n      dup1\n        /* \"#utility.yul\":12915:12921   */\n      0x00\n        /* \"#utility.yul\":12923:12929   */\n      dup1\n        /* \"#utility.yul\":12931:12937   */\n      0x00\n        /* \"#utility.yul\":12980:12983   */\n      0xa0\n        /* \"#utility.yul\":12968:12977   */\n      dup7\n        /* \"#utility.yul\":12959:12966   */\n      dup9\n        /* \"#utility.yul\":12955:12978   */\n      sub\n        /* \"#utility.yul\":12951:12984   */\n      slt\n        /* \"#utility.yul\":12948:13068   */\n      iszero\n      tag_488\n      jumpi\n        /* \"#utility.yul\":12987:13066   */\n      tag_489\n      tag_268\n      jump\t// in\n    tag_489:\n        /* \"#utility.yul\":12948:13068   */\n    tag_488:\n        /* \"#utility.yul\":13107:13108   */\n      0x00\n        /* \"#utility.yul\":13132:13195   */\n      tag_490\n        /* \"#utility.yul\":13187:13194   */\n      dup9\n        /* \"#utility.yul\":13178:13184   */\n      dup3\n        /* \"#utility.yul\":13167:13176   */\n      dup10\n        /* \"#utility.yul\":13163:13185   */\n      add\n        /* \"#utility.yul\":13132:13195   */\n      tag_302\n      jump\t// in\n    tag_490:\n        /* \"#utility.yul\":13122:13195   */\n      swap6\n      pop\n        /* \"#utility.yul\":13078:13205   */\n      pop\n        /* \"#utility.yul\":13244:13246   */\n      0x20\n        /* \"#utility.yul\":13270:13333   */\n      tag_491\n        /* \"#utility.yul\":13325:13332   */\n      dup9\n        /* \"#utility.yul\":13316:13322   */\n      dup3\n        /* \"#utility.yul\":13305:13314   */\n      dup10\n        /* \"#utility.yul\":13301:13323   */\n      add\n        /* \"#utility.yul\":13270:13333   */\n      tag_304\n      jump\t// in\n    tag_491:\n        /* \"#utility.yul\":13260:13333   */\n      swap5\n      pop\n        /* \"#utility.yul\":13215:13343   */\n      pop\n        /* \"#utility.yul\":13382:13384   */\n      0x40\n        /* \"#utility.yul\":13408:13472   */\n      tag_492\n        /* \"#utility.yul\":13464:13471   */\n      dup9\n        /* \"#utility.yul\":13455:13461   */\n      dup3\n        /* \"#utility.yul\":13444:13453   */\n      dup10\n        /* \"#utility.yul\":13440:13462   */\n      add\n        /* \"#utility.yul\":13408:13472   */\n      tag_305\n      jump\t// in\n    tag_492:\n        /* \"#utility.yul\":13398:13472   */\n      swap4\n      pop\n        /* \"#utility.yul\":13353:13482   */\n      pop\n        /* \"#utility.yul\":13521:13523   */\n      0x60\n        /* \"#utility.yul\":13547:13611   */\n      tag_493\n        /* \"#utility.yul\":13603:13610   */\n      dup9\n        /* \"#utility.yul\":13594:13600   */\n      dup3\n        /* \"#utility.yul\":13583:13592   */\n      dup10\n        /* \"#utility.yul\":13579:13601   */\n      add\n        /* \"#utility.yul\":13547:13611   */\n      tag_305\n      jump\t// in\n    tag_493:\n        /* \"#utility.yul\":13537:13611   */\n      swap3\n      pop\n        /* \"#utility.yul\":13492:13621   */\n      pop\n        /* \"#utility.yul\":13660:13663   */\n      0x80\n        /* \"#utility.yul\":13687:13750   */\n      tag_494\n        /* \"#utility.yul\":13742:13749   */\n      dup9\n        /* \"#utility.yul\":13733:13739   */\n      dup3\n        /* \"#utility.yul\":13722:13731   */\n      dup10\n        /* \"#utility.yul\":13718:13740   */\n      add\n        /* \"#utility.yul\":13687:13750   */\n      tag_302\n      jump\t// in\n    tag_494:\n        /* \"#utility.yul\":13677:13750   */\n      swap2\n      pop\n        /* \"#utility.yul\":13631:13760   */\n      pop\n        /* \"#utility.yul\":12796:13767   */\n      swap3\n      swap6\n      pop\n      swap3\n      swap6\n      swap1\n      swap4\n      pop\n      jump\t// out\n        /* \"#utility.yul\":13773:13953   */\n    tag_306:\n        /* \"#utility.yul\":13821:13898   */\n      0x4e487b7100000000000000000000000000000000000000000000000000000000\n        /* \"#utility.yul\":13818:13819   */\n      0x00\n        /* \"#utility.yul\":13811:13899   */\n      mstore\n        /* \"#utility.yul\":13918:13922   */\n      0x12\n        /* \"#utility.yul\":13915:13916   */\n      0x04\n        /* \"#utility.yul\":13908:13923   */\n      mstore\n        /* \"#utility.yul\":13942:13946   */\n      0x24\n        /* \"#utility.yul\":13939:13940   */\n      0x00\n        /* \"#utility.yul\":13932:13947   */\n      revert\n        /* \"#utility.yul\":13959:14344   */\n    tag_164:\n        /* \"#utility.yul\":13998:13999   */\n      0x00\n        /* \"#utility.yul\":14015:14034   */\n      tag_497\n        /* \"#utility.yul\":14032:14033   */\n      dup3\n        /* \"#utility.yul\":14015:14034   */\n      tag_296\n      jump\t// in\n    tag_497:\n        /* \"#utility.yul\":14010:14034   */\n      swap2\n      pop\n        /* \"#utility.yul\":14048:14067   */\n      tag_498\n        /* \"#utility.yul\":14065:14066   */\n      dup4\n        /* \"#utility.yul\":14048:14067   */\n      tag_296\n      jump\t// in\n    tag_498:\n        /* \"#utility.yul\":14043:14067   */\n      swap3\n      pop\n        /* \"#utility.yul\":14086:14087   */\n      dup3\n        /* \"#utility.yul\":14076:14111   */\n      tag_499\n      jumpi\n        /* \"#utility.yul\":14091:14109   */\n      tag_500\n      tag_306\n      jump\t// in\n    tag_500:\n        /* \"#utility.yul\":14076:14111   */\n    tag_499:\n        /* \"#utility.yul\":14277:14278   */\n      0x01\n        /* \"#utility.yul\":14274:14275   */\n      0x00\n        /* \"#utility.yul\":14270:14279   */\n      sub\n        /* \"#utility.yul\":14267:14268   */\n      dup4\n        /* \"#utility.yul\":14264:14280   */\n      eq\n        /* \"#utility.yul\":14183:14249   */\n      0x8000000000000000000000000000000000000000000000000000000000000000\n        /* \"#utility.yul\":14180:14181   */\n      dup4\n        /* \"#utility.yul\":14177:14250   */\n      eq\n        /* \"#utility.yul\":14160:14290   */\n      and\n        /* \"#utility.yul\":14157:14313   */\n      iszero\n      tag_501\n      jumpi\n        /* \"#utility.yul\":14293:14311   */\n      tag_502\n      tag_299\n      jump\t// in\n    tag_502:\n        /* \"#utility.yul\":14157:14313   */\n    tag_501:\n        /* \"#utility.yul\":14336:14337   */\n      dup3\n        /* \"#utility.yul\":14333:14334   */\n      dup3\n        /* \"#utility.yul\":14328:14338   */\n      sdiv\n        /* \"#utility.yul\":14323:14338   */\n      swap1\n      pop\n        /* \"#utility.yul\":13959:14344   */\n      swap3\n      swap2\n      pop\n      pop\n      jump\t// out\n        /* \"#utility.yul\":14350:14574   */\n    tag_307:\n        /* \"#utility.yul\":14490:14524   */\n      0x45524332303a2064656372656173656420616c6c6f77616e63652062656c6f77\n        /* \"#utility.yul\":14486:14487   */\n      0x00\n        /* \"#utility.yul\":14478:14484   */\n      dup3\n        /* \"#utility.yul\":14474:14488   */\n      add\n        /* \"#utility.yul\":14467:14525   */\n      mstore\n        /* \"#utility.yul\":14559:14566   */\n      0x207a65726f000000000000000000000000000000000000000000000000000000\n        /* \"#utility.yul\":14554:14556   */\n      0x20\n        /* \"#utility.yul\":14546:14552   */\n      dup3\n        /* \"#utility.yul\":14542:14557   */\n      add\n        /* \"#utility.yul\":14535:14567   */\n      mstore\n        /* \"#utility.yul\":14350:14574   */\n      pop\n      jump\t// out\n        /* \"#utility.yul\":14580:14946   */\n    tag_308:\n        /* \"#utility.yul\":14722:14725   */\n      0x00\n        /* \"#utility.yul\":14743:14810   */\n      tag_505\n        /* \"#utility.yul\":14807:14809   */\n      0x25\n        /* \"#utility.yul\":14802:14805   */\n      dup4\n        /* \"#utility.yul\":14743:14810   */\n      tag_263\n      jump\t// in\n    tag_505:\n        /* \"#utility.yul\":14736:14810   */\n      swap2\n      pop\n        /* \"#utility.yul\":14819:14912   */\n      tag_506\n        /* \"#utility.yul\":14908:14911   */\n      dup3\n        /* \"#utility.yul\":14819:14912   */\n      tag_307\n      jump\t// in\n    tag_506:\n        /* \"#utility.yul\":14937:14939   */\n      0x40\n        /* \"#utility.yul\":14932:14935   */\n      dup3\n        /* \"#utility.yul\":14928:14940   */\n      add\n        /* \"#utility.yul\":14921:14940   */\n      swap1\n      pop\n        /* \"#utility.yul\":14580:14946   */\n      swap2\n      swap1\n      pop\n      jump\t// out\n        /* \"#utility.yul\":14952:15371   */\n    tag_176:\n        /* \"#utility.yul\":15118:15122   */\n      0x00\n        /* \"#utility.yul\":15156:15158   */\n      0x20\n        /* \"#utility.yul\":15145:15154   */\n      dup3\n        /* \"#utility.yul\":15141:15159   */\n      add\n        /* \"#utility.yul\":15133:15159   */\n      swap1\n      pop\n        /* \"#utility.yul\":15205:15214   */\n      dup2\n        /* \"#utility.yul\":15199:15203   */\n      dup2\n        /* \"#utility.yul\":15195:15215   */\n      sub\n        /* \"#utility.yul\":15191:15192   */\n      0x00\n        /* \"#utility.yul\":15180:15189   */\n      dup4\n        /* \"#utility.yul\":15176:15193   */\n      add\n        /* \"#utility.yul\":15169:15216   */\n      mstore\n        /* \"#utility.yul\":15233:15364   */\n      tag_508\n        /* \"#utility.yul\":15359:15363   */\n      dup2\n        /* \"#utility.yul\":15233:15364   */\n      tag_308\n      jump\t// in\n    tag_508:\n        /* \"#utility.yul\":15225:15364   */\n      swap1\n      pop\n        /* \"#utility.yul\":14952:15371   */\n      swap2\n      swap1\n      pop\n      jump\t// out\n        /* \"#utility.yul\":15377:15454   */\n    tag_309:\n        /* \"#utility.yul\":15414:15421   */\n      0x00\n        /* \"#utility.yul\":15443:15448   */\n      dup2\n        /* \"#utility.yul\":15432:15448   */\n      swap1\n      pop\n        /* \"#utility.yul\":15377:15454   */\n      swap2\n      swap1\n      pop\n      jump\t// out\n        /* \"#utility.yul\":15460:15578   */\n    tag_310:\n        /* \"#utility.yul\":15547:15571   */\n      tag_511\n        /* \"#utility.yul\":15565:15570   */\n      dup2\n        /* \"#utility.yul\":15547:15571   */\n      tag_309\n      jump\t// in\n    tag_511:\n        /* \"#utility.yul\":15542:15545   */\n      dup3\n        /* \"#utility.yul\":15535:15572   */\n      mstore\n        /* \"#utility.yul\":15460:15578   */\n      pop\n      pop\n      jump\t// out\n        /* \"#utility.yul\":15584:15685   */\n    tag_311:\n        /* \"#utility.yul\":15620:15627   */\n      0x00\n        /* \"#utility.yul\":15660:15678   */\n      0xffffffffffffffff\n        /* \"#utility.yul\":15653:15658   */\n      dup3\n        /* \"#utility.yul\":15649:15679   */\n      and\n        /* \"#utility.yul\":15638:15679   */\n      swap1\n      pop\n        /* \"#utility.yul\":15584:15685   */\n      swap2\n      swap1\n      pop\n      jump\t// out\n        /* \"#utility.yul\":15691:15806   */\n    tag_312:\n        /* \"#utility.yul\":15776:15799   */\n      tag_514\n        /* \"#utility.yul\":15793:15798   */\n      dup2\n        /* \"#utility.yul\":15776:15799   */\n      tag_311\n      jump\t// in\n    tag_514:\n        /* \"#utility.yul\":15771:15774   */\n      dup3\n        /* \"#utility.yul\":15764:15800   */\n      mstore\n        /* \"#utility.yul\":15691:15806   */\n      pop\n      pop\n      jump\t// out\n        /* \"#utility.yul\":15812:15901   */\n    tag_313:\n        /* \"#utility.yul\":15848:15855   */\n      0x00\n        /* \"#utility.yul\":15888:15894   */\n      0xffff\n        /* \"#utility.yul\":15881:15886   */\n      dup3\n        /* \"#utility.yul\":15877:15895   */\n      and\n        /* \"#utility.yul\":15866:15895   */\n      swap1\n      pop\n        /* \"#utility.yul\":15812:15901   */\n      swap2\n      swap1\n      pop\n      jump\t// out\n        /* \"#utility.yul\":15907:16022   */\n    tag_314:\n        /* \"#utility.yul\":15992:16015   */\n      tag_517\n        /* \"#utility.yul\":16009:16014   */\n      dup2\n        /* \"#utility.yul\":15992:16015   */\n      tag_313\n      jump\t// in\n    tag_517:\n        /* \"#utility.yul\":15987:15990   */\n      dup3\n        /* \"#utility.yul\":15980:16016   */\n      mstore\n        /* \"#utility.yul\":15907:16022   */\n      pop\n      pop\n      jump\t// out\n        /* \"#utility.yul\":16028:16121   */\n    tag_315:\n        /* \"#utility.yul\":16064:16071   */\n      0x00\n        /* \"#utility.yul\":16104:16114   */\n      0xffffffff\n        /* \"#utility.yul\":16097:16102   */\n      dup3\n        /* \"#utility.yul\":16093:16115   */\n      and\n        /* \"#utility.yul\":16082:16115   */\n      swap1\n      pop\n        /* \"#utility.yul\":16028:16121   */\n      swap2\n      swap1\n      pop\n      jump\t// out\n        /* \"#utility.yul\":16127:16242   */\n    tag_316:\n        /* \"#utility.yul\":16212:16235   */\n      tag_520\n        /* \"#utility.yul\":16229:16234   */\n      dup2\n        /* \"#utility.yul\":16212:16235   */\n      tag_315\n      jump\t// in\n    tag_520:\n        /* \"#utility.yul\":16207:16210   */\n      dup3\n        /* \"#utility.yul\":16200:16236   */\n      mstore\n        /* \"#utility.yul\":16127:16242   */\n      pop\n      pop\n      jump\t// out\n        /* \"#utility.yul\":16248:16896   */\n    tag_190:\n        /* \"#utility.yul\":16445:16449   */\n      0x00\n        /* \"#utility.yul\":16483:16486   */\n      0xa0\n        /* \"#utility.yul\":16472:16481   */\n      dup3\n        /* \"#utility.yul\":16468:16487   */\n      add\n        /* \"#utility.yul\":16460:16487   */\n      swap1\n      pop\n        /* \"#utility.yul\":16497:16568   */\n      tag_522\n        /* \"#utility.yul\":16565:16566   */\n      0x00\n        /* \"#utility.yul\":16554:16563   */\n      dup4\n        /* \"#utility.yul\":16550:16567   */\n      add\n        /* \"#utility.yul\":16541:16547   */\n      dup9\n        /* \"#utility.yul\":16497:16568   */\n      tag_310\n      jump\t// in\n    tag_522:\n        /* \"#utility.yul\":16578:16648   */\n      tag_523\n        /* \"#utility.yul\":16644:16646   */\n      0x20\n        /* \"#utility.yul\":16633:16642   */\n      dup4\n        /* \"#utility.yul\":16629:16647   */\n      add\n        /* \"#utility.yul\":16620:16626   */\n      dup8\n        /* \"#utility.yul\":16578:16648   */\n      tag_312\n      jump\t// in\n    tag_523:\n        /* \"#utility.yul\":16658:16728   */\n      tag_524\n        /* \"#utility.yul\":16724:16726   */\n      0x40\n        /* \"#utility.yul\":16713:16722   */\n      dup4\n        /* \"#utility.yul\":16709:16727   */\n      add\n        /* \"#utility.yul\":16700:16706   */\n      dup7\n        /* \"#utility.yul\":16658:16728   */\n      tag_314\n      jump\t// in\n    tag_524:\n        /* \"#utility.yul\":16738:16808   */\n      tag_525\n        /* \"#utility.yul\":16804:16806   */\n      0x60\n        /* \"#utility.yul\":16793:16802   */\n      dup4\n        /* \"#utility.yul\":16789:16807   */\n      add\n        /* \"#utility.yul\":16780:16786   */\n      dup6\n        /* \"#utility.yul\":16738:16808   */\n      tag_316\n      jump\t// in\n    tag_525:\n        /* \"#utility.yul\":16818:16889   */\n      tag_526\n        /* \"#utility.yul\":16884:16887   */\n      0x80\n        /* \"#utility.yul\":16873:16882   */\n      dup4\n        /* \"#utility.yul\":16869:16888   */\n      add\n        /* \"#utility.yul\":16860:16866   */\n      dup5\n        /* \"#utility.yul\":16818:16889   */\n      tag_316\n      jump\t// in\n    tag_526:\n        /* \"#utility.yul\":16248:16896   */\n      swap7\n      swap6\n      pop\n      pop\n      pop\n      pop\n      pop\n      pop\n      jump\t// out\n        /* \"#utility.yul\":16902:17253   */\n    tag_194:\n        /* \"#utility.yul\":16972:16978   */\n      0x00\n        /* \"#utility.yul\":17021:17023   */\n      0x20\n        /* \"#utility.yul\":17009:17018   */\n      dup3\n        /* \"#utility.yul\":17000:17007   */\n      dup5\n        /* \"#utility.yul\":16996:17019   */\n      sub\n        /* \"#utility.yul\":16992:17024   */\n      slt\n        /* \"#utility.yul\":16989:17108   */\n      iszero\n      tag_528\n      jumpi\n        /* \"#utility.yul\":17027:17106   */\n      tag_529\n      tag_268\n      jump\t// in\n    tag_529:\n        /* \"#utility.yul\":16989:17108   */\n    tag_528:\n        /* \"#utility.yul\":17147:17148   */\n      0x00\n        /* \"#utility.yul\":17172:17236   */\n      tag_530\n        /* \"#utility.yul\":17228:17235   */\n      dup5\n        /* \"#utility.yul\":17219:17225   */\n      dup3\n        /* \"#utility.yul\":17208:17217   */\n      dup6\n        /* \"#utility.yul\":17204:17226   */\n      add\n        /* \"#utility.yul\":17172:17236   */\n      tag_305\n      jump\t// in\n    tag_530:\n        /* \"#utility.yul\":17162:17236   */\n      swap2\n      pop\n        /* \"#utility.yul\":17118:17246   */\n      pop\n        /* \"#utility.yul\":16902:17253   */\n      swap3\n      swap2\n      pop\n      pop\n      jump\t// out\n        /* \"#utility.yul\":17259:17484   */\n    tag_317:\n        /* \"#utility.yul\":17399:17433   */\n      0x4f776e61626c653a206e6577206f776e657220697320746865207a65726f2061\n        /* \"#utility.yul\":17395:17396   */\n      0x00\n        /* \"#utility.yul\":17387:17393   */\n      dup3\n        /* \"#utility.yul\":17383:17397   */\n      add\n        /* \"#utility.yul\":17376:17434   */\n      mstore\n        /* \"#utility.yul\":17468:17476   */\n      0x6464726573730000000000000000000000000000000000000000000000000000\n        /* \"#utility.yul\":17463:17465   */\n      0x20\n        /* \"#utility.yul\":17455:17461   */\n      dup3\n        /* \"#utility.yul\":17451:17466   */\n      add\n        /* \"#utility.yul\":17444:17477   */\n      mstore\n        /* \"#utility.yul\":17259:17484   */\n      pop\n      jump\t// out\n        /* \"#utility.yul\":17490:17856   */\n    tag_318:\n        /* \"#utility.yul\":17632:17635   */\n      0x00\n        /* \"#utility.yul\":17653:17720   */\n      tag_533\n        /* \"#utility.yul\":17717:17719   */\n      0x26\n        /* \"#utility.yul\":17712:17715   */\n      dup4\n        /* \"#utility.yul\":17653:17720   */\n      tag_263\n      jump\t// in\n    tag_533:\n        /* \"#utility.yul\":17646:17720   */\n      swap2\n      pop\n        /* \"#utility.yul\":17729:17822   */\n      tag_534\n        /* \"#utility.yul\":17818:17821   */\n      dup3\n        /* \"#utility.yul\":17729:17822   */\n      tag_317\n      jump\t// in\n    tag_534:\n        /* \"#utility.yul\":17847:17849   */\n      0x40\n        /* \"#utility.yul\":17842:17845   */\n      dup3\n        /* \"#utility.yul\":17838:17850   */\n      add\n        /* \"#utility.yul\":17831:17850   */\n      swap1\n      pop\n        /* \"#utility.yul\":17490:17856   */\n      swap2\n      swap1\n      pop\n      jump\t// out\n        /* \"#utility.yul\":17862:18281   */\n    tag_200:\n        /* \"#utility.yul\":18028:18032   */\n      0x00\n        /* \"#utility.yul\":18066:18068   */\n      0x20\n        /* \"#utility.yul\":18055:18064   */\n      dup3\n        /* \"#utility.yul\":18051:18069   */\n      add\n        /* \"#utility.yul\":18043:18069   */\n      swap1\n      pop\n        /* \"#utility.yul\":18115:18124   */\n      dup2\n        /* \"#utility.yul\":18109:18113   */\n      dup2\n        /* \"#utility.yul\":18105:18125   */\n      sub\n        /* \"#utility.yul\":18101:18102   */\n      0x00\n        /* \"#utility.yul\":18090:18099   */\n      dup4\n        /* \"#utility.yul\":18086:18103   */\n      add\n        /* \"#utility.yul\":18079:18126   */\n      mstore\n        /* \"#utility.yul\":18143:18274   */\n      tag_536\n        /* \"#utility.yul\":18269:18273   */\n      dup2\n        /* \"#utility.yul\":18143:18274   */\n      tag_318\n      jump\t// in\n    tag_536:\n        /* \"#utility.yul\":18135:18274   */\n      swap1\n      pop\n        /* \"#utility.yul\":17862:18281   */\n      swap2\n      swap1\n      pop\n      jump\t// out\n        /* \"#utility.yul\":18287:18510   */\n    tag_319:\n        /* \"#utility.yul\":18427:18461   */\n      0x45524332303a20617070726f76652066726f6d20746865207a65726f20616464\n        /* \"#utility.yul\":18423:18424   */\n      0x00\n        /* \"#utility.yul\":18415:18421   */\n      dup3\n        /* \"#utility.yul\":18411:18425   */\n      add\n        /* \"#utility.yul\":18404:18462   */\n      mstore\n        /* \"#utility.yul\":18496:18502   */\n      0x7265737300000000000000000000000000000000000000000000000000000000\n        /* \"#utility.yul\":18491:18493   */\n      0x20\n        /* \"#utility.yul\":18483:18489   */\n      dup3\n        /* \"#utility.yul\":18479:18494   */\n      add\n        /* \"#utility.yul\":18472:18503   */\n      mstore\n        /* \"#utility.yul\":18287:18510   */\n      pop\n      jump\t// out\n        /* \"#utility.yul\":18516:18882   */\n    tag_320:\n        /* \"#utility.yul\":18658:18661   */\n      0x00\n        /* \"#utility.yul\":18679:18746   */\n      tag_539\n        /* \"#utility.yul\":18743:18745   */\n      0x24\n        /* \"#utility.yul\":18738:18741   */\n      dup4\n        /* \"#utility.yul\":18679:18746   */\n      tag_263\n      jump\t// in\n    tag_539:\n        /* \"#utility.yul\":18672:18746   */\n      swap2\n      pop\n        /* \"#utility.yul\":18755:18848   */\n      tag_540\n        /* \"#utility.yul\":18844:18847   */\n      dup3\n        /* \"#utility.yul\":18755:18848   */\n      tag_319\n      jump\t// in\n    tag_540:\n        /* \"#utility.yul\":18873:18875   */\n      0x40\n        /* \"#utility.yul\":18868:18871   */\n      dup3\n        /* \"#utility.yul\":18864:18876   */\n      add\n        /* \"#utility.yul\":18857:18876   */\n      swap1\n      pop\n        /* \"#utility.yul\":18516:18882   */\n      swap2\n      swap1\n      pop\n      jump\t// out\n        /* \"#utility.yul\":18888:19307   */\n    tag_208:\n        /* \"#utility.yul\":19054:19058   */\n      0x00\n        /* \"#utility.yul\":19092:19094   */\n      0x20\n        /* \"#utility.yul\":19081:19090   */\n      dup3\n        /* \"#utility.yul\":19077:19095   */\n      add\n        /* \"#utility.yul\":19069:19095   */\n      swap1\n      pop\n        /* \"#utility.yul\":19141:19150   */\n      dup2\n        /* \"#utility.yul\":19135:19139   */\n      dup2\n        /* \"#utility.yul\":19131:19151   */\n      sub\n        /* \"#utility.yul\":19127:19128   */\n      0x00\n        /* \"#utility.yul\":19116:19125   */\n      dup4\n        /* \"#utility.yul\":19112:19129   */\n      add\n        /* \"#utility.yul\":19105:19152   */\n      mstore\n        /* \"#utility.yul\":19169:19300   */\n      tag_542\n        /* \"#utility.yul\":19295:19299   */\n      dup2\n        /* \"#utility.yul\":19169:19300   */\n      tag_320\n      jump\t// in\n    tag_542:\n        /* \"#utility.yul\":19161:19300   */\n      swap1\n      pop\n        /* \"#utility.yul\":18888:19307   */\n      swap2\n      swap1\n      pop\n      jump\t// out\n        /* \"#utility.yul\":19313:19534   */\n    tag_321:\n        /* \"#utility.yul\":19453:19487   */\n      0x45524332303a20617070726f766520746f20746865207a65726f206164647265\n        /* \"#utility.yul\":19449:19450   */\n      0x00\n        /* \"#utility.yul\":19441:19447   */\n      dup3\n        /* \"#utility.yul\":19437:19451   */\n      add\n        /* \"#utility.yul\":19430:19488   */\n      mstore\n        /* \"#utility.yul\":19522:19526   */\n      0x7373000000000000000000000000000000000000000000000000000000000000\n        /* \"#utility.yul\":19517:19519   */\n      0x20\n        /* \"#utility.yul\":19509:19515   */\n      dup3\n        /* \"#utility.yul\":19505:19520   */\n      add\n        /* \"#utility.yul\":19498:19527   */\n      mstore\n        /* \"#utility.yul\":19313:19534   */\n      pop\n      jump\t// out\n        /* \"#utility.yul\":19540:19906   */\n    tag_322:\n        /* \"#utility.yul\":19682:19685   */\n      0x00\n        /* \"#utility.yul\":19703:19770   */\n      tag_545\n        /* \"#utility.yul\":19767:19769   */\n      0x22\n        /* \"#utility.yul\":19762:19765   */\n      dup4\n        /* \"#utility.yul\":19703:19770   */\n      tag_263\n      jump\t// in\n    tag_545:\n        /* \"#utility.yul\":19696:19770   */\n      swap2\n      pop\n        /* \"#utility.yul\":19779:19872   */\n      tag_546\n        /* \"#utility.yul\":19868:19871   */\n      dup3\n        /* \"#utility.yul\":19779:19872   */\n      tag_321\n      jump\t// in\n    tag_546:\n        /* \"#utility.yul\":19897:19899   */\n      0x40\n        /* \"#utility.yul\":19892:19895   */\n      dup3\n        /* \"#utility.yul\":19888:19900   */\n      add\n        /* \"#utility.yul\":19881:19900   */\n      swap1\n      pop\n        /* \"#utility.yul\":19540:19906   */\n      swap2\n      swap1\n      pop\n      jump\t// out\n        /* \"#utility.yul\":19912:20331   */\n    tag_211:\n        /* \"#utility.yul\":20078:20082   */\n      0x00\n        /* \"#utility.yul\":20116:20118   */\n      0x20\n        /* \"#utility.yul\":20105:20114   */\n      dup3\n        /* \"#utility.yul\":20101:20119   */\n      add\n        /* \"#utility.yul\":20093:20119   */\n      swap1\n      pop\n        /* \"#utility.yul\":20165:20174   */\n      dup2\n        /* \"#utility.yul\":20159:20163   */\n      dup2\n        /* \"#utility.yul\":20155:20175   */\n      sub\n        /* \"#utility.yul\":20151:20152   */\n      0x00\n        /* \"#utility.yul\":20140:20149   */\n      dup4\n        /* \"#utility.yul\":20136:20153   */\n      add\n        /* \"#utility.yul\":20129:20176   */\n      mstore\n        /* \"#utility.yul\":20193:20324   */\n      tag_548\n        /* \"#utility.yul\":20319:20323   */\n      dup2\n        /* \"#utility.yul\":20193:20324   */\n      tag_322\n      jump\t// in\n    tag_548:\n        /* \"#utility.yul\":20185:20324   */\n      swap1\n      pop\n        /* \"#utility.yul\":19912:20331   */\n      swap2\n      swap1\n      pop\n      jump\t// out\n        /* \"#utility.yul\":20337:20516   */\n    tag_323:\n        /* \"#utility.yul\":20477:20508   */\n      0x45524332303a20696e73756666696369656e7420616c6c6f77616e6365000000\n        /* \"#utility.yul\":20473:20474   */\n      0x00\n        /* \"#utility.yul\":20465:20471   */\n      dup3\n        /* \"#utility.yul\":20461:20475   */\n      add\n        /* \"#utility.yul\":20454:20509   */\n      mstore\n        /* \"#utility.yul\":20337:20516   */\n      pop\n      jump\t// out\n        /* \"#utility.yul\":20522:20888   */\n    tag_324:\n        /* \"#utility.yul\":20664:20667   */\n      0x00\n        /* \"#utility.yul\":20685:20752   */\n      tag_551\n        /* \"#utility.yul\":20749:20751   */\n      0x1d\n        /* \"#utility.yul\":20744:20747   */\n      dup4\n        /* \"#utility.yul\":20685:20752   */\n      tag_263\n      jump\t// in\n    tag_551:\n        /* \"#utility.yul\":20678:20752   */\n      swap2\n      pop\n        /* \"#utility.yul\":20761:20854   */\n      tag_552\n        /* \"#utility.yul\":20850:20853   */\n      dup3\n        /* \"#utility.yul\":20761:20854   */\n      tag_323\n      jump\t// in\n    tag_552:\n        /* \"#utility.yul\":20879:20881   */\n      0x20\n        /* \"#utility.yul\":20874:20877   */\n      dup3\n        /* \"#utility.yul\":20870:20882   */\n      add\n        /* \"#utility.yul\":20863:20882   */\n      swap1\n      pop\n        /* \"#utility.yul\":20522:20888   */\n      swap2\n      swap1\n      pop\n      jump\t// out\n        /* \"#utility.yul\":20894:21313   */\n    tag_221:\n        /* \"#utility.yul\":21060:21064   */\n      0x00\n        /* \"#utility.yul\":21098:21100   */\n      0x20\n        /* \"#utility.yul\":21087:21096   */\n      dup3\n        /* \"#utility.yul\":21083:21101   */\n      add\n        /* \"#utility.yul\":21075:21101   */\n      swap1\n      pop\n        /* \"#utility.yul\":21147:21156   */\n      dup2\n        /* \"#utility.yul\":21141:21145   */\n      dup2\n        /* \"#utility.yul\":21137:21157   */\n      sub\n        /* \"#utility.yul\":21133:21134   */\n      0x00\n        /* \"#utility.yul\":21122:21131   */\n      dup4\n        /* \"#utility.yul\":21118:21135   */\n      add\n        /* \"#utility.yul\":21111:21158   */\n      mstore\n        /* \"#utility.yul\":21175:21306   */\n      tag_554\n        /* \"#utility.yul\":21301:21305   */\n      dup2\n        /* \"#utility.yul\":21175:21306   */\n      tag_324\n      jump\t// in\n    tag_554:\n        /* \"#utility.yul\":21167:21306   */\n      swap1\n      pop\n        /* \"#utility.yul\":20894:21313   */\n      swap2\n      swap1\n      pop\n      jump\t// out\n        /* \"#utility.yul\":21319:21543   */\n    tag_325:\n        /* \"#utility.yul\":21459:21493   */\n      0x45524332303a207472616e736665722066726f6d20746865207a65726f206164\n        /* \"#utility.yul\":21455:21456   */\n      0x00\n        /* \"#utility.yul\":21447:21453   */\n      dup3\n        /* \"#utility.yul\":21443:21457   */\n      add\n        /* \"#utility.yul\":21436:21494   */\n      mstore\n        /* \"#utility.yul\":21528:21535   */\n      0x6472657373000000000000000000000000000000000000000000000000000000\n        /* \"#utility.yul\":21523:21525   */\n      0x20\n        /* \"#utility.yul\":21515:21521   */\n      dup3\n        /* \"#utility.yul\":21511:21526   */\n      add\n        /* \"#utility.yul\":21504:21536   */\n      mstore\n        /* \"#utility.yul\":21319:21543   */\n      pop\n      jump\t// out\n        /* \"#utility.yul\":21549:21915   */\n    tag_326:\n        /* \"#utility.yul\":21691:21694   */\n      0x00\n        /* \"#utility.yul\":21712:21779   */\n      tag_557\n        /* \"#utility.yul\":21776:21778   */\n      0x25\n        /* \"#utility.yul\":21771:21774   */\n      dup4\n        /* \"#utility.yul\":21712:21779   */\n      tag_263\n      jump\t// in\n    tag_557:\n        /* \"#utility.yul\":21705:21779   */\n      swap2\n      pop\n        /* \"#utility.yul\":21788:21881   */\n      tag_558\n        /* \"#utility.yul\":21877:21880   */\n      dup3\n        /* \"#utility.yul\":21788:21881   */\n      tag_325\n      jump\t// in\n    tag_558:\n        /* \"#utility.yul\":21906:21908   */\n      0x40\n        /* \"#utility.yul\":21901:21904   */\n      dup3\n        /* \"#utility.yul\":21897:21909   */\n      add\n        /* \"#utility.yul\":21890:21909   */\n      swap1\n      pop\n        /* \"#utility.yul\":21549:21915   */\n      swap2\n      swap1\n      pop\n      jump\t// out\n        /* \"#utility.yul\":21921:22340   */\n    tag_226:\n        /* \"#utility.yul\":22087:22091   */\n      0x00\n        /* \"#utility.yul\":22125:22127   */\n      0x20\n        /* \"#utility.yul\":22114:22123   */\n      dup3\n        /* \"#utility.yul\":22110:22128   */\n      add\n        /* \"#utility.yul\":22102:22128   */\n      swap1\n      pop\n        /* \"#utility.yul\":22174:22183   */\n      dup2\n        /* \"#utility.yul\":22168:22172   */\n      dup2\n        /* \"#utility.yul\":22164:22184   */\n      sub\n        /* \"#utility.yul\":22160:22161   */\n      0x00\n        /* \"#utility.yul\":22149:22158   */\n      dup4\n        /* \"#utility.yul\":22145:22162   */\n      add\n        /* \"#utility.yul\":22138:22185   */\n      mstore\n        /* \"#utility.yul\":22202:22333   */\n      tag_560\n        /* \"#utility.yul\":22328:22332   */\n      dup2\n        /* \"#utility.yul\":22202:22333   */\n      tag_326\n      jump\t// in\n    tag_560:\n        /* \"#utility.yul\":22194:22333   */\n      swap1\n      pop\n        /* \"#utility.yul\":21921:22340   */\n      swap2\n      swap1\n      pop\n      jump\t// out\n        /* \"#utility.yul\":22346:22568   */\n    tag_327:\n        /* \"#utility.yul\":22486:22520   */\n      0x45524332303a207472616e7366657220746f20746865207a65726f2061646472\n        /* \"#utility.yul\":22482:22483   */\n      0x00\n        /* \"#utility.yul\":22474:22480   */\n      dup3\n        /* \"#utility.yul\":22470:22484   */\n      add\n        /* \"#utility.yul\":22463:22521   */\n      mstore\n        /* \"#utility.yul\":22555:22560   */\n      0x6573730000000000000000000000000000000000000000000000000000000000\n        /* \"#utility.yul\":22550:22552   */\n      0x20\n        /* \"#utility.yul\":22542:22548   */\n      dup3\n        /* \"#utility.yul\":22538:22553   */\n      add\n        /* \"#utility.yul\":22531:22561   */\n      mstore\n        /* \"#utility.yul\":22346:22568   */\n      pop\n      jump\t// out\n        /* \"#utility.yul\":22574:22940   */\n    tag_328:\n        /* \"#utility.yul\":22716:22719   */\n      0x00\n        /* \"#utility.yul\":22737:22804   */\n      tag_563\n        /* \"#utility.yul\":22801:22803   */\n      0x23\n        /* \"#utility.yul\":22796:22799   */\n      dup4\n        /* \"#utility.yul\":22737:22804   */\n      tag_263\n      jump\t// in\n    tag_563:\n        /* \"#utility.yul\":22730:22804   */\n      swap2\n      pop\n        /* \"#utility.yul\":22813:22906   */\n      tag_564\n        /* \"#utility.yul\":22902:22905   */\n      dup3\n        /* \"#utility.yul\":22813:22906   */\n      tag_327\n      jump\t// in\n    tag_564:\n        /* \"#utility.yul\":22931:22933   */\n      0x40\n        /* \"#utility.yul\":22926:22929   */\n      dup3\n        /* \"#utility.yul\":22922:22934   */\n      add\n        /* \"#utility.yul\":22915:22934   */\n      swap1\n      pop\n        /* \"#utility.yul\":22574:22940   */\n      swap2\n      swap1\n      pop\n      jump\t// out\n        /* \"#utility.yul\":22946:23365   */\n    tag_229:\n        /* \"#utility.yul\":23112:23116   */\n      0x00\n        /* \"#utility.yul\":23150:23152   */\n      0x20\n        /* \"#utility.yul\":23139:23148   */\n      dup3\n        /* \"#utility.yul\":23135:23153   */\n      add\n        /* \"#utility.yul\":23127:23153   */\n      swap1\n      pop\n        /* \"#utility.yul\":23199:23208   */\n      dup2\n        /* \"#utility.yul\":23193:23197   */\n      dup2\n        /* \"#utility.yul\":23189:23209   */\n      sub\n        /* \"#utility.yul\":23185:23186   */\n      0x00\n        /* \"#utility.yul\":23174:23183   */\n      dup4\n        /* \"#utility.yul\":23170:23187   */\n      add\n        /* \"#utility.yul\":23163:23210   */\n      mstore\n        /* \"#utility.yul\":23227:23358   */\n      tag_566\n        /* \"#utility.yul\":23353:23357   */\n      dup2\n        /* \"#utility.yul\":23227:23358   */\n      tag_328\n      jump\t// in\n    tag_566:\n        /* \"#utility.yul\":23219:23358   */\n      swap1\n      pop\n        /* \"#utility.yul\":22946:23365   */\n      swap2\n      swap1\n      pop\n      jump\t// out\n        /* \"#utility.yul\":23371:23596   */\n    tag_329:\n        /* \"#utility.yul\":23511:23545   */\n      0x45524332303a207472616e7366657220616d6f756e7420657863656564732062\n        /* \"#utility.yul\":23507:23508   */\n      0x00\n        /* \"#utility.yul\":23499:23505   */\n      dup3\n        /* \"#utility.yul\":23495:23509   */\n      add\n        /* \"#utility.yul\":23488:23546   */\n      mstore\n        /* \"#utility.yul\":23580:23588   */\n      0x616c616e63650000000000000000000000000000000000000000000000000000\n        /* \"#utility.yul\":23575:23577   */\n      0x20\n        /* \"#utility.yul\":23567:23573   */\n      dup3\n        /* \"#utility.yul\":23563:23578   */\n      add\n        /* \"#utility.yul\":23556:23589   */\n      mstore\n        /* \"#utility.yul\":23371:23596   */\n      pop\n      jump\t// out\n        /* \"#utility.yul\":23602:23968   */\n    tag_330:\n        /* \"#utility.yul\":23744:23747   */\n      0x00\n        /* \"#utility.yul\":23765:23832   */\n      tag_569\n        /* \"#utility.yul\":23829:23831   */\n      0x26\n        /* \"#utility.yul\":23824:23827   */\n      dup4\n        /* \"#utility.yul\":23765:23832   */\n      tag_263\n      jump\t// in\n    tag_569:\n        /* \"#utility.yul\":23758:23832   */\n      swap2\n      pop\n        /* \"#utility.yul\":23841:23934   */\n      tag_570\n        /* \"#utility.yul\":23930:23933   */\n      dup3\n        /* \"#utility.yul\":23841:23934   */\n      tag_329\n      jump\t// in\n    tag_570:\n        /* \"#utility.yul\":23959:23961   */\n      0x40\n        /* \"#utility.yul\":23954:23957   */\n      dup3\n        /* \"#utility.yul\":23950:23962   */\n      add\n        /* \"#utility.yul\":23943:23962   */\n      swap1\n      pop\n        /* \"#utility.yul\":23602:23968   */\n      swap2\n      swap1\n      pop\n      jump\t// out\n        /* \"#utility.yul\":23974:24393   */\n    tag_234:\n        /* \"#utility.yul\":24140:24144   */\n      0x00\n        /* \"#utility.yul\":24178:24180   */\n      0x20\n        /* \"#utility.yul\":24167:24176   */\n      dup3\n        /* \"#utility.yul\":24163:24181   */\n      add\n        /* \"#utility.yul\":24155:24181   */\n      swap1\n      pop\n        /* \"#utility.yul\":24227:24236   */\n      dup2\n        /* \"#utility.yul\":24221:24225   */\n      dup2\n        /* \"#utility.yul\":24217:24237   */\n      sub\n        /* \"#utility.yul\":24213:24214   */\n      0x00\n        /* \"#utility.yul\":24202:24211   */\n      dup4\n        /* \"#utility.yul\":24198:24215   */\n      add\n        /* \"#utility.yul\":24191:24238   */\n      mstore\n        /* \"#utility.yul\":24255:24386   */\n      tag_572\n        /* \"#utility.yul\":24381:24385   */\n      dup2\n        /* \"#utility.yul\":24255:24386   */\n      tag_330\n      jump\t// in\n    tag_572:\n        /* \"#utility.yul\":24247:24386   */\n      swap1\n      pop\n        /* \"#utility.yul\":23974:24393   */\n      swap2\n      swap1\n      pop\n      jump\t// out\n        /* \"#utility.yul\":24399:24581   */\n    tag_331:\n        /* \"#utility.yul\":24539:24573   */\n      0x4f776e61626c653a2063616c6c6572206973206e6f7420746865206f776e6572\n        /* \"#utility.yul\":24535:24536   */\n      0x00\n        /* \"#utility.yul\":24527:24533   */\n      dup3\n        /* \"#utility.yul\":24523:24537   */\n      add\n        /* \"#utility.yul\":24516:24574   */\n      mstore\n        /* \"#utility.yul\":24399:24581   */\n      pop\n      jump\t// out\n        /* \"#utility.yul\":24587:24953   */\n    tag_332:\n        /* \"#utility.yul\":24729:24732   */\n      0x00\n        /* \"#utility.yul\":24750:24817   */\n      tag_575\n        /* \"#utility.yul\":24814:24816   */\n      0x20\n        /* \"#utility.yul\":24809:24812   */\n      dup4\n        /* \"#utility.yul\":24750:24817   */\n      tag_263\n      jump\t// in\n    tag_575:\n        /* \"#utility.yul\":24743:24817   */\n      swap2\n      pop\n        /* \"#utility.yul\":24826:24919   */\n      tag_576\n        /* \"#utility.yul\":24915:24918   */\n      dup3\n        /* \"#utility.yul\":24826:24919   */\n      tag_331\n      jump\t// in\n    tag_576:\n        /* \"#utility.yul\":24944:24946   */\n      0x20\n        /* \"#utility.yul\":24939:24942   */\n      dup3\n        /* \"#utility.yul\":24935:24947   */\n      add\n        /* \"#utility.yul\":24928:24947   */\n      swap1\n      pop\n        /* \"#utility.yul\":24587:24953   */\n      swap2\n      swap1\n      pop\n      jump\t// out\n        /* \"#utility.yul\":24959:25378   */\n    tag_243:\n        /* \"#utility.yul\":25125:25129   */\n      0x00\n        /* \"#utility.yul\":25163:25165   */\n      0x20\n        /* \"#utility.yul\":25152:25161   */\n      dup3\n        /* \"#utility.yul\":25148:25166   */\n      add\n        /* \"#utility.yul\":25140:25166   */\n      swap1\n      pop\n        /* \"#utility.yul\":25212:25221   */\n      dup2\n        /* \"#utility.yul\":25206:25210   */\n      dup2\n        /* \"#utility.yul\":25202:25222   */\n      sub\n        /* \"#utility.yul\":25198:25199   */\n      0x00\n        /* \"#utility.yul\":25187:25196   */\n      dup4\n        /* \"#utility.yul\":25183:25200   */\n      add\n        /* \"#utility.yul\":25176:25223   */\n      mstore\n        /* \"#utility.yul\":25240:25371   */\n      tag_578\n        /* \"#utility.yul\":25366:25370   */\n      dup2\n        /* \"#utility.yul\":25240:25371   */\n      tag_332\n      jump\t// in\n    tag_578:\n        /* \"#utility.yul\":25232:25371   */\n      swap1\n      pop\n        /* \"#utility.yul\":24959:25378   */\n      swap2\n      swap1\n      pop\n      jump\t// out\n        /* \"#utility.yul\":25384:25565   */\n    tag_333:\n        /* \"#utility.yul\":25524:25557   */\n      0x45524332303a206d696e7420746f20746865207a65726f206164647265737300\n        /* \"#utility.yul\":25520:25521   */\n      0x00\n        /* \"#utility.yul\":25512:25518   */\n      dup3\n        /* \"#utility.yul\":25508:25522   */\n      add\n        /* \"#utility.yul\":25501:25558   */\n      mstore\n        /* \"#utility.yul\":25384:25565   */\n      pop\n      jump\t// out\n        /* \"#utility.yul\":25571:25937   */\n    tag_334:\n        /* \"#utility.yul\":25713:25716   */\n      0x00\n        /* \"#utility.yul\":25734:25801   */\n      tag_581\n        /* \"#utility.yul\":25798:25800   */\n      0x1f\n        /* \"#utility.yul\":25793:25796   */\n      dup4\n        /* \"#utility.yul\":25734:25801   */\n      tag_263\n      jump\t// in\n    tag_581:\n        /* \"#utility.yul\":25727:25801   */\n      swap2\n      pop\n        /* \"#utility.yul\":25810:25903   */\n      tag_582\n        /* \"#utility.yul\":25899:25902   */\n      dup3\n        /* \"#utility.yul\":25810:25903   */\n      tag_333\n      jump\t// in\n    tag_582:\n        /* \"#utility.yul\":25928:25930   */\n      0x20\n        /* \"#utility.yul\":25923:25926   */\n      dup3\n        /* \"#utility.yul\":25919:25931   */\n      add\n        /* \"#utility.yul\":25912:25931   */\n      swap1\n      pop\n        /* \"#utility.yul\":25571:25937   */\n      swap2\n      swap1\n      pop\n      jump\t// out\n        /* \"#utility.yul\":25943:26362   */\n    tag_247:\n        /* \"#utility.yul\":26109:26113   */\n      0x00\n        /* \"#utility.yul\":26147:26149   */\n      0x20\n        /* \"#utility.yul\":26136:26145   */\n      dup3\n        /* \"#utility.yul\":26132:26150   */\n      add\n        /* \"#utility.yul\":26124:26150   */\n      swap1\n      pop\n        /* \"#utility.yul\":26196:26205   */\n      dup2\n        /* \"#utility.yul\":26190:26194   */\n      dup2\n        /* \"#utility.yul\":26186:26206   */\n      sub\n        /* \"#utility.yul\":26182:26183   */\n      0x00\n        /* \"#utility.yul\":26171:26180   */\n      dup4\n        /* \"#utility.yul\":26167:26184   */\n      add\n        /* \"#utility.yul\":26160:26207   */\n      mstore\n        /* \"#utility.yul\":26224:26355   */\n      tag_584\n        /* \"#utility.yul\":26350:26354   */\n      dup2\n        /* \"#utility.yul\":26224:26355   */\n      tag_334\n      jump\t// in\n    tag_584:\n        /* \"#utility.yul\":26216:26355   */\n      swap1\n      pop\n        /* \"#utility.yul\":25943:26362   */\n      swap2\n      swap1\n      pop\n      jump\t// out\n\n    auxdata: 0xa2646970667358221220861cbba23ae2aacf32a9d517c91d45bec0c4399f59592f56499fd9abb72c485564736f6c63430008110033\n}\n",
				"bytecode": {
					"linkReferences": {},
					"object": "6101006040526127106006553480156200001857600080fd5b5060405162002c1f38038062002c1f83398181016040528101906200003e91906200054d565b836040518060400160405280600681526020017f45524332304b00000000000000000000000000000000000000000000000000008152506040518060400160405280600381526020017f45524b00000000000000000000000000000000000000000000000000000000008152508160039081620000bc919062000839565b508060049081620000ce919062000839565b5050508073ffffffffffffffffffffffffffffffffffffffff1660808173ffffffffffffffffffffffffffffffffffffffff168152505050620001266200011a6200021e60201b60201c565b6200022660201b60201c565b8373ffffffffffffffffffffffffffffffffffffffff1660a08173ffffffffffffffffffffffffffffffffffffffff168152505080600960006101000a81548173ffffffffffffffffffffffffffffffffffffffff021916908373ffffffffffffffffffffffffffffffffffffffff1602179055508260e0818152505033600c60006101000a81548173ffffffffffffffffffffffffffffffffffffffff021916908373ffffffffffffffffffffffffffffffffffffffff1602179055508167ffffffffffffffff1660c08167ffffffffffffffff16815250506200021433600654620002ec60201b60201c565b5050505062000a3b565b600033905090565b6000600560009054906101000a900473ffffffffffffffffffffffffffffffffffffffff16905081600560006101000a81548173ffffffffffffffffffffffffffffffffffffffff021916908373ffffffffffffffffffffffffffffffffffffffff1602179055508173ffffffffffffffffffffffffffffffffffffffff168173ffffffffffffffffffffffffffffffffffffffff167f8be0079c531659141344cd1fd0a4f28419497f9722a3daafe3b4186f6b6457e060405160405180910390a35050565b600073ffffffffffffffffffffffffffffffffffffffff168273ffffffffffffffffffffffffffffffffffffffff16036200035e576040517f08c379a0000000000000000000000000000000000000000000000000000000008152600401620003559062000981565b60405180910390fd5b62000372600083836200045960201b60201c565b8060026000828254620003869190620009d2565b92505081905550806000808473ffffffffffffffffffffffffffffffffffffffff1673ffffffffffffffffffffffffffffffffffffffff168152602001908152602001600020600082825401925050819055508173ffffffffffffffffffffffffffffffffffffffff16600073ffffffffffffffffffffffffffffffffffffffff167fddf252ad1be2c89b69c2b068fc378daa952ba7f163c4a11628f55a4df523b3ef8360405162000439919062000a1e565b60405180910390a362000455600083836200045e60201b60201c565b5050565b505050565b505050565b600080fd5b600073ffffffffffffffffffffffffffffffffffffffff82169050919050565b6000620004958262000468565b9050919050565b620004a78162000488565b8114620004b357600080fd5b50565b600081519050620004c7816200049c565b92915050565b6000819050919050565b620004e281620004cd565b8114620004ee57600080fd5b50565b6000815190506200050281620004d7565b92915050565b600067ffffffffffffffff82169050919050565b620005278162000508565b81146200053357600080fd5b50565b60008151905062000547816200051c565b92915050565b600080600080608085870312156200056a576200056962000463565b5b60006200057a87828801620004b6565b94505060206200058d87828801620004f1565b9350506040620005a08782880162000536565b9250506060620005b387828801620004b6565b91505092959194509250565b600081519050919050565b7f4e487b7100000000000000000000000000000000000000000000000000000000600052604160045260246000fd5b7f4e487b7100000000000000000000000000000000000000000000000000000000600052602260045260246000fd5b600060028204905060018216806200064157607f821691505b602082108103620006575762000656620005f9565b5b50919050565b60008190508160005260206000209050919050565b60006020601f8301049050919050565b600082821b905092915050565b600060088302620006c17fffffffffffffffffffffffffffffffffffffffffffffffffffffffffffffffff8262000682565b620006cd868362000682565b95508019841693508086168417925050509392505050565b6000819050919050565b6000819050919050565b60006200071a620007146200070e84620006e5565b620006ef565b620006e5565b9050919050565b6000819050919050565b6200073683620006f9565b6200074e620007458262000721565b8484546200068f565b825550505050565b600090565b6200076562000756565b620007728184846200072b565b505050565b5b818110156200079a576200078e6000826200075b565b60018101905062000778565b5050565b601f821115620007e957620007b3816200065d565b620007be8462000672565b81016020851015620007ce578190505b620007e6620007dd8562000672565b83018262000777565b50505b505050565b600082821c905092915050565b60006200080e60001984600802620007ee565b1980831691505092915050565b6000620008298383620007fb565b9150826002028217905092915050565b6200084482620005bf565b67ffffffffffffffff81111562000860576200085f620005ca565b5b6200086c825462000628565b620008798282856200079e565b600060209050601f831160018114620008b157600084156200089c578287015190505b620008a885826200081b565b86555062000918565b601f198416620008c1866200065d565b60005b82811015620008eb57848901518255600182019150602085019450602081019050620008c4565b868310156200090b578489015162000907601f891682620007fb565b8355505b6001600288020188555050505b505050505050565b600082825260208201905092915050565b7f45524332303a206d696e7420746f20746865207a65726f206164647265737300600082015250565b600062000969601f8362000920565b9150620009768262000931565b602082019050919050565b600060208201905081810360008301526200099c816200095a565b9050919050565b7f4e487b7100000000000000000000000000000000000000000000000000000000600052601160045260246000fd5b6000620009df82620006e5565b9150620009ec83620006e5565b925082820190508082111562000a075762000a06620009a3565b5b92915050565b62000a1881620006e5565b82525050565b600060208201905062000a35600083018462000a0d565b92915050565b60805160a05160c05160e0516121a362000a7c60003960006109ba015260006109db0152600061097e0152600081816104fc015261055001526121a36000f3fe608060405234801561001057600080fd5b50600436106101425760003560e01c80638da5cb5b116100b8578063beabacc81161007c578063beabacc81461037b578063dd62ed3e14610397578063e0c86289146103c7578063e89e106a146103d1578063f2fde38b146103ef578063f6eaffc81461040b57610142565b80638da5cb5b146102c15780638e15f473146102df57806395d89b41146102fd578063a457c2d71461031b578063a9059cbb1461034b57610142565b8063313ce5671161010a578063313ce567146101ff578063395093511461021d57806340c10f191461024d57806370a0823114610269578063715018a614610299578063741bef1a146102a357610142565b806306fdde0314610147578063095ea7b31461016557806318160ddd146101955780631fe543e3146101b357806323b872dd146101cf575b600080fd5b61014f61043b565b60405161015c91906113a6565b60405180910390f35b61017f600480360381019061017a9190611470565b6104cd565b60405161018c91906114cb565b60405180910390f35b61019d6104f0565b6040516101aa91906114f5565b60405180910390f35b6101cd60048036038101906101c89190611658565b6104fa565b005b6101e960048036038101906101e491906116b4565b6105ba565b6040516101f691906114cb565b60405180910390f35b6102076105e9565b6040516102149190611723565b60405180910390f35b61023760048036038101906102329190611470565b6105f2565b60405161024491906114cb565b60405180910390f35b61026760048036038101906102629190611470565b610629565b005b610283600480360381019061027e919061173e565b61063f565b60405161029091906114f5565b60405180910390f35b6102a1610687565b005b6102ab61069b565b6040516102b891906117ca565b60405180910390f35b6102c96106c1565b6040516102d691906117f4565b60405180910390f35b6102e76106eb565b6040516102f49190611828565b60405180910390f35b6103056107a9565b60405161031291906113a6565b60405180910390f35b61033560048036038101906103309190611470565b61083b565b60405161034291906114cb565b60405180910390f35b61036560048036038101906103609190611470565b6108b2565b60405161037291906114cb565b60405180910390f35b610395600480360381019061039091906116b4565b6108d5565b005b6103b160048036038101906103ac9190611843565b6108ed565b6040516103be91906114f5565b60405180910390f35b6103cf610974565b005b6103d9610a6d565b6040516103e691906114f5565b60405180910390f35b6104096004803603810190610404919061173e565b610a73565b005b61042560048036038101906104209190611883565b610af6565b60405161043291906114f5565b60405180910390f35b60606003805461044a906118df565b80601f0160208091040260200160405190810160405280929190818152602001828054610476906118df565b80156104c35780601f10610498576101008083540402835291602001916104c3565b820191906000526020600020905b8154815290600101906020018083116104a657829003601f168201915b5050505050905090565b6000806104d8610b1a565b90506104e5818585610b22565b600191505092915050565b6000600254905090565b7f000000000000000000000000000000000000000000000000000000000000000073ffffffffffffffffffffffffffffffffffffffff163373ffffffffffffffffffffffffffffffffffffffff16146105ac57337f00000000000000000000000000000000000000000000000000000000000000006040517f1cf993f40000000000000000000000000000000000000000000000000000000081526004016105a3929190611910565b60405180910390fd5b6105b68282610ceb565b5050565b6000806105c5610b1a565b90506105d2858285610d06565b6105dd858585610d92565b60019150509392505050565b60006012905090565b6000806105fd610b1a565b905061061e81858561060f85896108ed565b6106199190611968565b610b22565b600191505092915050565b610631611008565b61063b8282611086565b5050565b60008060008373ffffffffffffffffffffffffffffffffffffffff1673ffffffffffffffffffffffffffffffffffffffff168152602001908152602001600020549050919050565b61068f611008565b61069960006111dc565b565b600960009054906101000a900473ffffffffffffffffffffffffffffffffffffffff1681565b6000600560009054906101000a900473ffffffffffffffffffffffffffffffffffffffff16905090565b600080600080600080600960009054906101000a900473ffffffffffffffffffffffffffffffffffffffff1673ffffffffffffffffffffffffffffffffffffffff1663feaf968c6040518163ffffffff1660e01b815260040160a060405180830381865afa158015610761573d6000803e3d6000fd5b505050506040513d601f19601f820116820180604052508101906107859190611a1f565b945094509450945094506305f5e1008461079f9190611ac9565b9550505050505090565b6060600480546107b8906118df565b80601f01602080910402602001604051908101604052809291908181526020018280546107e4906118df565b80156108315780601f1061080657610100808354040283529160200191610831565b820191906000526020600020905b81548152906001019060200180831161081457829003601f168201915b5050505050905090565b600080610846610b1a565b9050600061085482866108ed565b905083811015610899576040517f08c379a000000000000000000000000000000000000000000000000000000000815260040161089090611ba5565b60405180910390fd5b6108a68286868403610b22565b60019250505092915050565b6000806108bd610b1a565b90506108ca818585610d92565b600191505092915050565b6108dd611008565b6108e8838383610d92565b505050565b6000600160008473ffffffffffffffffffffffffffffffffffffffff1673ffffffffffffffffffffffffffffffffffffffff16815260200190815260200160002060008373ffffffffffffffffffffffffffffffffffffffff1673ffffffffffffffffffffffffffffffffffffffff16815260200190815260200160002054905092915050565b61097c611008565b7f000000000000000000000000000000000000000000000000000000000000000073ffffffffffffffffffffffffffffffffffffffff16635d3b1d307f00000000000000000000000000000000000000000000000000000000000000007f00000000000000000000000000000000000000000000000000000000000000006003620186a060026040518663ffffffff1660e01b8152600401610a22959493929190611c3d565b6020604051808303816000875af1158015610a41573d6000803e3d6000fd5b505050506040513d601f19601f82011682018060405250810190610a659190611c90565b600b81905550565b600b5481565b610a7b611008565b600073ffffffffffffffffffffffffffffffffffffffff168173ffffffffffffffffffffffffffffffffffffffff1603610aea576040517f08c379a0000000000000000000000000000000000000000000000000000000008152600401610ae190611d2f565b60405180910390fd5b610af3816111dc565b50565b600a8181548110610b0657600080fd5b906000526020600020016000915090505481565b600033905090565b600073ffffffffffffffffffffffffffffffffffffffff168373ffffffffffffffffffffffffffffffffffffffff1603610b91576040517f08c379a0000000000000000000000000000000000000000000000000000000008152600401610b8890611dc1565b60405180910390fd5b600073ffffffffffffffffffffffffffffffffffffffff168273ffffffffffffffffffffffffffffffffffffffff1603610c00576040517f08c379a0000000000000000000000000000000000000000000000000000000008152600401610bf790611e53565b60405180910390fd5b80600160008573ffffffffffffffffffffffffffffffffffffffff1673ffffffffffffffffffffffffffffffffffffffff16815260200190815260200160002060008473ffffffffffffffffffffffffffffffffffffffff1673ffffffffffffffffffffffffffffffffffffffff168152602001908152602001600020819055508173ffffffffffffffffffffffffffffffffffffffff168373ffffffffffffffffffffffffffffffffffffffff167f8c5be1e5ebec7d5bd14f71427d1e84f3dd0314c0f7b2291e5b200ac8c7c3b92583604051610cde91906114f5565b60405180910390a3505050565b80600a9080519060200190610d019291906112ac565b505050565b6000610d1284846108ed565b90507fffffffffffffffffffffffffffffffffffffffffffffffffffffffffffffffff8114610d8c5781811015610d7e576040517f08c379a0000000000000000000000000000000000000000000000000000000008152600401610d7590611ebf565b60405180910390fd5b610d8b8484848403610b22565b5b50505050565b600073ffffffffffffffffffffffffffffffffffffffff168373ffffffffffffffffffffffffffffffffffffffff1603610e01576040517f08c379a0000000000000000000000000000000000000000000000000000000008152600401610df890611f51565b60405180910390fd5b600073ffffffffffffffffffffffffffffffffffffffff168273ffffffffffffffffffffffffffffffffffffffff1603610e70576040517f08c379a0000000000000000000000000000000000000000000000000000000008152600401610e6790611fe3565b60405180910390fd5b610e7b8383836112a2565b60008060008573ffffffffffffffffffffffffffffffffffffffff1673ffffffffffffffffffffffffffffffffffffffff16815260200190815260200160002054905081811015610f01576040517f08c379a0000000000000000000000000000000000000000000000000000000008152600401610ef890612075565b60405180910390fd5b8181036000808673ffffffffffffffffffffffffffffffffffffffff1673ffffffffffffffffffffffffffffffffffffffff16815260200190815260200160002081905550816000808573ffffffffffffffffffffffffffffffffffffffff1673ffffffffffffffffffffffffffffffffffffffff168152602001908152602001600020600082825401925050819055508273ffffffffffffffffffffffffffffffffffffffff168473ffffffffffffffffffffffffffffffffffffffff167fddf252ad1be2c89b69c2b068fc378daa952ba7f163c4a11628f55a4df523b3ef84604051610fef91906114f5565b60405180910390a36110028484846112a7565b50505050565b611010610b1a565b73ffffffffffffffffffffffffffffffffffffffff1661102e6106c1565b73ffffffffffffffffffffffffffffffffffffffff1614611084576040517f08c379a000000000000000000000000000000000000000000000000000000000815260040161107b906120e1565b60405180910390fd5b565b600073ffffffffffffffffffffffffffffffffffffffff168273ffffffffffffffffffffffffffffffffffffffff16036110f5576040517f08c379a00000000000000000000000000000000000000000000000000000000081526004016110ec9061214d565b60405180910390fd5b611101600083836112a2565b80600260008282546111139190611968565b92505081905550806000808473ffffffffffffffffffffffffffffffffffffffff1673ffffffffffffffffffffffffffffffffffffffff168152602001908152602001600020600082825401925050819055508173ffffffffffffffffffffffffffffffffffffffff16600073ffffffffffffffffffffffffffffffffffffffff167fddf252ad1be2c89b69c2b068fc378daa952ba7f163c4a11628f55a4df523b3ef836040516111c491906114f5565b60405180910390a36111d8600083836112a7565b5050565b6000600560009054906101000a900473ffffffffffffffffffffffffffffffffffffffff16905081600560006101000a81548173ffffffffffffffffffffffffffffffffffffffff021916908373ffffffffffffffffffffffffffffffffffffffff1602179055508173ffffffffffffffffffffffffffffffffffffffff168173ffffffffffffffffffffffffffffffffffffffff167f8be0079c531659141344cd1fd0a4f28419497f9722a3daafe3b4186f6b6457e060405160405180910390a35050565b505050565b505050565b8280548282559060005260206000209081019282156112e8579160200282015b828111156112e75782518255916020019190600101906112cc565b5b5090506112f591906112f9565b5090565b5b808211156113125760008160009055506001016112fa565b5090565b600081519050919050565b600082825260208201905092915050565b60005b83811015611350578082015181840152602081019050611335565b60008484015250505050565b6000601f19601f8301169050919050565b600061137882611316565b6113828185611321565b9350611392818560208601611332565b61139b8161135c565b840191505092915050565b600060208201905081810360008301526113c0818461136d565b905092915050565b6000604051905090565b600080fd5b600080fd5b600073ffffffffffffffffffffffffffffffffffffffff82169050919050565b6000611407826113dc565b9050919050565b611417816113fc565b811461142257600080fd5b50565b6000813590506114348161140e565b92915050565b6000819050919050565b61144d8161143a565b811461145857600080fd5b50565b60008135905061146a81611444565b92915050565b60008060408385031215611487576114866113d2565b5b600061149585828601611425565b92505060206114a68582860161145b565b9150509250929050565b60008115159050919050565b6114c5816114b0565b82525050565b60006020820190506114e060008301846114bc565b92915050565b6114ef8161143a565b82525050565b600060208201905061150a60008301846114e6565b92915050565b600080fd5b7f4e487b7100000000000000000000000000000000000000000000000000000000600052604160045260246000fd5b61154d8261135c565b810181811067ffffffffffffffff8211171561156c5761156b611515565b5b80604052505050565b600061157f6113c8565b905061158b8282611544565b919050565b600067ffffffffffffffff8211156115ab576115aa611515565b5b602082029050602081019050919050565b600080fd5b60006115d46115cf84611590565b611575565b905080838252602082019050602084028301858111156115f7576115f66115bc565b5b835b81811015611620578061160c888261145b565b8452602084019350506020810190506115f9565b5050509392505050565b600082601f83011261163f5761163e611510565b5b813561164f8482602086016115c1565b91505092915050565b6000806040838503121561166f5761166e6113d2565b5b600061167d8582860161145b565b925050602083013567ffffffffffffffff81111561169e5761169d6113d7565b5b6116aa8582860161162a565b9150509250929050565b6000806000606084860312156116cd576116cc6113d2565b5b60006116db86828701611425565b93505060206116ec86828701611425565b92505060406116fd8682870161145b565b9150509250925092565b600060ff82169050919050565b61171d81611707565b82525050565b60006020820190506117386000830184611714565b92915050565b600060208284031215611754576117536113d2565b5b600061176284828501611425565b91505092915050565b6000819050919050565b600061179061178b611786846113dc565b61176b565b6113dc565b9050919050565b60006117a282611775565b9050919050565b60006117b482611797565b9050919050565b6117c4816117a9565b82525050565b60006020820190506117df60008301846117bb565b92915050565b6117ee816113fc565b82525050565b600060208201905061180960008301846117e5565b92915050565b6000819050919050565b6118228161180f565b82525050565b600060208201905061183d6000830184611819565b92915050565b6000806040838503121561185a576118596113d2565b5b600061186885828601611425565b925050602061187985828601611425565b9150509250929050565b600060208284031215611899576118986113d2565b5b60006118a78482850161145b565b91505092915050565b7f4e487b7100000000000000000000000000000000000000000000000000000000600052602260045260246000fd5b600060028204905060018216806118f757607f821691505b60208210810361190a576119096118b0565b5b50919050565b600060408201905061192560008301856117e5565b61193260208301846117e5565b9392505050565b7f4e487b7100000000000000000000000000000000000000000000000000000000600052601160045260246000fd5b60006119738261143a565b915061197e8361143a565b925082820190508082111561199657611995611939565b5b92915050565b600069ffffffffffffffffffff82169050919050565b6119bb8161199c565b81146119c657600080fd5b50565b6000815190506119d8816119b2565b92915050565b6119e78161180f565b81146119f257600080fd5b50565b600081519050611a04816119de565b92915050565b600081519050611a1981611444565b92915050565b600080600080600060a08688031215611a3b57611a3a6113d2565b5b6000611a49888289016119c9565b9550506020611a5a888289016119f5565b9450506040611a6b88828901611a0a565b9350506060611a7c88828901611a0a565b9250506080611a8d888289016119c9565b9150509295509295909350565b7f4e487b7100000000000000000000000000000000000000000000000000000000600052601260045260246000fd5b6000611ad48261180f565b9150611adf8361180f565b925082611aef57611aee611a9a565b5b600160000383147f800000000000000000000000000000000000000000000000000000000000000083141615611b2857611b27611939565b5b828205905092915050565b7f45524332303a2064656372656173656420616c6c6f77616e63652062656c6f7760008201527f207a65726f000000000000000000000000000000000000000000000000000000602082015250565b6000611b8f602583611321565b9150611b9a82611b33565b604082019050919050565b60006020820190508181036000830152611bbe81611b82565b9050919050565b6000819050919050565b611bd881611bc5565b82525050565b600067ffffffffffffffff82169050919050565b611bfb81611bde565b82525050565b600061ffff82169050919050565b611c1881611c01565b82525050565b600063ffffffff82169050919050565b611c3781611c1e565b82525050565b600060a082019050611c526000830188611bcf565b611c5f6020830187611bf2565b611c6c6040830186611c0f565b611c796060830185611c2e565b611c866080830184611c2e565b9695505050505050565b600060208284031215611ca657611ca56113d2565b5b6000611cb484828501611a0a565b91505092915050565b7f4f776e61626c653a206e6577206f776e657220697320746865207a65726f206160008201527f6464726573730000000000000000000000000000000000000000000000000000602082015250565b6000611d19602683611321565b9150611d2482611cbd565b604082019050919050565b60006020820190508181036000830152611d4881611d0c565b9050919050565b7f45524332303a20617070726f76652066726f6d20746865207a65726f2061646460008201527f7265737300000000000000000000000000000000000000000000000000000000602082015250565b6000611dab602483611321565b9150611db682611d4f565b604082019050919050565b60006020820190508181036000830152611dda81611d9e565b9050919050565b7f45524332303a20617070726f766520746f20746865207a65726f20616464726560008201527f7373000000000000000000000000000000000000000000000000000000000000602082015250565b6000611e3d602283611321565b9150611e4882611de1565b604082019050919050565b60006020820190508181036000830152611e6c81611e30565b9050919050565b7f45524332303a20696e73756666696369656e7420616c6c6f77616e6365000000600082015250565b6000611ea9601d83611321565b9150611eb482611e73565b602082019050919050565b60006020820190508181036000830152611ed881611e9c565b9050919050565b7f45524332303a207472616e736665722066726f6d20746865207a65726f20616460008201527f6472657373000000000000000000000000000000000000000000000000000000602082015250565b6000611f3b602583611321565b9150611f4682611edf565b604082019050919050565b60006020820190508181036000830152611f6a81611f2e565b9050919050565b7f45524332303a207472616e7366657220746f20746865207a65726f206164647260008201527f6573730000000000000000000000000000000000000000000000000000000000602082015250565b6000611fcd602383611321565b9150611fd882611f71565b604082019050919050565b60006020820190508181036000830152611ffc81611fc0565b9050919050565b7f45524332303a207472616e7366657220616d6f756e742065786365656473206260008201527f616c616e63650000000000000000000000000000000000000000000000000000602082015250565b600061205f602683611321565b915061206a82612003565b604082019050919050565b6000602082019050818103600083015261208e81612052565b9050919050565b7f4f776e61626c653a2063616c6c6572206973206e6f7420746865206f776e6572600082015250565b60006120cb602083611321565b91506120d682612095565b602082019050919050565b600060208201905081810360008301526120fa816120be565b9050919050565b7f45524332303a206d696e7420746f20746865207a65726f206164647265737300600082015250565b6000612137601f83611321565b915061214282612101565b602082019050919050565b600060208201905081810360008301526121668161212a565b905091905056fea2646970667358221220861cbba23ae2aacf32a9d517c91d45bec0c4399f59592f56499fd9abb72c485564736f6c63430008110033",
					"opcodes": "PUSH2 0x100 PUSH1 0x40 MSTORE PUSH2 0x2710 PUSH1 0x6 SSTORE CALLVALUE DUP1 ISZERO PUSH3 0x18 JUMPI PUSH1 0x0 DUP1 REVERT JUMPDEST POP PUSH1 0x40 MLOAD PUSH3 0x2C1F CODESIZE SUB DUP1 PUSH3 0x2C1F DUP4 CODECOPY DUP2 DUP2 ADD PUSH1 0x40 MSTORE DUP2 ADD SWAP1 PUSH3 0x3E SWAP2 SWAP1 PUSH3 0x54D JUMP JUMPDEST DUP4 PUSH1 0x40 MLOAD DUP1 PUSH1 0x40 ADD PUSH1 0x40 MSTORE DUP1 PUSH1 0x6 DUP2 MSTORE PUSH1 0x20 ADD PUSH32 0x45524332304B0000000000000000000000000000000000000000000000000000 DUP2 MSTORE POP PUSH1 0x40 MLOAD DUP1 PUSH1 0x40 ADD PUSH1 0x40 MSTORE DUP1 PUSH1 0x3 DUP2 MSTORE PUSH1 0x20 ADD PUSH32 0x45524B0000000000000000000000000000000000000000000000000000000000 DUP2 MSTORE POP DUP2 PUSH1 0x3 SWAP1 DUP2 PUSH3 0xBC SWAP2 SWAP1 PUSH3 0x839 JUMP JUMPDEST POP DUP1 PUSH1 0x4 SWAP1 DUP2 PUSH3 0xCE SWAP2 SWAP1 PUSH3 0x839 JUMP JUMPDEST POP POP POP DUP1 PUSH20 0xFFFFFFFFFFFFFFFFFFFFFFFFFFFFFFFFFFFFFFFF AND PUSH1 0x80 DUP2 PUSH20 0xFFFFFFFFFFFFFFFFFFFFFFFFFFFFFFFFFFFFFFFF AND DUP2 MSTORE POP POP POP PUSH3 0x126 PUSH3 0x11A PUSH3 0x21E PUSH1 0x20 SHL PUSH1 0x20 SHR JUMP JUMPDEST PUSH3 0x226 PUSH1 0x20 SHL PUSH1 0x20 SHR JUMP JUMPDEST DUP4 PUSH20 0xFFFFFFFFFFFFFFFFFFFFFFFFFFFFFFFFFFFFFFFF AND PUSH1 0xA0 DUP2 PUSH20 0xFFFFFFFFFFFFFFFFFFFFFFFFFFFFFFFFFFFFFFFF AND DUP2 MSTORE POP POP DUP1 PUSH1 0x9 PUSH1 0x0 PUSH2 0x100 EXP DUP2 SLOAD DUP2 PUSH20 0xFFFFFFFFFFFFFFFFFFFFFFFFFFFFFFFFFFFFFFFF MUL NOT AND SWAP1 DUP4 PUSH20 0xFFFFFFFFFFFFFFFFFFFFFFFFFFFFFFFFFFFFFFFF AND MUL OR SWAP1 SSTORE POP DUP3 PUSH1 0xE0 DUP2 DUP2 MSTORE POP POP CALLER PUSH1 0xC PUSH1 0x0 PUSH2 0x100 EXP DUP2 SLOAD DUP2 PUSH20 0xFFFFFFFFFFFFFFFFFFFFFFFFFFFFFFFFFFFFFFFF MUL NOT AND SWAP1 DUP4 PUSH20 0xFFFFFFFFFFFFFFFFFFFFFFFFFFFFFFFFFFFFFFFF AND MUL OR SWAP1 SSTORE POP DUP2 PUSH8 0xFFFFFFFFFFFFFFFF AND PUSH1 0xC0 DUP2 PUSH8 0xFFFFFFFFFFFFFFFF AND DUP2 MSTORE POP POP PUSH3 0x214 CALLER PUSH1 0x6 SLOAD PUSH3 0x2EC PUSH1 0x20 SHL PUSH1 0x20 SHR JUMP JUMPDEST POP POP POP POP PUSH3 0xA3B JUMP JUMPDEST PUSH1 0x0 CALLER SWAP1 POP SWAP1 JUMP JUMPDEST PUSH1 0x0 PUSH1 0x5 PUSH1 0x0 SWAP1 SLOAD SWAP1 PUSH2 0x100 EXP SWAP1 DIV PUSH20 0xFFFFFFFFFFFFFFFFFFFFFFFFFFFFFFFFFFFFFFFF AND SWAP1 POP DUP2 PUSH1 0x5 PUSH1 0x0 PUSH2 0x100 EXP DUP2 SLOAD DUP2 PUSH20 0xFFFFFFFFFFFFFFFFFFFFFFFFFFFFFFFFFFFFFFFF MUL NOT AND SWAP1 DUP4 PUSH20 0xFFFFFFFFFFFFFFFFFFFFFFFFFFFFFFFFFFFFFFFF AND MUL OR SWAP1 SSTORE POP DUP2 PUSH20 0xFFFFFFFFFFFFFFFFFFFFFFFFFFFFFFFFFFFFFFFF AND DUP2 PUSH20 0xFFFFFFFFFFFFFFFFFFFFFFFFFFFFFFFFFFFFFFFF AND PUSH32 0x8BE0079C531659141344CD1FD0A4F28419497F9722A3DAAFE3B4186F6B6457E0 PUSH1 0x40 MLOAD PUSH1 0x40 MLOAD DUP1 SWAP2 SUB SWAP1 LOG3 POP POP JUMP JUMPDEST PUSH1 0x0 PUSH20 0xFFFFFFFFFFFFFFFFFFFFFFFFFFFFFFFFFFFFFFFF AND DUP3 PUSH20 0xFFFFFFFFFFFFFFFFFFFFFFFFFFFFFFFFFFFFFFFF AND SUB PUSH3 0x35E JUMPI PUSH1 0x40 MLOAD PUSH32 0x8C379A000000000000000000000000000000000000000000000000000000000 DUP2 MSTORE PUSH1 0x4 ADD PUSH3 0x355 SWAP1 PUSH3 0x981 JUMP JUMPDEST PUSH1 0x40 MLOAD DUP1 SWAP2 SUB SWAP1 REVERT JUMPDEST PUSH3 0x372 PUSH1 0x0 DUP4 DUP4 PUSH3 0x459 PUSH1 0x20 SHL PUSH1 0x20 SHR JUMP JUMPDEST DUP1 PUSH1 0x2 PUSH1 0x0 DUP3 DUP3 SLOAD PUSH3 0x386 SWAP2 SWAP1 PUSH3 0x9D2 JUMP JUMPDEST SWAP3 POP POP DUP2 SWAP1 SSTORE POP DUP1 PUSH1 0x0 DUP1 DUP5 PUSH20 0xFFFFFFFFFFFFFFFFFFFFFFFFFFFFFFFFFFFFFFFF AND PUSH20 0xFFFFFFFFFFFFFFFFFFFFFFFFFFFFFFFFFFFFFFFF AND DUP2 MSTORE PUSH1 0x20 ADD SWAP1 DUP2 MSTORE PUSH1 0x20 ADD PUSH1 0x0 KECCAK256 PUSH1 0x0 DUP3 DUP3 SLOAD ADD SWAP3 POP POP DUP2 SWAP1 SSTORE POP DUP2 PUSH20 0xFFFFFFFFFFFFFFFFFFFFFFFFFFFFFFFFFFFFFFFF AND PUSH1 0x0 PUSH20 0xFFFFFFFFFFFFFFFFFFFFFFFFFFFFFFFFFFFFFFFF AND PUSH32 0xDDF252AD1BE2C89B69C2B068FC378DAA952BA7F163C4A11628F55A4DF523B3EF DUP4 PUSH1 0x40 MLOAD PUSH3 0x439 SWAP2 SWAP1 PUSH3 0xA1E JUMP JUMPDEST PUSH1 0x40 MLOAD DUP1 SWAP2 SUB SWAP1 LOG3 PUSH3 0x455 PUSH1 0x0 DUP4 DUP4 PUSH3 0x45E PUSH1 0x20 SHL PUSH1 0x20 SHR JUMP JUMPDEST POP POP JUMP JUMPDEST POP POP POP JUMP JUMPDEST POP POP POP JUMP JUMPDEST PUSH1 0x0 DUP1 REVERT JUMPDEST PUSH1 0x0 PUSH20 0xFFFFFFFFFFFFFFFFFFFFFFFFFFFFFFFFFFFFFFFF DUP3 AND SWAP1 POP SWAP2 SWAP1 POP JUMP JUMPDEST PUSH1 0x0 PUSH3 0x495 DUP3 PUSH3 0x468 JUMP JUMPDEST SWAP1 POP SWAP2 SWAP1 POP JUMP JUMPDEST PUSH3 0x4A7 DUP2 PUSH3 0x488 JUMP JUMPDEST DUP2 EQ PUSH3 0x4B3 JUMPI PUSH1 0x0 DUP1 REVERT JUMPDEST POP JUMP JUMPDEST PUSH1 0x0 DUP2 MLOAD SWAP1 POP PUSH3 0x4C7 DUP2 PUSH3 0x49C JUMP JUMPDEST SWAP3 SWAP2 POP POP JUMP JUMPDEST PUSH1 0x0 DUP2 SWAP1 POP SWAP2 SWAP1 POP JUMP JUMPDEST PUSH3 0x4E2 DUP2 PUSH3 0x4CD JUMP JUMPDEST DUP2 EQ PUSH3 0x4EE JUMPI PUSH1 0x0 DUP1 REVERT JUMPDEST POP JUMP JUMPDEST PUSH1 0x0 DUP2 MLOAD SWAP1 POP PUSH3 0x502 DUP2 PUSH3 0x4D7 JUMP JUMPDEST SWAP3 SWAP2 POP POP JUMP JUMPDEST PUSH1 0x0 PUSH8 0xFFFFFFFFFFFFFFFF DUP3 AND SWAP1 POP SWAP2 SWAP1 POP JUMP JUMPDEST PUSH3 0x527 DUP2 PUSH3 0x508 JUMP JUMPDEST DUP2 EQ PUSH3 0x533 JUMPI PUSH1 0x0 DUP1 REVERT JUMPDEST POP JUMP JUMPDEST PUSH1 0x0 DUP2 MLOAD SWAP1 POP PUSH3 0x547 DUP2 PUSH3 0x51C JUMP JUMPDEST SWAP3 SWAP2 POP POP JUMP JUMPDEST PUSH1 0x0 DUP1 PUSH1 0x0 DUP1 PUSH1 0x80 DUP6 DUP8 SUB SLT ISZERO PUSH3 0x56A JUMPI PUSH3 0x569 PUSH3 0x463 JUMP JUMPDEST JUMPDEST PUSH1 0x0 PUSH3 0x57A DUP8 DUP3 DUP9 ADD PUSH3 0x4B6 JUMP JUMPDEST SWAP5 POP POP PUSH1 0x20 PUSH3 0x58D DUP8 DUP3 DUP9 ADD PUSH3 0x4F1 JUMP JUMPDEST SWAP4 POP POP PUSH1 0x40 PUSH3 0x5A0 DUP8 DUP3 DUP9 ADD PUSH3 0x536 JUMP JUMPDEST SWAP3 POP POP PUSH1 0x60 PUSH3 0x5B3 DUP8 DUP3 DUP9 ADD PUSH3 0x4B6 JUMP JUMPDEST SWAP2 POP POP SWAP3 SWAP6 SWAP2 SWAP5 POP SWAP3 POP JUMP JUMPDEST PUSH1 0x0 DUP2 MLOAD SWAP1 POP SWAP2 SWAP1 POP JUMP JUMPDEST PUSH32 0x4E487B7100000000000000000000000000000000000000000000000000000000 PUSH1 0x0 MSTORE PUSH1 0x41 PUSH1 0x4 MSTORE PUSH1 0x24 PUSH1 0x0 REVERT JUMPDEST PUSH32 0x4E487B7100000000000000000000000000000000000000000000000000000000 PUSH1 0x0 MSTORE PUSH1 0x22 PUSH1 0x4 MSTORE PUSH1 0x24 PUSH1 0x0 REVERT JUMPDEST PUSH1 0x0 PUSH1 0x2 DUP3 DIV SWAP1 POP PUSH1 0x1 DUP3 AND DUP1 PUSH3 0x641 JUMPI PUSH1 0x7F DUP3 AND SWAP2 POP JUMPDEST PUSH1 0x20 DUP3 LT DUP2 SUB PUSH3 0x657 JUMPI PUSH3 0x656 PUSH3 0x5F9 JUMP JUMPDEST JUMPDEST POP SWAP2 SWAP1 POP JUMP JUMPDEST PUSH1 0x0 DUP2 SWAP1 POP DUP2 PUSH1 0x0 MSTORE PUSH1 0x20 PUSH1 0x0 KECCAK256 SWAP1 POP SWAP2 SWAP1 POP JUMP JUMPDEST PUSH1 0x0 PUSH1 0x20 PUSH1 0x1F DUP4 ADD DIV SWAP1 POP SWAP2 SWAP1 POP JUMP JUMPDEST PUSH1 0x0 DUP3 DUP3 SHL SWAP1 POP SWAP3 SWAP2 POP POP JUMP JUMPDEST PUSH1 0x0 PUSH1 0x8 DUP4 MUL PUSH3 0x6C1 PUSH32 0xFFFFFFFFFFFFFFFFFFFFFFFFFFFFFFFFFFFFFFFFFFFFFFFFFFFFFFFFFFFFFFFF DUP3 PUSH3 0x682 JUMP JUMPDEST PUSH3 0x6CD DUP7 DUP4 PUSH3 0x682 JUMP JUMPDEST SWAP6 POP DUP1 NOT DUP5 AND SWAP4 POP DUP1 DUP7 AND DUP5 OR SWAP3 POP POP POP SWAP4 SWAP3 POP POP POP JUMP JUMPDEST PUSH1 0x0 DUP2 SWAP1 POP SWAP2 SWAP1 POP JUMP JUMPDEST PUSH1 0x0 DUP2 SWAP1 POP SWAP2 SWAP1 POP JUMP JUMPDEST PUSH1 0x0 PUSH3 0x71A PUSH3 0x714 PUSH3 0x70E DUP5 PUSH3 0x6E5 JUMP JUMPDEST PUSH3 0x6EF JUMP JUMPDEST PUSH3 0x6E5 JUMP JUMPDEST SWAP1 POP SWAP2 SWAP1 POP JUMP JUMPDEST PUSH1 0x0 DUP2 SWAP1 POP SWAP2 SWAP1 POP JUMP JUMPDEST PUSH3 0x736 DUP4 PUSH3 0x6F9 JUMP JUMPDEST PUSH3 0x74E PUSH3 0x745 DUP3 PUSH3 0x721 JUMP JUMPDEST DUP5 DUP5 SLOAD PUSH3 0x68F JUMP JUMPDEST DUP3 SSTORE POP POP POP POP JUMP JUMPDEST PUSH1 0x0 SWAP1 JUMP JUMPDEST PUSH3 0x765 PUSH3 0x756 JUMP JUMPDEST PUSH3 0x772 DUP2 DUP5 DUP5 PUSH3 0x72B JUMP JUMPDEST POP POP POP JUMP JUMPDEST JUMPDEST DUP2 DUP2 LT ISZERO PUSH3 0x79A JUMPI PUSH3 0x78E PUSH1 0x0 DUP3 PUSH3 0x75B JUMP JUMPDEST PUSH1 0x1 DUP2 ADD SWAP1 POP PUSH3 0x778 JUMP JUMPDEST POP POP JUMP JUMPDEST PUSH1 0x1F DUP3 GT ISZERO PUSH3 0x7E9 JUMPI PUSH3 0x7B3 DUP2 PUSH3 0x65D JUMP JUMPDEST PUSH3 0x7BE DUP5 PUSH3 0x672 JUMP JUMPDEST DUP2 ADD PUSH1 0x20 DUP6 LT ISZERO PUSH3 0x7CE JUMPI DUP2 SWAP1 POP JUMPDEST PUSH3 0x7E6 PUSH3 0x7DD DUP6 PUSH3 0x672 JUMP JUMPDEST DUP4 ADD DUP3 PUSH3 0x777 JUMP JUMPDEST POP POP JUMPDEST POP POP POP JUMP JUMPDEST PUSH1 0x0 DUP3 DUP3 SHR SWAP1 POP SWAP3 SWAP2 POP POP JUMP JUMPDEST PUSH1 0x0 PUSH3 0x80E PUSH1 0x0 NOT DUP5 PUSH1 0x8 MUL PUSH3 0x7EE JUMP JUMPDEST NOT DUP1 DUP4 AND SWAP2 POP POP SWAP3 SWAP2 POP POP JUMP JUMPDEST PUSH1 0x0 PUSH3 0x829 DUP4 DUP4 PUSH3 0x7FB JUMP JUMPDEST SWAP2 POP DUP3 PUSH1 0x2 MUL DUP3 OR SWAP1 POP SWAP3 SWAP2 POP POP JUMP JUMPDEST PUSH3 0x844 DUP3 PUSH3 0x5BF JUMP JUMPDEST PUSH8 0xFFFFFFFFFFFFFFFF DUP2 GT ISZERO PUSH3 0x860 JUMPI PUSH3 0x85F PUSH3 0x5CA JUMP JUMPDEST JUMPDEST PUSH3 0x86C DUP3 SLOAD PUSH3 0x628 JUMP JUMPDEST PUSH3 0x879 DUP3 DUP3 DUP6 PUSH3 0x79E JUMP JUMPDEST PUSH1 0x0 PUSH1 0x20 SWAP1 POP PUSH1 0x1F DUP4 GT PUSH1 0x1 DUP2 EQ PUSH3 0x8B1 JUMPI PUSH1 0x0 DUP5 ISZERO PUSH3 0x89C JUMPI DUP3 DUP8 ADD MLOAD SWAP1 POP JUMPDEST PUSH3 0x8A8 DUP6 DUP3 PUSH3 0x81B JUMP JUMPDEST DUP7 SSTORE POP PUSH3 0x918 JUMP JUMPDEST PUSH1 0x1F NOT DUP5 AND PUSH3 0x8C1 DUP7 PUSH3 0x65D JUMP JUMPDEST PUSH1 0x0 JUMPDEST DUP3 DUP2 LT ISZERO PUSH3 0x8EB JUMPI DUP5 DUP10 ADD MLOAD DUP3 SSTORE PUSH1 0x1 DUP3 ADD SWAP2 POP PUSH1 0x20 DUP6 ADD SWAP5 POP PUSH1 0x20 DUP2 ADD SWAP1 POP PUSH3 0x8C4 JUMP JUMPDEST DUP7 DUP4 LT ISZERO PUSH3 0x90B JUMPI DUP5 DUP10 ADD MLOAD PUSH3 0x907 PUSH1 0x1F DUP10 AND DUP3 PUSH3 0x7FB JUMP JUMPDEST DUP4 SSTORE POP JUMPDEST PUSH1 0x1 PUSH1 0x2 DUP9 MUL ADD DUP9 SSTORE POP POP POP JUMPDEST POP POP POP POP POP POP JUMP JUMPDEST PUSH1 0x0 DUP3 DUP3 MSTORE PUSH1 0x20 DUP3 ADD SWAP1 POP SWAP3 SWAP2 POP POP JUMP JUMPDEST PUSH32 0x45524332303A206D696E7420746F20746865207A65726F206164647265737300 PUSH1 0x0 DUP3 ADD MSTORE POP JUMP JUMPDEST PUSH1 0x0 PUSH3 0x969 PUSH1 0x1F DUP4 PUSH3 0x920 JUMP JUMPDEST SWAP2 POP PUSH3 0x976 DUP3 PUSH3 0x931 JUMP JUMPDEST PUSH1 0x20 DUP3 ADD SWAP1 POP SWAP2 SWAP1 POP JUMP JUMPDEST PUSH1 0x0 PUSH1 0x20 DUP3 ADD SWAP1 POP DUP2 DUP2 SUB PUSH1 0x0 DUP4 ADD MSTORE PUSH3 0x99C DUP2 PUSH3 0x95A JUMP JUMPDEST SWAP1 POP SWAP2 SWAP1 POP JUMP JUMPDEST PUSH32 0x4E487B7100000000000000000000000000000000000000000000000000000000 PUSH1 0x0 MSTORE PUSH1 0x11 PUSH1 0x4 MSTORE PUSH1 0x24 PUSH1 0x0 REVERT JUMPDEST PUSH1 0x0 PUSH3 0x9DF DUP3 PUSH3 0x6E5 JUMP JUMPDEST SWAP2 POP PUSH3 0x9EC DUP4 PUSH3 0x6E5 JUMP JUMPDEST SWAP3 POP DUP3 DUP3 ADD SWAP1 POP DUP1 DUP3 GT ISZERO PUSH3 0xA07 JUMPI PUSH3 0xA06 PUSH3 0x9A3 JUMP JUMPDEST JUMPDEST SWAP3 SWAP2 POP POP JUMP JUMPDEST PUSH3 0xA18 DUP2 PUSH3 0x6E5 JUMP JUMPDEST DUP3 MSTORE POP POP JUMP JUMPDEST PUSH1 0x0 PUSH1 0x20 DUP3 ADD SWAP1 POP PUSH3 0xA35 PUSH1 0x0 DUP4 ADD DUP5 PUSH3 0xA0D JUMP JUMPDEST SWAP3 SWAP2 POP POP JUMP JUMPDEST PUSH1 0x80 MLOAD PUSH1 0xA0 MLOAD PUSH1 0xC0 MLOAD PUSH1 0xE0 MLOAD PUSH2 0x21A3 PUSH3 0xA7C PUSH1 0x0 CODECOPY PUSH1 0x0 PUSH2 0x9BA ADD MSTORE PUSH1 0x0 PUSH2 0x9DB ADD MSTORE PUSH1 0x0 PUSH2 0x97E ADD MSTORE PUSH1 0x0 DUP2 DUP2 PUSH2 0x4FC ADD MSTORE PUSH2 0x550 ADD MSTORE PUSH2 0x21A3 PUSH1 0x0 RETURN INVALID PUSH1 0x80 PUSH1 0x40 MSTORE CALLVALUE DUP1 ISZERO PUSH2 0x10 JUMPI PUSH1 0x0 DUP1 REVERT JUMPDEST POP PUSH1 0x4 CALLDATASIZE LT PUSH2 0x142 JUMPI PUSH1 0x0 CALLDATALOAD PUSH1 0xE0 SHR DUP1 PUSH4 0x8DA5CB5B GT PUSH2 0xB8 JUMPI DUP1 PUSH4 0xBEABACC8 GT PUSH2 0x7C JUMPI DUP1 PUSH4 0xBEABACC8 EQ PUSH2 0x37B JUMPI DUP1 PUSH4 0xDD62ED3E EQ PUSH2 0x397 JUMPI DUP1 PUSH4 0xE0C86289 EQ PUSH2 0x3C7 JUMPI DUP1 PUSH4 0xE89E106A EQ PUSH2 0x3D1 JUMPI DUP1 PUSH4 0xF2FDE38B EQ PUSH2 0x3EF JUMPI DUP1 PUSH4 0xF6EAFFC8 EQ PUSH2 0x40B JUMPI PUSH2 0x142 JUMP JUMPDEST DUP1 PUSH4 0x8DA5CB5B EQ PUSH2 0x2C1 JUMPI DUP1 PUSH4 0x8E15F473 EQ PUSH2 0x2DF JUMPI DUP1 PUSH4 0x95D89B41 EQ PUSH2 0x2FD JUMPI DUP1 PUSH4 0xA457C2D7 EQ PUSH2 0x31B JUMPI DUP1 PUSH4 0xA9059CBB EQ PUSH2 0x34B JUMPI PUSH2 0x142 JUMP JUMPDEST DUP1 PUSH4 0x313CE567 GT PUSH2 0x10A JUMPI DUP1 PUSH4 0x313CE567 EQ PUSH2 0x1FF JUMPI DUP1 PUSH4 0x39509351 EQ PUSH2 0x21D JUMPI DUP1 PUSH4 0x40C10F19 EQ PUSH2 0x24D JUMPI DUP1 PUSH4 0x70A08231 EQ PUSH2 0x269 JUMPI DUP1 PUSH4 0x715018A6 EQ PUSH2 0x299 JUMPI DUP1 PUSH4 0x741BEF1A EQ PUSH2 0x2A3 JUMPI PUSH2 0x142 JUMP JUMPDEST DUP1 PUSH4 0x6FDDE03 EQ PUSH2 0x147 JUMPI DUP1 PUSH4 0x95EA7B3 EQ PUSH2 0x165 JUMPI DUP1 PUSH4 0x18160DDD EQ PUSH2 0x195 JUMPI DUP1 PUSH4 0x1FE543E3 EQ PUSH2 0x1B3 JUMPI DUP1 PUSH4 0x23B872DD EQ PUSH2 0x1CF JUMPI JUMPDEST PUSH1 0x0 DUP1 REVERT JUMPDEST PUSH2 0x14F PUSH2 0x43B JUMP JUMPDEST PUSH1 0x40 MLOAD PUSH2 0x15C SWAP2 SWAP1 PUSH2 0x13A6 JUMP JUMPDEST PUSH1 0x40 MLOAD DUP1 SWAP2 SUB SWAP1 RETURN JUMPDEST PUSH2 0x17F PUSH1 0x4 DUP1 CALLDATASIZE SUB DUP2 ADD SWAP1 PUSH2 0x17A SWAP2 SWAP1 PUSH2 0x1470 JUMP JUMPDEST PUSH2 0x4CD JUMP JUMPDEST PUSH1 0x40 MLOAD PUSH2 0x18C SWAP2 SWAP1 PUSH2 0x14CB JUMP JUMPDEST PUSH1 0x40 MLOAD DUP1 SWAP2 SUB SWAP1 RETURN JUMPDEST PUSH2 0x19D PUSH2 0x4F0 JUMP JUMPDEST PUSH1 0x40 MLOAD PUSH2 0x1AA SWAP2 SWAP1 PUSH2 0x14F5 JUMP JUMPDEST PUSH1 0x40 MLOAD DUP1 SWAP2 SUB SWAP1 RETURN JUMPDEST PUSH2 0x1CD PUSH1 0x4 DUP1 CALLDATASIZE SUB DUP2 ADD SWAP1 PUSH2 0x1C8 SWAP2 SWAP1 PUSH2 0x1658 JUMP JUMPDEST PUSH2 0x4FA JUMP JUMPDEST STOP JUMPDEST PUSH2 0x1E9 PUSH1 0x4 DUP1 CALLDATASIZE SUB DUP2 ADD SWAP1 PUSH2 0x1E4 SWAP2 SWAP1 PUSH2 0x16B4 JUMP JUMPDEST PUSH2 0x5BA JUMP JUMPDEST PUSH1 0x40 MLOAD PUSH2 0x1F6 SWAP2 SWAP1 PUSH2 0x14CB JUMP JUMPDEST PUSH1 0x40 MLOAD DUP1 SWAP2 SUB SWAP1 RETURN JUMPDEST PUSH2 0x207 PUSH2 0x5E9 JUMP JUMPDEST PUSH1 0x40 MLOAD PUSH2 0x214 SWAP2 SWAP1 PUSH2 0x1723 JUMP JUMPDEST PUSH1 0x40 MLOAD DUP1 SWAP2 SUB SWAP1 RETURN JUMPDEST PUSH2 0x237 PUSH1 0x4 DUP1 CALLDATASIZE SUB DUP2 ADD SWAP1 PUSH2 0x232 SWAP2 SWAP1 PUSH2 0x1470 JUMP JUMPDEST PUSH2 0x5F2 JUMP JUMPDEST PUSH1 0x40 MLOAD PUSH2 0x244 SWAP2 SWAP1 PUSH2 0x14CB JUMP JUMPDEST PUSH1 0x40 MLOAD DUP1 SWAP2 SUB SWAP1 RETURN JUMPDEST PUSH2 0x267 PUSH1 0x4 DUP1 CALLDATASIZE SUB DUP2 ADD SWAP1 PUSH2 0x262 SWAP2 SWAP1 PUSH2 0x1470 JUMP JUMPDEST PUSH2 0x629 JUMP JUMPDEST STOP JUMPDEST PUSH2 0x283 PUSH1 0x4 DUP1 CALLDATASIZE SUB DUP2 ADD SWAP1 PUSH2 0x27E SWAP2 SWAP1 PUSH2 0x173E JUMP JUMPDEST PUSH2 0x63F JUMP JUMPDEST PUSH1 0x40 MLOAD PUSH2 0x290 SWAP2 SWAP1 PUSH2 0x14F5 JUMP JUMPDEST PUSH1 0x40 MLOAD DUP1 SWAP2 SUB SWAP1 RETURN JUMPDEST PUSH2 0x2A1 PUSH2 0x687 JUMP JUMPDEST STOP JUMPDEST PUSH2 0x2AB PUSH2 0x69B JUMP JUMPDEST PUSH1 0x40 MLOAD PUSH2 0x2B8 SWAP2 SWAP1 PUSH2 0x17CA JUMP JUMPDEST PUSH1 0x40 MLOAD DUP1 SWAP2 SUB SWAP1 RETURN JUMPDEST PUSH2 0x2C9 PUSH2 0x6C1 JUMP JUMPDEST PUSH1 0x40 MLOAD PUSH2 0x2D6 SWAP2 SWAP1 PUSH2 0x17F4 JUMP JUMPDEST PUSH1 0x40 MLOAD DUP1 SWAP2 SUB SWAP1 RETURN JUMPDEST PUSH2 0x2E7 PUSH2 0x6EB JUMP JUMPDEST PUSH1 0x40 MLOAD PUSH2 0x2F4 SWAP2 SWAP1 PUSH2 0x1828 JUMP JUMPDEST PUSH1 0x40 MLOAD DUP1 SWAP2 SUB SWAP1 RETURN JUMPDEST PUSH2 0x305 PUSH2 0x7A9 JUMP JUMPDEST PUSH1 0x40 MLOAD PUSH2 0x312 SWAP2 SWAP1 PUSH2 0x13A6 JUMP JUMPDEST PUSH1 0x40 MLOAD DUP1 SWAP2 SUB SWAP1 RETURN JUMPDEST PUSH2 0x335 PUSH1 0x4 DUP1 CALLDATASIZE SUB DUP2 ADD SWAP1 PUSH2 0x330 SWAP2 SWAP1 PUSH2 0x1470 JUMP JUMPDEST PUSH2 0x83B JUMP JUMPDEST PUSH1 0x40 MLOAD PUSH2 0x342 SWAP2 SWAP1 PUSH2 0x14CB JUMP JUMPDEST PUSH1 0x40 MLOAD DUP1 SWAP2 SUB SWAP1 RETURN JUMPDEST PUSH2 0x365 PUSH1 0x4 DUP1 CALLDATASIZE SUB DUP2 ADD SWAP1 PUSH2 0x360 SWAP2 SWAP1 PUSH2 0x1470 JUMP JUMPDEST PUSH2 0x8B2 JUMP JUMPDEST PUSH1 0x40 MLOAD PUSH2 0x372 SWAP2 SWAP1 PUSH2 0x14CB JUMP JUMPDEST PUSH1 0x40 MLOAD DUP1 SWAP2 SUB SWAP1 RETURN JUMPDEST PUSH2 0x395 PUSH1 0x4 DUP1 CALLDATASIZE SUB DUP2 ADD SWAP1 PUSH2 0x390 SWAP2 SWAP1 PUSH2 0x16B4 JUMP JUMPDEST PUSH2 0x8D5 JUMP JUMPDEST STOP JUMPDEST PUSH2 0x3B1 PUSH1 0x4 DUP1 CALLDATASIZE SUB DUP2 ADD SWAP1 PUSH2 0x3AC SWAP2 SWAP1 PUSH2 0x1843 JUMP JUMPDEST PUSH2 0x8ED JUMP JUMPDEST PUSH1 0x40 MLOAD PUSH2 0x3BE SWAP2 SWAP1 PUSH2 0x14F5 JUMP JUMPDEST PUSH1 0x40 MLOAD DUP1 SWAP2 SUB SWAP1 RETURN JUMPDEST PUSH2 0x3CF PUSH2 0x974 JUMP JUMPDEST STOP JUMPDEST PUSH2 0x3D9 PUSH2 0xA6D JUMP JUMPDEST PUSH1 0x40 MLOAD PUSH2 0x3E6 SWAP2 SWAP1 PUSH2 0x14F5 JUMP JUMPDEST PUSH1 0x40 MLOAD DUP1 SWAP2 SUB SWAP1 RETURN JUMPDEST PUSH2 0x409 PUSH1 0x4 DUP1 CALLDATASIZE SUB DUP2 ADD SWAP1 PUSH2 0x404 SWAP2 SWAP1 PUSH2 0x173E JUMP JUMPDEST PUSH2 0xA73 JUMP JUMPDEST STOP JUMPDEST PUSH2 0x425 PUSH1 0x4 DUP1 CALLDATASIZE SUB DUP2 ADD SWAP1 PUSH2 0x420 SWAP2 SWAP1 PUSH2 0x1883 JUMP JUMPDEST PUSH2 0xAF6 JUMP JUMPDEST PUSH1 0x40 MLOAD PUSH2 0x432 SWAP2 SWAP1 PUSH2 0x14F5 JUMP JUMPDEST PUSH1 0x40 MLOAD DUP1 SWAP2 SUB SWAP1 RETURN JUMPDEST PUSH1 0x60 PUSH1 0x3 DUP1 SLOAD PUSH2 0x44A SWAP1 PUSH2 0x18DF JUMP JUMPDEST DUP1 PUSH1 0x1F ADD PUSH1 0x20 DUP1 SWAP2 DIV MUL PUSH1 0x20 ADD PUSH1 0x40 MLOAD SWAP1 DUP2 ADD PUSH1 0x40 MSTORE DUP1 SWAP3 SWAP2 SWAP1 DUP2 DUP2 MSTORE PUSH1 0x20 ADD DUP3 DUP1 SLOAD PUSH2 0x476 SWAP1 PUSH2 0x18DF JUMP JUMPDEST DUP1 ISZERO PUSH2 0x4C3 JUMPI DUP1 PUSH1 0x1F LT PUSH2 0x498 JUMPI PUSH2 0x100 DUP1 DUP4 SLOAD DIV MUL DUP4 MSTORE SWAP2 PUSH1 0x20 ADD SWAP2 PUSH2 0x4C3 JUMP JUMPDEST DUP3 ADD SWAP2 SWAP1 PUSH1 0x0 MSTORE PUSH1 0x20 PUSH1 0x0 KECCAK256 SWAP1 JUMPDEST DUP2 SLOAD DUP2 MSTORE SWAP1 PUSH1 0x1 ADD SWAP1 PUSH1 0x20 ADD DUP1 DUP4 GT PUSH2 0x4A6 JUMPI DUP3 SWAP1 SUB PUSH1 0x1F AND DUP3 ADD SWAP2 JUMPDEST POP POP POP POP POP SWAP1 POP SWAP1 JUMP JUMPDEST PUSH1 0x0 DUP1 PUSH2 0x4D8 PUSH2 0xB1A JUMP JUMPDEST SWAP1 POP PUSH2 0x4E5 DUP2 DUP6 DUP6 PUSH2 0xB22 JUMP JUMPDEST PUSH1 0x1 SWAP2 POP POP SWAP3 SWAP2 POP POP JUMP JUMPDEST PUSH1 0x0 PUSH1 0x2 SLOAD SWAP1 POP SWAP1 JUMP JUMPDEST PUSH32 0x0 PUSH20 0xFFFFFFFFFFFFFFFFFFFFFFFFFFFFFFFFFFFFFFFF AND CALLER PUSH20 0xFFFFFFFFFFFFFFFFFFFFFFFFFFFFFFFFFFFFFFFF AND EQ PUSH2 0x5AC JUMPI CALLER PUSH32 0x0 PUSH1 0x40 MLOAD PUSH32 0x1CF993F400000000000000000000000000000000000000000000000000000000 DUP2 MSTORE PUSH1 0x4 ADD PUSH2 0x5A3 SWAP3 SWAP2 SWAP1 PUSH2 0x1910 JUMP JUMPDEST PUSH1 0x40 MLOAD DUP1 SWAP2 SUB SWAP1 REVERT JUMPDEST PUSH2 0x5B6 DUP3 DUP3 PUSH2 0xCEB JUMP JUMPDEST POP POP JUMP JUMPDEST PUSH1 0x0 DUP1 PUSH2 0x5C5 PUSH2 0xB1A JUMP JUMPDEST SWAP1 POP PUSH2 0x5D2 DUP6 DUP3 DUP6 PUSH2 0xD06 JUMP JUMPDEST PUSH2 0x5DD DUP6 DUP6 DUP6 PUSH2 0xD92 JUMP JUMPDEST PUSH1 0x1 SWAP2 POP POP SWAP4 SWAP3 POP POP POP JUMP JUMPDEST PUSH1 0x0 PUSH1 0x12 SWAP1 POP SWAP1 JUMP JUMPDEST PUSH1 0x0 DUP1 PUSH2 0x5FD PUSH2 0xB1A JUMP JUMPDEST SWAP1 POP PUSH2 0x61E DUP2 DUP6 DUP6 PUSH2 0x60F DUP6 DUP10 PUSH2 0x8ED JUMP JUMPDEST PUSH2 0x619 SWAP2 SWAP1 PUSH2 0x1968 JUMP JUMPDEST PUSH2 0xB22 JUMP JUMPDEST PUSH1 0x1 SWAP2 POP POP SWAP3 SWAP2 POP POP JUMP JUMPDEST PUSH2 0x631 PUSH2 0x1008 JUMP JUMPDEST PUSH2 0x63B DUP3 DUP3 PUSH2 0x1086 JUMP JUMPDEST POP POP JUMP JUMPDEST PUSH1 0x0 DUP1 PUSH1 0x0 DUP4 PUSH20 0xFFFFFFFFFFFFFFFFFFFFFFFFFFFFFFFFFFFFFFFF AND PUSH20 0xFFFFFFFFFFFFFFFFFFFFFFFFFFFFFFFFFFFFFFFF AND DUP2 MSTORE PUSH1 0x20 ADD SWAP1 DUP2 MSTORE PUSH1 0x20 ADD PUSH1 0x0 KECCAK256 SLOAD SWAP1 POP SWAP2 SWAP1 POP JUMP JUMPDEST PUSH2 0x68F PUSH2 0x1008 JUMP JUMPDEST PUSH2 0x699 PUSH1 0x0 PUSH2 0x11DC JUMP JUMPDEST JUMP JUMPDEST PUSH1 0x9 PUSH1 0x0 SWAP1 SLOAD SWAP1 PUSH2 0x100 EXP SWAP1 DIV PUSH20 0xFFFFFFFFFFFFFFFFFFFFFFFFFFFFFFFFFFFFFFFF AND DUP2 JUMP JUMPDEST PUSH1 0x0 PUSH1 0x5 PUSH1 0x0 SWAP1 SLOAD SWAP1 PUSH2 0x100 EXP SWAP1 DIV PUSH20 0xFFFFFFFFFFFFFFFFFFFFFFFFFFFFFFFFFFFFFFFF AND SWAP1 POP SWAP1 JUMP JUMPDEST PUSH1 0x0 DUP1 PUSH1 0x0 DUP1 PUSH1 0x0 DUP1 PUSH1 0x9 PUSH1 0x0 SWAP1 SLOAD SWAP1 PUSH2 0x100 EXP SWAP1 DIV PUSH20 0xFFFFFFFFFFFFFFFFFFFFFFFFFFFFFFFFFFFFFFFF AND PUSH20 0xFFFFFFFFFFFFFFFFFFFFFFFFFFFFFFFFFFFFFFFF AND PUSH4 0xFEAF968C PUSH1 0x40 MLOAD DUP2 PUSH4 0xFFFFFFFF AND PUSH1 0xE0 SHL DUP2 MSTORE PUSH1 0x4 ADD PUSH1 0xA0 PUSH1 0x40 MLOAD DUP1 DUP4 SUB DUP2 DUP7 GAS STATICCALL ISZERO DUP1 ISZERO PUSH2 0x761 JUMPI RETURNDATASIZE PUSH1 0x0 DUP1 RETURNDATACOPY RETURNDATASIZE PUSH1 0x0 REVERT JUMPDEST POP POP POP POP PUSH1 0x40 MLOAD RETURNDATASIZE PUSH1 0x1F NOT PUSH1 0x1F DUP3 ADD AND DUP3 ADD DUP1 PUSH1 0x40 MSTORE POP DUP2 ADD SWAP1 PUSH2 0x785 SWAP2 SWAP1 PUSH2 0x1A1F JUMP JUMPDEST SWAP5 POP SWAP5 POP SWAP5 POP SWAP5 POP SWAP5 POP PUSH4 0x5F5E100 DUP5 PUSH2 0x79F SWAP2 SWAP1 PUSH2 0x1AC9 JUMP JUMPDEST SWAP6 POP POP POP POP POP POP SWAP1 JUMP JUMPDEST PUSH1 0x60 PUSH1 0x4 DUP1 SLOAD PUSH2 0x7B8 SWAP1 PUSH2 0x18DF JUMP JUMPDEST DUP1 PUSH1 0x1F ADD PUSH1 0x20 DUP1 SWAP2 DIV MUL PUSH1 0x20 ADD PUSH1 0x40 MLOAD SWAP1 DUP2 ADD PUSH1 0x40 MSTORE DUP1 SWAP3 SWAP2 SWAP1 DUP2 DUP2 MSTORE PUSH1 0x20 ADD DUP3 DUP1 SLOAD PUSH2 0x7E4 SWAP1 PUSH2 0x18DF JUMP JUMPDEST DUP1 ISZERO PUSH2 0x831 JUMPI DUP1 PUSH1 0x1F LT PUSH2 0x806 JUMPI PUSH2 0x100 DUP1 DUP4 SLOAD DIV MUL DUP4 MSTORE SWAP2 PUSH1 0x20 ADD SWAP2 PUSH2 0x831 JUMP JUMPDEST DUP3 ADD SWAP2 SWAP1 PUSH1 0x0 MSTORE PUSH1 0x20 PUSH1 0x0 KECCAK256 SWAP1 JUMPDEST DUP2 SLOAD DUP2 MSTORE SWAP1 PUSH1 0x1 ADD SWAP1 PUSH1 0x20 ADD DUP1 DUP4 GT PUSH2 0x814 JUMPI DUP3 SWAP1 SUB PUSH1 0x1F AND DUP3 ADD SWAP2 JUMPDEST POP POP POP POP POP SWAP1 POP SWAP1 JUMP JUMPDEST PUSH1 0x0 DUP1 PUSH2 0x846 PUSH2 0xB1A JUMP JUMPDEST SWAP1 POP PUSH1 0x0 PUSH2 0x854 DUP3 DUP7 PUSH2 0x8ED JUMP JUMPDEST SWAP1 POP DUP4 DUP2 LT ISZERO PUSH2 0x899 JUMPI PUSH1 0x40 MLOAD PUSH32 0x8C379A000000000000000000000000000000000000000000000000000000000 DUP2 MSTORE PUSH1 0x4 ADD PUSH2 0x890 SWAP1 PUSH2 0x1BA5 JUMP JUMPDEST PUSH1 0x40 MLOAD DUP1 SWAP2 SUB SWAP1 REVERT JUMPDEST PUSH2 0x8A6 DUP3 DUP7 DUP7 DUP5 SUB PUSH2 0xB22 JUMP JUMPDEST PUSH1 0x1 SWAP3 POP POP POP SWAP3 SWAP2 POP POP JUMP JUMPDEST PUSH1 0x0 DUP1 PUSH2 0x8BD PUSH2 0xB1A JUMP JUMPDEST SWAP1 POP PUSH2 0x8CA DUP2 DUP6 DUP6 PUSH2 0xD92 JUMP JUMPDEST PUSH1 0x1 SWAP2 POP POP SWAP3 SWAP2 POP POP JUMP JUMPDEST PUSH2 0x8DD PUSH2 0x1008 JUMP JUMPDEST PUSH2 0x8E8 DUP4 DUP4 DUP4 PUSH2 0xD92 JUMP JUMPDEST POP POP POP JUMP JUMPDEST PUSH1 0x0 PUSH1 0x1 PUSH1 0x0 DUP5 PUSH20 0xFFFFFFFFFFFFFFFFFFFFFFFFFFFFFFFFFFFFFFFF AND PUSH20 0xFFFFFFFFFFFFFFFFFFFFFFFFFFFFFFFFFFFFFFFF AND DUP2 MSTORE PUSH1 0x20 ADD SWAP1 DUP2 MSTORE PUSH1 0x20 ADD PUSH1 0x0 KECCAK256 PUSH1 0x0 DUP4 PUSH20 0xFFFFFFFFFFFFFFFFFFFFFFFFFFFFFFFFFFFFFFFF AND PUSH20 0xFFFFFFFFFFFFFFFFFFFFFFFFFFFFFFFFFFFFFFFF AND DUP2 MSTORE PUSH1 0x20 ADD SWAP1 DUP2 MSTORE PUSH1 0x20 ADD PUSH1 0x0 KECCAK256 SLOAD SWAP1 POP SWAP3 SWAP2 POP POP JUMP JUMPDEST PUSH2 0x97C PUSH2 0x1008 JUMP JUMPDEST PUSH32 0x0 PUSH20 0xFFFFFFFFFFFFFFFFFFFFFFFFFFFFFFFFFFFFFFFF AND PUSH4 0x5D3B1D30 PUSH32 0x0 PUSH32 0x0 PUSH1 0x3 PUSH3 0x186A0 PUSH1 0x2 PUSH1 0x40 MLOAD DUP7 PUSH4 0xFFFFFFFF AND PUSH1 0xE0 SHL DUP2 MSTORE PUSH1 0x4 ADD PUSH2 0xA22 SWAP6 SWAP5 SWAP4 SWAP3 SWAP2 SWAP1 PUSH2 0x1C3D JUMP JUMPDEST PUSH1 0x20 PUSH1 0x40 MLOAD DUP1 DUP4 SUB DUP2 PUSH1 0x0 DUP8 GAS CALL ISZERO DUP1 ISZERO PUSH2 0xA41 JUMPI RETURNDATASIZE PUSH1 0x0 DUP1 RETURNDATACOPY RETURNDATASIZE PUSH1 0x0 REVERT JUMPDEST POP POP POP POP PUSH1 0x40 MLOAD RETURNDATASIZE PUSH1 0x1F NOT PUSH1 0x1F DUP3 ADD AND DUP3 ADD DUP1 PUSH1 0x40 MSTORE POP DUP2 ADD SWAP1 PUSH2 0xA65 SWAP2 SWAP1 PUSH2 0x1C90 JUMP JUMPDEST PUSH1 0xB DUP2 SWAP1 SSTORE POP JUMP JUMPDEST PUSH1 0xB SLOAD DUP2 JUMP JUMPDEST PUSH2 0xA7B PUSH2 0x1008 JUMP JUMPDEST PUSH1 0x0 PUSH20 0xFFFFFFFFFFFFFFFFFFFFFFFFFFFFFFFFFFFFFFFF AND DUP2 PUSH20 0xFFFFFFFFFFFFFFFFFFFFFFFFFFFFFFFFFFFFFFFF AND SUB PUSH2 0xAEA JUMPI PUSH1 0x40 MLOAD PUSH32 0x8C379A000000000000000000000000000000000000000000000000000000000 DUP2 MSTORE PUSH1 0x4 ADD PUSH2 0xAE1 SWAP1 PUSH2 0x1D2F JUMP JUMPDEST PUSH1 0x40 MLOAD DUP1 SWAP2 SUB SWAP1 REVERT JUMPDEST PUSH2 0xAF3 DUP2 PUSH2 0x11DC JUMP JUMPDEST POP JUMP JUMPDEST PUSH1 0xA DUP2 DUP2 SLOAD DUP2 LT PUSH2 0xB06 JUMPI PUSH1 0x0 DUP1 REVERT JUMPDEST SWAP1 PUSH1 0x0 MSTORE PUSH1 0x20 PUSH1 0x0 KECCAK256 ADD PUSH1 0x0 SWAP2 POP SWAP1 POP SLOAD DUP2 JUMP JUMPDEST PUSH1 0x0 CALLER SWAP1 POP SWAP1 JUMP JUMPDEST PUSH1 0x0 PUSH20 0xFFFFFFFFFFFFFFFFFFFFFFFFFFFFFFFFFFFFFFFF AND DUP4 PUSH20 0xFFFFFFFFFFFFFFFFFFFFFFFFFFFFFFFFFFFFFFFF AND SUB PUSH2 0xB91 JUMPI PUSH1 0x40 MLOAD PUSH32 0x8C379A000000000000000000000000000000000000000000000000000000000 DUP2 MSTORE PUSH1 0x4 ADD PUSH2 0xB88 SWAP1 PUSH2 0x1DC1 JUMP JUMPDEST PUSH1 0x40 MLOAD DUP1 SWAP2 SUB SWAP1 REVERT JUMPDEST PUSH1 0x0 PUSH20 0xFFFFFFFFFFFFFFFFFFFFFFFFFFFFFFFFFFFFFFFF AND DUP3 PUSH20 0xFFFFFFFFFFFFFFFFFFFFFFFFFFFFFFFFFFFFFFFF AND SUB PUSH2 0xC00 JUMPI PUSH1 0x40 MLOAD PUSH32 0x8C379A000000000000000000000000000000000000000000000000000000000 DUP2 MSTORE PUSH1 0x4 ADD PUSH2 0xBF7 SWAP1 PUSH2 0x1E53 JUMP JUMPDEST PUSH1 0x40 MLOAD DUP1 SWAP2 SUB SWAP1 REVERT JUMPDEST DUP1 PUSH1 0x1 PUSH1 0x0 DUP6 PUSH20 0xFFFFFFFFFFFFFFFFFFFFFFFFFFFFFFFFFFFFFFFF AND PUSH20 0xFFFFFFFFFFFFFFFFFFFFFFFFFFFFFFFFFFFFFFFF AND DUP2 MSTORE PUSH1 0x20 ADD SWAP1 DUP2 MSTORE PUSH1 0x20 ADD PUSH1 0x0 KECCAK256 PUSH1 0x0 DUP5 PUSH20 0xFFFFFFFFFFFFFFFFFFFFFFFFFFFFFFFFFFFFFFFF AND PUSH20 0xFFFFFFFFFFFFFFFFFFFFFFFFFFFFFFFFFFFFFFFF AND DUP2 MSTORE PUSH1 0x20 ADD SWAP1 DUP2 MSTORE PUSH1 0x20 ADD PUSH1 0x0 KECCAK256 DUP2 SWAP1 SSTORE POP DUP2 PUSH20 0xFFFFFFFFFFFFFFFFFFFFFFFFFFFFFFFFFFFFFFFF AND DUP4 PUSH20 0xFFFFFFFFFFFFFFFFFFFFFFFFFFFFFFFFFFFFFFFF AND PUSH32 0x8C5BE1E5EBEC7D5BD14F71427D1E84F3DD0314C0F7B2291E5B200AC8C7C3B925 DUP4 PUSH1 0x40 MLOAD PUSH2 0xCDE SWAP2 SWAP1 PUSH2 0x14F5 JUMP JUMPDEST PUSH1 0x40 MLOAD DUP1 SWAP2 SUB SWAP1 LOG3 POP POP POP JUMP JUMPDEST DUP1 PUSH1 0xA SWAP1 DUP1 MLOAD SWAP1 PUSH1 0x20 ADD SWAP1 PUSH2 0xD01 SWAP3 SWAP2 SWAP1 PUSH2 0x12AC JUMP JUMPDEST POP POP POP JUMP JUMPDEST PUSH1 0x0 PUSH2 0xD12 DUP5 DUP5 PUSH2 0x8ED JUMP JUMPDEST SWAP1 POP PUSH32 0xFFFFFFFFFFFFFFFFFFFFFFFFFFFFFFFFFFFFFFFFFFFFFFFFFFFFFFFFFFFFFFFF DUP2 EQ PUSH2 0xD8C JUMPI DUP2 DUP2 LT ISZERO PUSH2 0xD7E JUMPI PUSH1 0x40 MLOAD PUSH32 0x8C379A000000000000000000000000000000000000000000000000000000000 DUP2 MSTORE PUSH1 0x4 ADD PUSH2 0xD75 SWAP1 PUSH2 0x1EBF JUMP JUMPDEST PUSH1 0x40 MLOAD DUP1 SWAP2 SUB SWAP1 REVERT JUMPDEST PUSH2 0xD8B DUP5 DUP5 DUP5 DUP5 SUB PUSH2 0xB22 JUMP JUMPDEST JUMPDEST POP POP POP POP JUMP JUMPDEST PUSH1 0x0 PUSH20 0xFFFFFFFFFFFFFFFFFFFFFFFFFFFFFFFFFFFFFFFF AND DUP4 PUSH20 0xFFFFFFFFFFFFFFFFFFFFFFFFFFFFFFFFFFFFFFFF AND SUB PUSH2 0xE01 JUMPI PUSH1 0x40 MLOAD PUSH32 0x8C379A000000000000000000000000000000000000000000000000000000000 DUP2 MSTORE PUSH1 0x4 ADD PUSH2 0xDF8 SWAP1 PUSH2 0x1F51 JUMP JUMPDEST PUSH1 0x40 MLOAD DUP1 SWAP2 SUB SWAP1 REVERT JUMPDEST PUSH1 0x0 PUSH20 0xFFFFFFFFFFFFFFFFFFFFFFFFFFFFFFFFFFFFFFFF AND DUP3 PUSH20 0xFFFFFFFFFFFFFFFFFFFFFFFFFFFFFFFFFFFFFFFF AND SUB PUSH2 0xE70 JUMPI PUSH1 0x40 MLOAD PUSH32 0x8C379A000000000000000000000000000000000000000000000000000000000 DUP2 MSTORE PUSH1 0x4 ADD PUSH2 0xE67 SWAP1 PUSH2 0x1FE3 JUMP JUMPDEST PUSH1 0x40 MLOAD DUP1 SWAP2 SUB SWAP1 REVERT JUMPDEST PUSH2 0xE7B DUP4 DUP4 DUP4 PUSH2 0x12A2 JUMP JUMPDEST PUSH1 0x0 DUP1 PUSH1 0x0 DUP6 PUSH20 0xFFFFFFFFFFFFFFFFFFFFFFFFFFFFFFFFFFFFFFFF AND PUSH20 0xFFFFFFFFFFFFFFFFFFFFFFFFFFFFFFFFFFFFFFFF AND DUP2 MSTORE PUSH1 0x20 ADD SWAP1 DUP2 MSTORE PUSH1 0x20 ADD PUSH1 0x0 KECCAK256 SLOAD SWAP1 POP DUP2 DUP2 LT ISZERO PUSH2 0xF01 JUMPI PUSH1 0x40 MLOAD PUSH32 0x8C379A000000000000000000000000000000000000000000000000000000000 DUP2 MSTORE PUSH1 0x4 ADD PUSH2 0xEF8 SWAP1 PUSH2 0x2075 JUMP JUMPDEST PUSH1 0x40 MLOAD DUP1 SWAP2 SUB SWAP1 REVERT JUMPDEST DUP2 DUP2 SUB PUSH1 0x0 DUP1 DUP7 PUSH20 0xFFFFFFFFFFFFFFFFFFFFFFFFFFFFFFFFFFFFFFFF AND PUSH20 0xFFFFFFFFFFFFFFFFFFFFFFFFFFFFFFFFFFFFFFFF AND DUP2 MSTORE PUSH1 0x20 ADD SWAP1 DUP2 MSTORE PUSH1 0x20 ADD PUSH1 0x0 KECCAK256 DUP2 SWAP1 SSTORE POP DUP2 PUSH1 0x0 DUP1 DUP6 PUSH20 0xFFFFFFFFFFFFFFFFFFFFFFFFFFFFFFFFFFFFFFFF AND PUSH20 0xFFFFFFFFFFFFFFFFFFFFFFFFFFFFFFFFFFFFFFFF AND DUP2 MSTORE PUSH1 0x20 ADD SWAP1 DUP2 MSTORE PUSH1 0x20 ADD PUSH1 0x0 KECCAK256 PUSH1 0x0 DUP3 DUP3 SLOAD ADD SWAP3 POP POP DUP2 SWAP1 SSTORE POP DUP3 PUSH20 0xFFFFFFFFFFFFFFFFFFFFFFFFFFFFFFFFFFFFFFFF AND DUP5 PUSH20 0xFFFFFFFFFFFFFFFFFFFFFFFFFFFFFFFFFFFFFFFF AND PUSH32 0xDDF252AD1BE2C89B69C2B068FC378DAA952BA7F163C4A11628F55A4DF523B3EF DUP5 PUSH1 0x40 MLOAD PUSH2 0xFEF SWAP2 SWAP1 PUSH2 0x14F5 JUMP JUMPDEST PUSH1 0x40 MLOAD DUP1 SWAP2 SUB SWAP1 LOG3 PUSH2 0x1002 DUP5 DUP5 DUP5 PUSH2 0x12A7 JUMP JUMPDEST POP POP POP POP JUMP JUMPDEST PUSH2 0x1010 PUSH2 0xB1A JUMP JUMPDEST PUSH20 0xFFFFFFFFFFFFFFFFFFFFFFFFFFFFFFFFFFFFFFFF AND PUSH2 0x102E PUSH2 0x6C1 JUMP JUMPDEST PUSH20 0xFFFFFFFFFFFFFFFFFFFFFFFFFFFFFFFFFFFFFFFF AND EQ PUSH2 0x1084 JUMPI PUSH1 0x40 MLOAD PUSH32 0x8C379A000000000000000000000000000000000000000000000000000000000 DUP2 MSTORE PUSH1 0x4 ADD PUSH2 0x107B SWAP1 PUSH2 0x20E1 JUMP JUMPDEST PUSH1 0x40 MLOAD DUP1 SWAP2 SUB SWAP1 REVERT JUMPDEST JUMP JUMPDEST PUSH1 0x0 PUSH20 0xFFFFFFFFFFFFFFFFFFFFFFFFFFFFFFFFFFFFFFFF AND DUP3 PUSH20 0xFFFFFFFFFFFFFFFFFFFFFFFFFFFFFFFFFFFFFFFF AND SUB PUSH2 0x10F5 JUMPI PUSH1 0x40 MLOAD PUSH32 0x8C379A000000000000000000000000000000000000000000000000000000000 DUP2 MSTORE PUSH1 0x4 ADD PUSH2 0x10EC SWAP1 PUSH2 0x214D JUMP JUMPDEST PUSH1 0x40 MLOAD DUP1 SWAP2 SUB SWAP1 REVERT JUMPDEST PUSH2 0x1101 PUSH1 0x0 DUP4 DUP4 PUSH2 0x12A2 JUMP JUMPDEST DUP1 PUSH1 0x2 PUSH1 0x0 DUP3 DUP3 SLOAD PUSH2 0x1113 SWAP2 SWAP1 PUSH2 0x1968 JUMP JUMPDEST SWAP3 POP POP DUP2 SWAP1 SSTORE POP DUP1 PUSH1 0x0 DUP1 DUP5 PUSH20 0xFFFFFFFFFFFFFFFFFFFFFFFFFFFFFFFFFFFFFFFF AND PUSH20 0xFFFFFFFFFFFFFFFFFFFFFFFFFFFFFFFFFFFFFFFF AND DUP2 MSTORE PUSH1 0x20 ADD SWAP1 DUP2 MSTORE PUSH1 0x20 ADD PUSH1 0x0 KECCAK256 PUSH1 0x0 DUP3 DUP3 SLOAD ADD SWAP3 POP POP DUP2 SWAP1 SSTORE POP DUP2 PUSH20 0xFFFFFFFFFFFFFFFFFFFFFFFFFFFFFFFFFFFFFFFF AND PUSH1 0x0 PUSH20 0xFFFFFFFFFFFFFFFFFFFFFFFFFFFFFFFFFFFFFFFF AND PUSH32 0xDDF252AD1BE2C89B69C2B068FC378DAA952BA7F163C4A11628F55A4DF523B3EF DUP4 PUSH1 0x40 MLOAD PUSH2 0x11C4 SWAP2 SWAP1 PUSH2 0x14F5 JUMP JUMPDEST PUSH1 0x40 MLOAD DUP1 SWAP2 SUB SWAP1 LOG3 PUSH2 0x11D8 PUSH1 0x0 DUP4 DUP4 PUSH2 0x12A7 JUMP JUMPDEST POP POP JUMP JUMPDEST PUSH1 0x0 PUSH1 0x5 PUSH1 0x0 SWAP1 SLOAD SWAP1 PUSH2 0x100 EXP SWAP1 DIV PUSH20 0xFFFFFFFFFFFFFFFFFFFFFFFFFFFFFFFFFFFFFFFF AND SWAP1 POP DUP2 PUSH1 0x5 PUSH1 0x0 PUSH2 0x100 EXP DUP2 SLOAD DUP2 PUSH20 0xFFFFFFFFFFFFFFFFFFFFFFFFFFFFFFFFFFFFFFFF MUL NOT AND SWAP1 DUP4 PUSH20 0xFFFFFFFFFFFFFFFFFFFFFFFFFFFFFFFFFFFFFFFF AND MUL OR SWAP1 SSTORE POP DUP2 PUSH20 0xFFFFFFFFFFFFFFFFFFFFFFFFFFFFFFFFFFFFFFFF AND DUP2 PUSH20 0xFFFFFFFFFFFFFFFFFFFFFFFFFFFFFFFFFFFFFFFF AND PUSH32 0x8BE0079C531659141344CD1FD0A4F28419497F9722A3DAAFE3B4186F6B6457E0 PUSH1 0x40 MLOAD PUSH1 0x40 MLOAD DUP1 SWAP2 SUB SWAP1 LOG3 POP POP JUMP JUMPDEST POP POP POP JUMP JUMPDEST POP POP POP JUMP JUMPDEST DUP3 DUP1 SLOAD DUP3 DUP3 SSTORE SWAP1 PUSH1 0x0 MSTORE PUSH1 0x20 PUSH1 0x0 KECCAK256 SWAP1 DUP2 ADD SWAP3 DUP3 ISZERO PUSH2 0x12E8 JUMPI SWAP2 PUSH1 0x20 MUL DUP3 ADD JUMPDEST DUP3 DUP2 GT ISZERO PUSH2 0x12E7 JUMPI DUP3 MLOAD DUP3 SSTORE SWAP2 PUSH1 0x20 ADD SWAP2 SWAP1 PUSH1 0x1 ADD SWAP1 PUSH2 0x12CC JUMP JUMPDEST JUMPDEST POP SWAP1 POP PUSH2 0x12F5 SWAP2 SWAP1 PUSH2 0x12F9 JUMP JUMPDEST POP SWAP1 JUMP JUMPDEST JUMPDEST DUP1 DUP3 GT ISZERO PUSH2 0x1312 JUMPI PUSH1 0x0 DUP2 PUSH1 0x0 SWAP1 SSTORE POP PUSH1 0x1 ADD PUSH2 0x12FA JUMP JUMPDEST POP SWAP1 JUMP JUMPDEST PUSH1 0x0 DUP2 MLOAD SWAP1 POP SWAP2 SWAP1 POP JUMP JUMPDEST PUSH1 0x0 DUP3 DUP3 MSTORE PUSH1 0x20 DUP3 ADD SWAP1 POP SWAP3 SWAP2 POP POP JUMP JUMPDEST PUSH1 0x0 JUMPDEST DUP4 DUP2 LT ISZERO PUSH2 0x1350 JUMPI DUP1 DUP3 ADD MLOAD DUP2 DUP5 ADD MSTORE PUSH1 0x20 DUP2 ADD SWAP1 POP PUSH2 0x1335 JUMP JUMPDEST PUSH1 0x0 DUP5 DUP5 ADD MSTORE POP POP POP POP JUMP JUMPDEST PUSH1 0x0 PUSH1 0x1F NOT PUSH1 0x1F DUP4 ADD AND SWAP1 POP SWAP2 SWAP1 POP JUMP JUMPDEST PUSH1 0x0 PUSH2 0x1378 DUP3 PUSH2 0x1316 JUMP JUMPDEST PUSH2 0x1382 DUP2 DUP6 PUSH2 0x1321 JUMP JUMPDEST SWAP4 POP PUSH2 0x1392 DUP2 DUP6 PUSH1 0x20 DUP7 ADD PUSH2 0x1332 JUMP JUMPDEST PUSH2 0x139B DUP2 PUSH2 0x135C JUMP JUMPDEST DUP5 ADD SWAP2 POP POP SWAP3 SWAP2 POP POP JUMP JUMPDEST PUSH1 0x0 PUSH1 0x20 DUP3 ADD SWAP1 POP DUP2 DUP2 SUB PUSH1 0x0 DUP4 ADD MSTORE PUSH2 0x13C0 DUP2 DUP5 PUSH2 0x136D JUMP JUMPDEST SWAP1 POP SWAP3 SWAP2 POP POP JUMP JUMPDEST PUSH1 0x0 PUSH1 0x40 MLOAD SWAP1 POP SWAP1 JUMP JUMPDEST PUSH1 0x0 DUP1 REVERT JUMPDEST PUSH1 0x0 DUP1 REVERT JUMPDEST PUSH1 0x0 PUSH20 0xFFFFFFFFFFFFFFFFFFFFFFFFFFFFFFFFFFFFFFFF DUP3 AND SWAP1 POP SWAP2 SWAP1 POP JUMP JUMPDEST PUSH1 0x0 PUSH2 0x1407 DUP3 PUSH2 0x13DC JUMP JUMPDEST SWAP1 POP SWAP2 SWAP1 POP JUMP JUMPDEST PUSH2 0x1417 DUP2 PUSH2 0x13FC JUMP JUMPDEST DUP2 EQ PUSH2 0x1422 JUMPI PUSH1 0x0 DUP1 REVERT JUMPDEST POP JUMP JUMPDEST PUSH1 0x0 DUP2 CALLDATALOAD SWAP1 POP PUSH2 0x1434 DUP2 PUSH2 0x140E JUMP JUMPDEST SWAP3 SWAP2 POP POP JUMP JUMPDEST PUSH1 0x0 DUP2 SWAP1 POP SWAP2 SWAP1 POP JUMP JUMPDEST PUSH2 0x144D DUP2 PUSH2 0x143A JUMP JUMPDEST DUP2 EQ PUSH2 0x1458 JUMPI PUSH1 0x0 DUP1 REVERT JUMPDEST POP JUMP JUMPDEST PUSH1 0x0 DUP2 CALLDATALOAD SWAP1 POP PUSH2 0x146A DUP2 PUSH2 0x1444 JUMP JUMPDEST SWAP3 SWAP2 POP POP JUMP JUMPDEST PUSH1 0x0 DUP1 PUSH1 0x40 DUP4 DUP6 SUB SLT ISZERO PUSH2 0x1487 JUMPI PUSH2 0x1486 PUSH2 0x13D2 JUMP JUMPDEST JUMPDEST PUSH1 0x0 PUSH2 0x1495 DUP6 DUP3 DUP7 ADD PUSH2 0x1425 JUMP JUMPDEST SWAP3 POP POP PUSH1 0x20 PUSH2 0x14A6 DUP6 DUP3 DUP7 ADD PUSH2 0x145B JUMP JUMPDEST SWAP2 POP POP SWAP3 POP SWAP3 SWAP1 POP JUMP JUMPDEST PUSH1 0x0 DUP2 ISZERO ISZERO SWAP1 POP SWAP2 SWAP1 POP JUMP JUMPDEST PUSH2 0x14C5 DUP2 PUSH2 0x14B0 JUMP JUMPDEST DUP3 MSTORE POP POP JUMP JUMPDEST PUSH1 0x0 PUSH1 0x20 DUP3 ADD SWAP1 POP PUSH2 0x14E0 PUSH1 0x0 DUP4 ADD DUP5 PUSH2 0x14BC JUMP JUMPDEST SWAP3 SWAP2 POP POP JUMP JUMPDEST PUSH2 0x14EF DUP2 PUSH2 0x143A JUMP JUMPDEST DUP3 MSTORE POP POP JUMP JUMPDEST PUSH1 0x0 PUSH1 0x20 DUP3 ADD SWAP1 POP PUSH2 0x150A PUSH1 0x0 DUP4 ADD DUP5 PUSH2 0x14E6 JUMP JUMPDEST SWAP3 SWAP2 POP POP JUMP JUMPDEST PUSH1 0x0 DUP1 REVERT JUMPDEST PUSH32 0x4E487B7100000000000000000000000000000000000000000000000000000000 PUSH1 0x0 MSTORE PUSH1 0x41 PUSH1 0x4 MSTORE PUSH1 0x24 PUSH1 0x0 REVERT JUMPDEST PUSH2 0x154D DUP3 PUSH2 0x135C JUMP JUMPDEST DUP2 ADD DUP2 DUP2 LT PUSH8 0xFFFFFFFFFFFFFFFF DUP3 GT OR ISZERO PUSH2 0x156C JUMPI PUSH2 0x156B PUSH2 0x1515 JUMP JUMPDEST JUMPDEST DUP1 PUSH1 0x40 MSTORE POP POP POP JUMP JUMPDEST PUSH1 0x0 PUSH2 0x157F PUSH2 0x13C8 JUMP JUMPDEST SWAP1 POP PUSH2 0x158B DUP3 DUP3 PUSH2 0x1544 JUMP JUMPDEST SWAP2 SWAP1 POP JUMP JUMPDEST PUSH1 0x0 PUSH8 0xFFFFFFFFFFFFFFFF DUP3 GT ISZERO PUSH2 0x15AB JUMPI PUSH2 0x15AA PUSH2 0x1515 JUMP JUMPDEST JUMPDEST PUSH1 0x20 DUP3 MUL SWAP1 POP PUSH1 0x20 DUP2 ADD SWAP1 POP SWAP2 SWAP1 POP JUMP JUMPDEST PUSH1 0x0 DUP1 REVERT JUMPDEST PUSH1 0x0 PUSH2 0x15D4 PUSH2 0x15CF DUP5 PUSH2 0x1590 JUMP JUMPDEST PUSH2 0x1575 JUMP JUMPDEST SWAP1 POP DUP1 DUP4 DUP3 MSTORE PUSH1 0x20 DUP3 ADD SWAP1 POP PUSH1 0x20 DUP5 MUL DUP4 ADD DUP6 DUP2 GT ISZERO PUSH2 0x15F7 JUMPI PUSH2 0x15F6 PUSH2 0x15BC JUMP JUMPDEST JUMPDEST DUP4 JUMPDEST DUP2 DUP2 LT ISZERO PUSH2 0x1620 JUMPI DUP1 PUSH2 0x160C DUP9 DUP3 PUSH2 0x145B JUMP JUMPDEST DUP5 MSTORE PUSH1 0x20 DUP5 ADD SWAP4 POP POP PUSH1 0x20 DUP2 ADD SWAP1 POP PUSH2 0x15F9 JUMP JUMPDEST POP POP POP SWAP4 SWAP3 POP POP POP JUMP JUMPDEST PUSH1 0x0 DUP3 PUSH1 0x1F DUP4 ADD SLT PUSH2 0x163F JUMPI PUSH2 0x163E PUSH2 0x1510 JUMP JUMPDEST JUMPDEST DUP2 CALLDATALOAD PUSH2 0x164F DUP5 DUP3 PUSH1 0x20 DUP7 ADD PUSH2 0x15C1 JUMP JUMPDEST SWAP2 POP POP SWAP3 SWAP2 POP POP JUMP JUMPDEST PUSH1 0x0 DUP1 PUSH1 0x40 DUP4 DUP6 SUB SLT ISZERO PUSH2 0x166F JUMPI PUSH2 0x166E PUSH2 0x13D2 JUMP JUMPDEST JUMPDEST PUSH1 0x0 PUSH2 0x167D DUP6 DUP3 DUP7 ADD PUSH2 0x145B JUMP JUMPDEST SWAP3 POP POP PUSH1 0x20 DUP4 ADD CALLDATALOAD PUSH8 0xFFFFFFFFFFFFFFFF DUP2 GT ISZERO PUSH2 0x169E JUMPI PUSH2 0x169D PUSH2 0x13D7 JUMP JUMPDEST JUMPDEST PUSH2 0x16AA DUP6 DUP3 DUP7 ADD PUSH2 0x162A JUMP JUMPDEST SWAP2 POP POP SWAP3 POP SWAP3 SWAP1 POP JUMP JUMPDEST PUSH1 0x0 DUP1 PUSH1 0x0 PUSH1 0x60 DUP5 DUP7 SUB SLT ISZERO PUSH2 0x16CD JUMPI PUSH2 0x16CC PUSH2 0x13D2 JUMP JUMPDEST JUMPDEST PUSH1 0x0 PUSH2 0x16DB DUP7 DUP3 DUP8 ADD PUSH2 0x1425 JUMP JUMPDEST SWAP4 POP POP PUSH1 0x20 PUSH2 0x16EC DUP7 DUP3 DUP8 ADD PUSH2 0x1425 JUMP JUMPDEST SWAP3 POP POP PUSH1 0x40 PUSH2 0x16FD DUP7 DUP3 DUP8 ADD PUSH2 0x145B JUMP JUMPDEST SWAP2 POP POP SWAP3 POP SWAP3 POP SWAP3 JUMP JUMPDEST PUSH1 0x0 PUSH1 0xFF DUP3 AND SWAP1 POP SWAP2 SWAP1 POP JUMP JUMPDEST PUSH2 0x171D DUP2 PUSH2 0x1707 JUMP JUMPDEST DUP3 MSTORE POP POP JUMP JUMPDEST PUSH1 0x0 PUSH1 0x20 DUP3 ADD SWAP1 POP PUSH2 0x1738 PUSH1 0x0 DUP4 ADD DUP5 PUSH2 0x1714 JUMP JUMPDEST SWAP3 SWAP2 POP POP JUMP JUMPDEST PUSH1 0x0 PUSH1 0x20 DUP3 DUP5 SUB SLT ISZERO PUSH2 0x1754 JUMPI PUSH2 0x1753 PUSH2 0x13D2 JUMP JUMPDEST JUMPDEST PUSH1 0x0 PUSH2 0x1762 DUP5 DUP3 DUP6 ADD PUSH2 0x1425 JUMP JUMPDEST SWAP2 POP POP SWAP3 SWAP2 POP POP JUMP JUMPDEST PUSH1 0x0 DUP2 SWAP1 POP SWAP2 SWAP1 POP JUMP JUMPDEST PUSH1 0x0 PUSH2 0x1790 PUSH2 0x178B PUSH2 0x1786 DUP5 PUSH2 0x13DC JUMP JUMPDEST PUSH2 0x176B JUMP JUMPDEST PUSH2 0x13DC JUMP JUMPDEST SWAP1 POP SWAP2 SWAP1 POP JUMP JUMPDEST PUSH1 0x0 PUSH2 0x17A2 DUP3 PUSH2 0x1775 JUMP JUMPDEST SWAP1 POP SWAP2 SWAP1 POP JUMP JUMPDEST PUSH1 0x0 PUSH2 0x17B4 DUP3 PUSH2 0x1797 JUMP JUMPDEST SWAP1 POP SWAP2 SWAP1 POP JUMP JUMPDEST PUSH2 0x17C4 DUP2 PUSH2 0x17A9 JUMP JUMPDEST DUP3 MSTORE POP POP JUMP JUMPDEST PUSH1 0x0 PUSH1 0x20 DUP3 ADD SWAP1 POP PUSH2 0x17DF PUSH1 0x0 DUP4 ADD DUP5 PUSH2 0x17BB JUMP JUMPDEST SWAP3 SWAP2 POP POP JUMP JUMPDEST PUSH2 0x17EE DUP2 PUSH2 0x13FC JUMP JUMPDEST DUP3 MSTORE POP POP JUMP JUMPDEST PUSH1 0x0 PUSH1 0x20 DUP3 ADD SWAP1 POP PUSH2 0x1809 PUSH1 0x0 DUP4 ADD DUP5 PUSH2 0x17E5 JUMP JUMPDEST SWAP3 SWAP2 POP POP JUMP JUMPDEST PUSH1 0x0 DUP2 SWAP1 POP SWAP2 SWAP1 POP JUMP JUMPDEST PUSH2 0x1822 DUP2 PUSH2 0x180F JUMP JUMPDEST DUP3 MSTORE POP POP JUMP JUMPDEST PUSH1 0x0 PUSH1 0x20 DUP3 ADD SWAP1 POP PUSH2 0x183D PUSH1 0x0 DUP4 ADD DUP5 PUSH2 0x1819 JUMP JUMPDEST SWAP3 SWAP2 POP POP JUMP JUMPDEST PUSH1 0x0 DUP1 PUSH1 0x40 DUP4 DUP6 SUB SLT ISZERO PUSH2 0x185A JUMPI PUSH2 0x1859 PUSH2 0x13D2 JUMP JUMPDEST JUMPDEST PUSH1 0x0 PUSH2 0x1868 DUP6 DUP3 DUP7 ADD PUSH2 0x1425 JUMP JUMPDEST SWAP3 POP POP PUSH1 0x20 PUSH2 0x1879 DUP6 DUP3 DUP7 ADD PUSH2 0x1425 JUMP JUMPDEST SWAP2 POP POP SWAP3 POP SWAP3 SWAP1 POP JUMP JUMPDEST PUSH1 0x0 PUSH1 0x20 DUP3 DUP5 SUB SLT ISZERO PUSH2 0x1899 JUMPI PUSH2 0x1898 PUSH2 0x13D2 JUMP JUMPDEST JUMPDEST PUSH1 0x0 PUSH2 0x18A7 DUP5 DUP3 DUP6 ADD PUSH2 0x145B JUMP JUMPDEST SWAP2 POP POP SWAP3 SWAP2 POP POP JUMP JUMPDEST PUSH32 0x4E487B7100000000000000000000000000000000000000000000000000000000 PUSH1 0x0 MSTORE PUSH1 0x22 PUSH1 0x4 MSTORE PUSH1 0x24 PUSH1 0x0 REVERT JUMPDEST PUSH1 0x0 PUSH1 0x2 DUP3 DIV SWAP1 POP PUSH1 0x1 DUP3 AND DUP1 PUSH2 0x18F7 JUMPI PUSH1 0x7F DUP3 AND SWAP2 POP JUMPDEST PUSH1 0x20 DUP3 LT DUP2 SUB PUSH2 0x190A JUMPI PUSH2 0x1909 PUSH2 0x18B0 JUMP JUMPDEST JUMPDEST POP SWAP2 SWAP1 POP JUMP JUMPDEST PUSH1 0x0 PUSH1 0x40 DUP3 ADD SWAP1 POP PUSH2 0x1925 PUSH1 0x0 DUP4 ADD DUP6 PUSH2 0x17E5 JUMP JUMPDEST PUSH2 0x1932 PUSH1 0x20 DUP4 ADD DUP5 PUSH2 0x17E5 JUMP JUMPDEST SWAP4 SWAP3 POP POP POP JUMP JUMPDEST PUSH32 0x4E487B7100000000000000000000000000000000000000000000000000000000 PUSH1 0x0 MSTORE PUSH1 0x11 PUSH1 0x4 MSTORE PUSH1 0x24 PUSH1 0x0 REVERT JUMPDEST PUSH1 0x0 PUSH2 0x1973 DUP3 PUSH2 0x143A JUMP JUMPDEST SWAP2 POP PUSH2 0x197E DUP4 PUSH2 0x143A JUMP JUMPDEST SWAP3 POP DUP3 DUP3 ADD SWAP1 POP DUP1 DUP3 GT ISZERO PUSH2 0x1996 JUMPI PUSH2 0x1995 PUSH2 0x1939 JUMP JUMPDEST JUMPDEST SWAP3 SWAP2 POP POP JUMP JUMPDEST PUSH1 0x0 PUSH10 0xFFFFFFFFFFFFFFFFFFFF DUP3 AND SWAP1 POP SWAP2 SWAP1 POP JUMP JUMPDEST PUSH2 0x19BB DUP2 PUSH2 0x199C JUMP JUMPDEST DUP2 EQ PUSH2 0x19C6 JUMPI PUSH1 0x0 DUP1 REVERT JUMPDEST POP JUMP JUMPDEST PUSH1 0x0 DUP2 MLOAD SWAP1 POP PUSH2 0x19D8 DUP2 PUSH2 0x19B2 JUMP JUMPDEST SWAP3 SWAP2 POP POP JUMP JUMPDEST PUSH2 0x19E7 DUP2 PUSH2 0x180F JUMP JUMPDEST DUP2 EQ PUSH2 0x19F2 JUMPI PUSH1 0x0 DUP1 REVERT JUMPDEST POP JUMP JUMPDEST PUSH1 0x0 DUP2 MLOAD SWAP1 POP PUSH2 0x1A04 DUP2 PUSH2 0x19DE JUMP JUMPDEST SWAP3 SWAP2 POP POP JUMP JUMPDEST PUSH1 0x0 DUP2 MLOAD SWAP1 POP PUSH2 0x1A19 DUP2 PUSH2 0x1444 JUMP JUMPDEST SWAP3 SWAP2 POP POP JUMP JUMPDEST PUSH1 0x0 DUP1 PUSH1 0x0 DUP1 PUSH1 0x0 PUSH1 0xA0 DUP7 DUP9 SUB SLT ISZERO PUSH2 0x1A3B JUMPI PUSH2 0x1A3A PUSH2 0x13D2 JUMP JUMPDEST JUMPDEST PUSH1 0x0 PUSH2 0x1A49 DUP9 DUP3 DUP10 ADD PUSH2 0x19C9 JUMP JUMPDEST SWAP6 POP POP PUSH1 0x20 PUSH2 0x1A5A DUP9 DUP3 DUP10 ADD PUSH2 0x19F5 JUMP JUMPDEST SWAP5 POP POP PUSH1 0x40 PUSH2 0x1A6B DUP9 DUP3 DUP10 ADD PUSH2 0x1A0A JUMP JUMPDEST SWAP4 POP POP PUSH1 0x60 PUSH2 0x1A7C DUP9 DUP3 DUP10 ADD PUSH2 0x1A0A JUMP JUMPDEST SWAP3 POP POP PUSH1 0x80 PUSH2 0x1A8D DUP9 DUP3 DUP10 ADD PUSH2 0x19C9 JUMP JUMPDEST SWAP2 POP POP SWAP3 SWAP6 POP SWAP3 SWAP6 SWAP1 SWAP4 POP JUMP JUMPDEST PUSH32 0x4E487B7100000000000000000000000000000000000000000000000000000000 PUSH1 0x0 MSTORE PUSH1 0x12 PUSH1 0x4 MSTORE PUSH1 0x24 PUSH1 0x0 REVERT JUMPDEST PUSH1 0x0 PUSH2 0x1AD4 DUP3 PUSH2 0x180F JUMP JUMPDEST SWAP2 POP PUSH2 0x1ADF DUP4 PUSH2 0x180F JUMP JUMPDEST SWAP3 POP DUP3 PUSH2 0x1AEF JUMPI PUSH2 0x1AEE PUSH2 0x1A9A JUMP JUMPDEST JUMPDEST PUSH1 0x1 PUSH1 0x0 SUB DUP4 EQ PUSH32 0x8000000000000000000000000000000000000000000000000000000000000000 DUP4 EQ AND ISZERO PUSH2 0x1B28 JUMPI PUSH2 0x1B27 PUSH2 0x1939 JUMP JUMPDEST JUMPDEST DUP3 DUP3 SDIV SWAP1 POP SWAP3 SWAP2 POP POP JUMP JUMPDEST PUSH32 0x45524332303A2064656372656173656420616C6C6F77616E63652062656C6F77 PUSH1 0x0 DUP3 ADD MSTORE PUSH32 0x207A65726F000000000000000000000000000000000000000000000000000000 PUSH1 0x20 DUP3 ADD MSTORE POP JUMP JUMPDEST PUSH1 0x0 PUSH2 0x1B8F PUSH1 0x25 DUP4 PUSH2 0x1321 JUMP JUMPDEST SWAP2 POP PUSH2 0x1B9A DUP3 PUSH2 0x1B33 JUMP JUMPDEST PUSH1 0x40 DUP3 ADD SWAP1 POP SWAP2 SWAP1 POP JUMP JUMPDEST PUSH1 0x0 PUSH1 0x20 DUP3 ADD SWAP1 POP DUP2 DUP2 SUB PUSH1 0x0 DUP4 ADD MSTORE PUSH2 0x1BBE DUP2 PUSH2 0x1B82 JUMP JUMPDEST SWAP1 POP SWAP2 SWAP1 POP JUMP JUMPDEST PUSH1 0x0 DUP2 SWAP1 POP SWAP2 SWAP1 POP JUMP JUMPDEST PUSH2 0x1BD8 DUP2 PUSH2 0x1BC5 JUMP JUMPDEST DUP3 MSTORE POP POP JUMP JUMPDEST PUSH1 0x0 PUSH8 0xFFFFFFFFFFFFFFFF DUP3 AND SWAP1 POP SWAP2 SWAP1 POP JUMP JUMPDEST PUSH2 0x1BFB DUP2 PUSH2 0x1BDE JUMP JUMPDEST DUP3 MSTORE POP POP JUMP JUMPDEST PUSH1 0x0 PUSH2 0xFFFF DUP3 AND SWAP1 POP SWAP2 SWAP1 POP JUMP JUMPDEST PUSH2 0x1C18 DUP2 PUSH2 0x1C01 JUMP JUMPDEST DUP3 MSTORE POP POP JUMP JUMPDEST PUSH1 0x0 PUSH4 0xFFFFFFFF DUP3 AND SWAP1 POP SWAP2 SWAP1 POP JUMP JUMPDEST PUSH2 0x1C37 DUP2 PUSH2 0x1C1E JUMP JUMPDEST DUP3 MSTORE POP POP JUMP JUMPDEST PUSH1 0x0 PUSH1 0xA0 DUP3 ADD SWAP1 POP PUSH2 0x1C52 PUSH1 0x0 DUP4 ADD DUP9 PUSH2 0x1BCF JUMP JUMPDEST PUSH2 0x1C5F PUSH1 0x20 DUP4 ADD DUP8 PUSH2 0x1BF2 JUMP JUMPDEST PUSH2 0x1C6C PUSH1 0x40 DUP4 ADD DUP7 PUSH2 0x1C0F JUMP JUMPDEST PUSH2 0x1C79 PUSH1 0x60 DUP4 ADD DUP6 PUSH2 0x1C2E JUMP JUMPDEST PUSH2 0x1C86 PUSH1 0x80 DUP4 ADD DUP5 PUSH2 0x1C2E JUMP JUMPDEST SWAP7 SWAP6 POP POP POP POP POP POP JUMP JUMPDEST PUSH1 0x0 PUSH1 0x20 DUP3 DUP5 SUB SLT ISZERO PUSH2 0x1CA6 JUMPI PUSH2 0x1CA5 PUSH2 0x13D2 JUMP JUMPDEST JUMPDEST PUSH1 0x0 PUSH2 0x1CB4 DUP5 DUP3 DUP6 ADD PUSH2 0x1A0A JUMP JUMPDEST SWAP2 POP POP SWAP3 SWAP2 POP POP JUMP JUMPDEST PUSH32 0x4F776E61626C653A206E6577206F776E657220697320746865207A65726F2061 PUSH1 0x0 DUP3 ADD MSTORE PUSH32 0x6464726573730000000000000000000000000000000000000000000000000000 PUSH1 0x20 DUP3 ADD MSTORE POP JUMP JUMPDEST PUSH1 0x0 PUSH2 0x1D19 PUSH1 0x26 DUP4 PUSH2 0x1321 JUMP JUMPDEST SWAP2 POP PUSH2 0x1D24 DUP3 PUSH2 0x1CBD JUMP JUMPDEST PUSH1 0x40 DUP3 ADD SWAP1 POP SWAP2 SWAP1 POP JUMP JUMPDEST PUSH1 0x0 PUSH1 0x20 DUP3 ADD SWAP1 POP DUP2 DUP2 SUB PUSH1 0x0 DUP4 ADD MSTORE PUSH2 0x1D48 DUP2 PUSH2 0x1D0C JUMP JUMPDEST SWAP1 POP SWAP2 SWAP1 POP JUMP JUMPDEST PUSH32 0x45524332303A20617070726F76652066726F6D20746865207A65726F20616464 PUSH1 0x0 DUP3 ADD MSTORE PUSH32 0x7265737300000000000000000000000000000000000000000000000000000000 PUSH1 0x20 DUP3 ADD MSTORE POP JUMP JUMPDEST PUSH1 0x0 PUSH2 0x1DAB PUSH1 0x24 DUP4 PUSH2 0x1321 JUMP JUMPDEST SWAP2 POP PUSH2 0x1DB6 DUP3 PUSH2 0x1D4F JUMP JUMPDEST PUSH1 0x40 DUP3 ADD SWAP1 POP SWAP2 SWAP1 POP JUMP JUMPDEST PUSH1 0x0 PUSH1 0x20 DUP3 ADD SWAP1 POP DUP2 DUP2 SUB PUSH1 0x0 DUP4 ADD MSTORE PUSH2 0x1DDA DUP2 PUSH2 0x1D9E JUMP JUMPDEST SWAP1 POP SWAP2 SWAP1 POP JUMP JUMPDEST PUSH32 0x45524332303A20617070726F766520746F20746865207A65726F206164647265 PUSH1 0x0 DUP3 ADD MSTORE PUSH32 0x7373000000000000000000000000000000000000000000000000000000000000 PUSH1 0x20 DUP3 ADD MSTORE POP JUMP JUMPDEST PUSH1 0x0 PUSH2 0x1E3D PUSH1 0x22 DUP4 PUSH2 0x1321 JUMP JUMPDEST SWAP2 POP PUSH2 0x1E48 DUP3 PUSH2 0x1DE1 JUMP JUMPDEST PUSH1 0x40 DUP3 ADD SWAP1 POP SWAP2 SWAP1 POP JUMP JUMPDEST PUSH1 0x0 PUSH1 0x20 DUP3 ADD SWAP1 POP DUP2 DUP2 SUB PUSH1 0x0 DUP4 ADD MSTORE PUSH2 0x1E6C DUP2 PUSH2 0x1E30 JUMP JUMPDEST SWAP1 POP SWAP2 SWAP1 POP JUMP JUMPDEST PUSH32 0x45524332303A20696E73756666696369656E7420616C6C6F77616E6365000000 PUSH1 0x0 DUP3 ADD MSTORE POP JUMP JUMPDEST PUSH1 0x0 PUSH2 0x1EA9 PUSH1 0x1D DUP4 PUSH2 0x1321 JUMP JUMPDEST SWAP2 POP PUSH2 0x1EB4 DUP3 PUSH2 0x1E73 JUMP JUMPDEST PUSH1 0x20 DUP3 ADD SWAP1 POP SWAP2 SWAP1 POP JUMP JUMPDEST PUSH1 0x0 PUSH1 0x20 DUP3 ADD SWAP1 POP DUP2 DUP2 SUB PUSH1 0x0 DUP4 ADD MSTORE PUSH2 0x1ED8 DUP2 PUSH2 0x1E9C JUMP JUMPDEST SWAP1 POP SWAP2 SWAP1 POP JUMP JUMPDEST PUSH32 0x45524332303A207472616E736665722066726F6D20746865207A65726F206164 PUSH1 0x0 DUP3 ADD MSTORE PUSH32 0x6472657373000000000000000000000000000000000000000000000000000000 PUSH1 0x20 DUP3 ADD MSTORE POP JUMP JUMPDEST PUSH1 0x0 PUSH2 0x1F3B PUSH1 0x25 DUP4 PUSH2 0x1321 JUMP JUMPDEST SWAP2 POP PUSH2 0x1F46 DUP3 PUSH2 0x1EDF JUMP JUMPDEST PUSH1 0x40 DUP3 ADD SWAP1 POP SWAP2 SWAP1 POP JUMP JUMPDEST PUSH1 0x0 PUSH1 0x20 DUP3 ADD SWAP1 POP DUP2 DUP2 SUB PUSH1 0x0 DUP4 ADD MSTORE PUSH2 0x1F6A DUP2 PUSH2 0x1F2E JUMP JUMPDEST SWAP1 POP SWAP2 SWAP1 POP JUMP JUMPDEST PUSH32 0x45524332303A207472616E7366657220746F20746865207A65726F2061646472 PUSH1 0x0 DUP3 ADD MSTORE PUSH32 0x6573730000000000000000000000000000000000000000000000000000000000 PUSH1 0x20 DUP3 ADD MSTORE POP JUMP JUMPDEST PUSH1 0x0 PUSH2 0x1FCD PUSH1 0x23 DUP4 PUSH2 0x1321 JUMP JUMPDEST SWAP2 POP PUSH2 0x1FD8 DUP3 PUSH2 0x1F71 JUMP JUMPDEST PUSH1 0x40 DUP3 ADD SWAP1 POP SWAP2 SWAP1 POP JUMP JUMPDEST PUSH1 0x0 PUSH1 0x20 DUP3 ADD SWAP1 POP DUP2 DUP2 SUB PUSH1 0x0 DUP4 ADD MSTORE PUSH2 0x1FFC DUP2 PUSH2 0x1FC0 JUMP JUMPDEST SWAP1 POP SWAP2 SWAP1 POP JUMP JUMPDEST PUSH32 0x45524332303A207472616E7366657220616D6F756E7420657863656564732062 PUSH1 0x0 DUP3 ADD MSTORE PUSH32 0x616C616E63650000000000000000000000000000000000000000000000000000 PUSH1 0x20 DUP3 ADD MSTORE POP JUMP JUMPDEST PUSH1 0x0 PUSH2 0x205F PUSH1 0x26 DUP4 PUSH2 0x1321 JUMP JUMPDEST SWAP2 POP PUSH2 0x206A DUP3 PUSH2 0x2003 JUMP JUMPDEST PUSH1 0x40 DUP3 ADD SWAP1 POP SWAP2 SWAP1 POP JUMP JUMPDEST PUSH1 0x0 PUSH1 0x20 DUP3 ADD SWAP1 POP DUP2 DUP2 SUB PUSH1 0x0 DUP4 ADD MSTORE PUSH2 0x208E DUP2 PUSH2 0x2052 JUMP JUMPDEST SWAP1 POP SWAP2 SWAP1 POP JUMP JUMPDEST PUSH32 0x4F776E61626C653A2063616C6C6572206973206E6F7420746865206F776E6572 PUSH1 0x0 DUP3 ADD MSTORE POP JUMP JUMPDEST PUSH1 0x0 PUSH2 0x20CB PUSH1 0x20 DUP4 PUSH2 0x1321 JUMP JUMPDEST SWAP2 POP PUSH2 0x20D6 DUP3 PUSH2 0x2095 JUMP JUMPDEST PUSH1 0x20 DUP3 ADD SWAP1 POP SWAP2 SWAP1 POP JUMP JUMPDEST PUSH1 0x0 PUSH1 0x20 DUP3 ADD SWAP1 POP DUP2 DUP2 SUB PUSH1 0x0 DUP4 ADD MSTORE PUSH2 0x20FA DUP2 PUSH2 0x20BE JUMP JUMPDEST SWAP1 POP SWAP2 SWAP1 POP JUMP JUMPDEST PUSH32 0x45524332303A206D696E7420746F20746865207A65726F206164647265737300 PUSH1 0x0 DUP3 ADD MSTORE POP JUMP JUMPDEST PUSH1 0x0 PUSH2 0x2137 PUSH1 0x1F DUP4 PUSH2 0x1321 JUMP JUMPDEST SWAP2 POP PUSH2 0x2142 DUP3 PUSH2 0x2101 JUMP JUMPDEST PUSH1 0x20 DUP3 ADD SWAP1 POP SWAP2 SWAP1 POP JUMP JUMPDEST PUSH1 0x0 PUSH1 0x20 DUP3 ADD SWAP1 POP DUP2 DUP2 SUB PUSH1 0x0 DUP4 ADD MSTORE PUSH2 0x2166 DUP2 PUSH2 0x212A JUMP JUMPDEST SWAP1 POP SWAP2 SWAP1 POP JUMP INVALID LOG2 PUSH5 0x6970667358 0x22 SLT KECCAK256 DUP7 SHR 0xBB LOG2 GASPRICE 0xE2 0xAA 0xCF ORIGIN 0xA9 0xD5 OR 0xC9 SAR GASLIMIT 0xBE 0xC0 0xC4 CODECOPY SWAP16 MSIZE MSIZE 0x2F JUMP 0x49 SWAP16 0xD9 0xAB 0xB7 0x2C BASEFEE SSTORE PUSH5 0x736F6C6343 STOP ADDMOD GT STOP CALLER "
				},
				"gasEstimates": {
					"creation": {
						"codeDepositCost": "1722200",
						"executionCost": "infinite",
						"totalCost": "infinite"
					},
					"external": {
						"allowance(address,address)": "infinite",
						"approve(address,uint256)": "infinite",
						"balanceOf(address)": "2930",
						"decimals()": "366",
						"decreaseAllowance(address,uint256)": "infinite",
						"getLatestPrice()": "infinite",
						"increaseAllowance(address,uint256)": "infinite",
						"mint(address,uint256)": "infinite",
						"name()": "infinite",
						"owner()": "2545",
						"priceFeed()": "infinite",
						"rawFulfillRandomWords(uint256,uint256[])": "infinite",
						"renounceOwnership()": "30509",
						"requestRandomWords()": "infinite",
						"s_randomWords(uint256)": "infinite",
						"s_requestId()": "2517",
						"symbol()": "infinite",
						"totalSupply()": "2505",
						"transfer(address,address,uint256)": "infinite",
						"transfer(address,uint256)": "infinite",
						"transferFrom(address,address,uint256)": "infinite",
						"transferOwnership(address)": "30854"
					},
					"internal": {
						"fulfillRandomWords(uint256,uint256[] memory)": "infinite"
					}
				},
				"methodIdentifiers": {
					"allowance(address,address)": "dd62ed3e",
					"approve(address,uint256)": "095ea7b3",
					"balanceOf(address)": "70a08231",
					"decimals()": "313ce567",
					"decreaseAllowance(address,uint256)": "a457c2d7",
					"getLatestPrice()": "8e15f473",
					"increaseAllowance(address,uint256)": "39509351",
					"mint(address,uint256)": "40c10f19",
					"name()": "06fdde03",
					"owner()": "8da5cb5b",
					"priceFeed()": "741bef1a",
					"rawFulfillRandomWords(uint256,uint256[])": "1fe543e3",
					"renounceOwnership()": "715018a6",
					"requestRandomWords()": "e0c86289",
					"s_randomWords(uint256)": "f6eaffc8",
					"s_requestId()": "e89e106a",
					"symbol()": "95d89b41",
					"totalSupply()": "18160ddd",
					"transfer(address,address,uint256)": "beabacc8",
					"transfer(address,uint256)": "a9059cbb",
					"transferFrom(address,address,uint256)": "23b872dd",
					"transferOwnership(address)": "f2fde38b"
				}
			},
			"storageLayout": {
				"storage": [
					{
						"astId": 328,
						"contract": "contracts/ERC20K.sol:ERC20K",
						"label": "_balances",
						"offset": 0,
						"slot": "0",
						"type": "t_mapping(t_address,t_uint256)"
					},
					{
						"astId": 334,
						"contract": "contracts/ERC20K.sol:ERC20K",
						"label": "_allowances",
						"offset": 0,
						"slot": "1",
						"type": "t_mapping(t_address,t_mapping(t_address,t_uint256))"
					},
					{
						"astId": 336,
						"contract": "contracts/ERC20K.sol:ERC20K",
						"label": "_totalSupply",
						"offset": 0,
						"slot": "2",
						"type": "t_uint256"
					},
					{
						"astId": 338,
						"contract": "contracts/ERC20K.sol:ERC20K",
						"label": "_name",
						"offset": 0,
						"slot": "3",
						"type": "t_string_storage"
					},
					{
						"astId": 340,
						"contract": "contracts/ERC20K.sol:ERC20K",
						"label": "_symbol",
						"offset": 0,
						"slot": "4",
						"type": "t_string_storage"
					},
					{
						"astId": 207,
						"contract": "contracts/ERC20K.sol:ERC20K",
						"label": "_owner",
						"offset": 0,
						"slot": "5",
						"type": "t_address"
					},
					{
						"astId": 1040,
						"contract": "contracts/ERC20K.sol:ERC20K",
						"label": "_totalSupply",
						"offset": 0,
						"slot": "6",
						"type": "t_uint256"
					},
					{
						"astId": 1042,
						"contract": "contracts/ERC20K.sol:ERC20K",
						"label": "_name",
						"offset": 0,
						"slot": "7",
						"type": "t_string_storage"
					},
					{
						"astId": 1044,
						"contract": "contracts/ERC20K.sol:ERC20K",
						"label": "_symbol",
						"offset": 0,
						"slot": "8",
						"type": "t_string_storage"
					},
					{
						"astId": 1047,
						"contract": "contracts/ERC20K.sol:ERC20K",
						"label": "priceFeed",
						"offset": 0,
						"slot": "9",
						"type": "t_contract(AggregatorV3Interface)103"
					},
					{
						"astId": 1057,
						"contract": "contracts/ERC20K.sol:ERC20K",
						"label": "s_randomWords",
						"offset": 0,
						"slot": "10",
						"type": "t_array(t_uint256)dyn_storage"
					},
					{
						"astId": 1059,
						"contract": "contracts/ERC20K.sol:ERC20K",
						"label": "s_requestId",
						"offset": 0,
						"slot": "11",
						"type": "t_uint256"
					},
					{
						"astId": 1061,
						"contract": "contracts/ERC20K.sol:ERC20K",
						"label": "s_owner",
						"offset": 0,
						"slot": "12",
						"type": "t_address"
					}
				],
				"types": {
					"t_address": {
						"encoding": "inplace",
						"label": "address",
						"numberOfBytes": "20"
					},
					"t_array(t_uint256)dyn_storage": {
						"base": "t_uint256",
						"encoding": "dynamic_array",
						"label": "uint256[]",
						"numberOfBytes": "32"
					},
					"t_contract(AggregatorV3Interface)103": {
						"encoding": "inplace",
						"label": "contract AggregatorV3Interface",
						"numberOfBytes": "20"
					},
					"t_mapping(t_address,t_mapping(t_address,t_uint256))": {
						"encoding": "mapping",
						"key": "t_address",
						"label": "mapping(address => mapping(address => uint256))",
						"numberOfBytes": "32",
						"value": "t_mapping(t_address,t_uint256)"
					},
					"t_mapping(t_address,t_uint256)": {
						"encoding": "mapping",
						"key": "t_address",
						"label": "mapping(address => uint256)",
						"numberOfBytes": "32",
						"value": "t_uint256"
					},
					"t_string_storage": {
						"encoding": "bytes",
						"label": "string",
						"numberOfBytes": "32"
					},
					"t_uint256": {
						"encoding": "inplace",
						"label": "uint256",
						"numberOfBytes": "32"
					}
				}
			},
			"userdoc": {
				"kind": "user",
				"methods": {},
				"version": 1
			}
		}
	}
}